:020000040800F2
:100000000028002071170008DD160008E31600081C
:10001000E9160008EF160008F516000800000000B9
:10002000000000000000000000000000FB160008B7
:100030000717000800000000131700081F1700082A
:10004000B9170008B9170008B9170008B917000850
:10005000B9170008B9170008B9170008B917000840
:10006000B9170008B9170008B9170008B917000830
:10007000B9170008B9170008B9170008B917000820
:10008000B9170008B9170008B9170008B917000810
:10009000B9170008B9170008B9170008B917000800
:1000A000B9170008B9170008B9170008B9170008F0
:1000B0002D170008B917000800000000B917000844
:1000C000B91700080000000000000000B917000880
:1000D00000000000B9170008B91700080000000070
:1000E000B9170008B9170008B91700080000000088
:1000F0000000000000000000000000000000000000
:0C01000000000000000000005FF808F1A3
:10010C0010B5054C237833B9044B13B10448AFF345
:10011C0000800123237010BD30000020000000007F
:10012C00E02D000808B5034B1BB103490348AFF39E
:10013C00008008BD0000000034000020E02D000805
:10014C0080B500AF00222021044801F032FE0022CD
:10015C000421024801F02DFE00BF80BD00080140C3
:10016C0080B500AF00228021044801F022FE00225D
:10017C001021024801F01DFE00BF80BD00080140A7
:10018C0080B500AF00224021044801F012FE00228D
:10019C000821024801F00DFE00BF80BD000801409F
:1001AC0080B500AF012220210E4801F002FE012291
:1001BC0004210C4801F0FDFD01228021094801F0C9
:1001CC00F8FD01221021074801F0F3FD0122402126
:1001DC00044801F0EEFD01220821024801F0E9FD7E
:1001EC0000BF80BD0008014080B500AFB24B1B685A
:1001FC00163B032B00F2B38001A252F823F000BF90
:10020C001D02000881020008CD0200081903000835
:10021C0000222021A94801F0CCFD01228021A74811
:10022C0001F0C7FD01224021A44801F0C2FDA44BFE
:10023C001A68A34B5968A24B9B680B449A420AD08C
:10024C00A04B4FF4FA721A609E4BC8229A609D4BD9
:10025C004FF496725A609C4B21221A60964B1722CF
:10026C001A6000F0EBFB974B1B680021184601F05D
:10027C0091F97BE000222021904801F09AFD0122A7
:10028C0080218E4801F095FD012240218B4801F020
:10029C0090FD8E4B00221A608D4B9B68012B01D177
:1002AC0000F0CCFB8A4B1B68012B5AD1824B1822D5
:1002BC001A60844B5B680021184601F06BF950E022
:1002CC00012220217D4801F074FD002280217B4811
:1002DC0001F06FFD01224021784801F06AFD7B4B53
:1002EC0001221A607A4B1B68012B08D1724B192220
:1002FC001A60744B9B680021184601F04BF9744B43
:10030C009B68012B2FD100F099FB2CE001222021BE
:10031C006A4801F04EFD01228021684801F049FD38
:10032C0000224021654801F044FD684B02221A600E
:10033C00674B1B68012B08D1624B1B6800211846C8
:10034C0001F028F95C4B17221A60614B9B68012B5A
:10035C000BD1604B00221A6000F070FB05E000BF6F
:10036C0004E000BF02E000BF00E000BF5A4B1B6876
:10037C00163B032B00F29C8001A252F823F000BF25
:10038C009D0300087D040008FD0300083D040008DF
:10039C0001220421494801F00CFD0022102147489C
:1003AC0001F007FD01220821444801F002FD444BF5
:1003BC001A68434B5968424B9B680B449A420AD0CB
:1003CC00404B4FF4FA721A603E4BC8229A603D4B78
:1003DC004FF496725A60414B01221A603E4B182220
:1003EC001A60384B5B680121184601F0D3F87AE0AB
:1003FC0001220421314801F0DCFC002210212F489D
:10040C0001F0D7FC012208212C4801F0D2FC334B1F
:10041C0001221A602E4B5B68012B4BD12E4B1922FB
:10042C001A60284B9B680121184601F0B3F841E093
:10043C0001220421214801F0BCFC012210211F489B
:10044C0001F0B7FC002208211C4801F0B2FC234B40
:10045C0002221A601E4B5B68012B41D11E4B1722E6
:10046C001A60184B1B680121184601F093F837E00D
:10047C0000220421114801F09CFC012210210F489C
:10048C0001F097FC012208210C4801F092FC134B5F
:10049C0000221A600E4B5B68012B23D1094B5B6861
:1004AC000121184601F076F80B4B18221A6019E05E
:1004BC0000BF18E000BF16E07800002000080140E3
:1004CC00180000200000002088000020940000206C
:1004DC00B40000208C0000207C000020980000203C
:1004EC0000BF00E000BF00BF80BD00BF80B582B080
:1004FC0000AF78607B68092B00F2808101A252F872
:10050C0023F000BF3905000881050008C905000863
:10051C001106000859060008A1060008E9060008A3
:10052C003107000879070008C107000800220121E3
:10053C00B54801F03EFC00220221B34801F039FC21
:10054C0000220421B04801F034FC00220821AE48FE
:10055C0001F02FFC00221021AB4801F02AFC0022F4
:10056C002021A94801F025FC01224021A64801F0D8
:10057C0020FC44E101220121A34801F01AFC0022D5
:10058C000221A14801F015FC002204219E4801F033
:10059C0010FC012208219C4801F00BFC01221021C7
:1005AC00994801F006FC01222021974801F001FC3A
:1005BC0001224021944801F0FCFB20E100220121A2
:1005CC00914801F0F6FB002202218F4801F0F1FB6B
:1005DC00012204218C4801F0ECFB002208218A48FE
:1005EC0001F0E7FB00221021874801F0E2FB012219
:1005FC002021854801F0DDFB00224021824801F0DA
:10060C00D8FBFCE0002201217F4801F0D2FB002244
:10061C0002217D4801F0CDFB002204217A4801F033
:10062C00C8FB00220821784801F0C3FB01221021ED
:10063C00754801F0BEFB01222021734801F0B9FB83
:10064C0000224021704801F0B4FBD8E001220121C6
:10065C006D4801F0AEFB002202216B4801F0A9FBB2
:10066C0000220421684801F0A4FB012208216648FD
:10067C0001F09FFB01221021634801F09AFB00223C
:10068C002021614801F095FB002240215E4801F0D9
:10069C0090FBB4E0002201215B4801F08AFB0122AF
:1006AC000221594801F085FB00220421564801F033
:1006BC0080FB00220821544801F07BFB0122102111
:1006CC00514801F076FB002220214F4801F071FBCC
:1006DC00002240214C4801F06CFB90E000220121EB
:1006EC00494801F066FB01220221474801F061FBF9
:1006FC0000220421444801F05CFB002208214248FE
:10070C0001F057FB002210213F4801F052FB002260
:10071C0020213D4801F04DFB002240213A4801F0D8
:10072C0048FB6CE000220121374801F042FB00221B
:10073C000221354801F03DFB00220421324801F032
:10074C0038FB01220821304801F033FB0122102133
:10075C002D4801F02EFB012220212B4801F029FB12
:10076C0001224021284801F024FB48E0002201210D
:10077C00254801F01EFB00220221234801F019FB41
:10078C0000220421204801F014FB002208211E48FD
:10079C0001F00FFB002210211B4801F00AFB002284
:1007AC002021194801F005FB00224021164801F0D8
:1007BC0000FB24E000220121134801F0FAFA002288
:1007CC000221114801F0F5FA002204210E4801F033
:1007DC00F0FA002208210C4801F0EBFA012210215A
:1007EC00094801F0E6FA00222021074801F0E1FA5D
:1007FC0000224021044801F0DCFA00E000BF00BFF9
:10080C000837BD4680BD00BF000C014080B500AF6D
:10081C0001224FF480710B4801F0CBFA01224FF406
:10082C000071084801F0C5FA01224FF480610548B7
:10083C0001F0BFFA01224FF40061024801F0B9FA4D
:10084C0000BF80BD0008014080B582B000AF786069
:10085C007B68032B2ED801A252F823F079080008EC
:10086C008B0800089D080008AF080008FFF7CEFFB2
:10087C0000224FF48071114801F09BFA1AE0FFF747
:10088C00C5FF00224FF400710C4801F092FA11E000
:10089C00FFF7BCFF00224FF48061084801F089FA91
:1008AC0008E0FFF7B3FF00224FF40061034801F0AA
:1008BC0080FA00BF00BF0837BD4680BD000801406C
:1008CC0080B500AF5A4B1B68212B00F2A58001A20A
:1008DC0052F823F085090008A9090008D30900087B
:1008EC00FB090008250A0008250A0008250A00084B
:1008FC00250A0008250A0008250A0008250A000810
:10090C00250A0008250A0008250A0008250A0008FF
:10091C00250A0008250A0008250A0008250A0008EF
:10092C00250A0008250A0008250A0008250A0008DF
:10093C00250A0008250A0008250A0008250A0008CF
:10094C00250A0008250A0008250A0008250A0008BF
:10095C00250A0008250A0008690900080020FFF78D
:10096C0073FF0020FFF7C2FD0321322000F012FEBE
:10097C002F4B01221A6058E00020FFF765FF002082
:10098C00FFF7B4FD2B4BDB68012B47D1284B012221
:10099C001A600321322000F0FDFD3FE00120FFF73B
:1009AC0053FF00F0E3FB03461846FFF79FFD214B76
:1009BC00DB68012B34D11E4B02221A60032132203A
:1009CC0000F0E8FD2CE00220FFF73EFF1A4B1B68FD
:1009DC001846FFF78BFD174BDB68012B22D1144B0C
:1009EC0003221A600321322000F0D4FD1AE0032008
:1009FC00FFF72AFF00F03EFC03461846FFF776FD92
:100A0C000C4BDB68012B0FD1094B00221A60032120
:100A1C00322000F0BFFD07E000BF06E000BF04E09D
:100A2C0000BF02E000BF00E000BF00BF80BD00BF00
:100A3C0084000020B4000020A000002080B500AF8E
:100A4C00594B1B68212B00F2A38001A252F823F012
:100A5C00010B0008250B00084F0B0008730B000856
:100A6C009D0B00089D0B00089D0B00089D0B0008BA
:100A7C009D0B00089D0B00089D0B00089D0B0008AA
:100A8C009D0B00089D0B00089D0B00089D0B00089A
:100A9C009D0B00089D0B00089D0B00089D0B00088A
:100AAC009D0B00089D0B00089D0B00089D0B00087A
:100ABC009D0B00089D0B00089D0B00089D0B00086A
:100ACC009D0B00089D0B00089D0B00089D0B00085A
:100ADC009D0B0008E50A00080020FFF7B5FE00207A
:100AEC00FFF704FD02211E2000F054FD2E4B0022C6
:100AFC001A6056E00020FFF7A7FE0020FFF7F6FC77
:100B0C002A4B9B68012B45D1274B01221A600221ED
:100B1C001E2000F03FFD3DE00120FFF795FE00F0A8
:100B2C0041FB03461846FFF7E1FC204B9B68012B69
:100B3C0032D11D4B02221A6002211E2000F02AFD28
:100B4C002AE00220FFF780FE0020FFF7CFFC174BB6
:100B5C009B68012B22D1144B03221A6002211E2008
:100B6C0000F018FD1AE00320FFF76EFE00F04EFBBC
:100B7C0003461846FFF7BAFC0C4B9B68012B0FD1B0
:100B8C00094B00221A6002211E2000F003FD07E031
:100B9C0000BF06E000BF04E000BF02E000BF00E0C1
:100BAC0000BF00BF80BD00BF88000020B400002043
:100BBC0090B583B000AF0023FB7188E0FA79FB7924
:100BCC004749895C474AD154FA79FB794649895C93
:100BDC00434AD154FB79002B09D1FC794FF40051D5
:100BEC00424801F0CFF803461A463F4B1A55FB79A1
:100BFC00012B09D1FC794FF480413C4801F0C2F83B
:100C0C0003461A46384B1A55FB79022B09D1FC794D
:100C1C004FF40041354801F0B5F803461A46324B03
:100C2C001A55FB792F4AD25CFB792D49CB5C9A4241
:100C3C004AD1FB792A4AD25CFB792B49CB5C9A428C
:100C4C0042D1FB792A4AD25CFB792649CB5C9A4289
:100C5C0022D0FA79FB792349895C254AD154FB7956
:100C6C00234AD35C002B09D1FB79224A0021D154B1
:100C7C00FB79214A642122F8131025E0FB791D4AE7
:100C8C000121D154FB791D4A0021D154FB791C4A16
:100C9C00012142F8231017E0FB79154AD35C002B95
:100CAC0012D1FB79144A32F81320013A91B2124A4C
:100CBC0022F81310FB79104A32F81330002B03D1B1
:100CCC00FB790E4A0121D154FB790133FB71FB797D
:100CDC00022B7FF673AF00BF00BF0C37BD4690BD33
:100CEC00640000206800002060000020001001401B
:100CFC006C000020700000205800002074000020C0
:100D0C004C00002080B483B000AF0346FB71FB792C
:100D1C00022B01D9002312E0FB790B4AD35C002B88
:100D2C000CD1FB79094A52F82330012B06D1FB79FF
:100D3C00064A002142F82310012300E00023184644
:100D4C000C37BD4680BC7047700000204C00002062
:100D5C0080B500AFA64B1B68042B00F2E68101A204
:100D6C0052F823F0850D00089D0D0008CD0D0008EC
:100D7C00E50E0008351000089E4B21221A609E4B90
:100D8C0016221A609D4B16221A60994B01221A608A
:100D9C00FFF72AFA0020FFF7B5FF0346012B40F0BE
:100DAC00C681FFF7FDF90321322000F0F3FB944BD1
:100DBC0021221A60FFF784FD8D4B02221A60B6E1E6
:100DCC00904B02221A60904B00221A60FFF7B8F980
:100DDC008E4BDB68012B40F0AC81FFF7E1F9FFF79C
:100DEC006FFD0020FFF78EFF0346012B0DD1FFF79F
:100DFC00D7F90321322000F0CDFB814B21221A6060
:100E0C00FFF75EFD7A4B03221A600120FFF77AFF91
:100E1C000346012B3ED17A4B21221A607C4B1B6876
:100E2C0064337B4A1360774B02221A60784B1B6841
:100E3C00B3F5617F0ADC764B1B68764A82FB0312A2
:100E4C005211DB17D31A704A136021E0704B1B68E8
:100E5C00714A82FB03129211DB17D31A6F4A13608B
:100E6C006B4B19686A4B1A686B4B83FB0203981126
:100E7C00D317C31A4FF47A7000FB03F3D31ACB1AAF
:100E8C00644A82FB03125211DB17D31A5E4A1360B9
:100E9C00FFF716FD0220FFF735FF0346012B40F04C
:100EAC004881574B21221A60564B02221A60584B2C
:100EBC001B685B4A1360564B1B685A4A1360544BB1
:100ECC001B68544A82FB03125211DB17D31A4E4A89
:100EDC001360FFF7F5FC2CE14A4B03221A604A4BD6
:100EEC0002221A60FFF74CF9484BDB68012B40F0EB
:100EFC002281FFF755F9FFF7E3FC0020FFF702FF13
:100F0C000346012B0DD1FFF74BF90321322000F0E2
:100F1C0041FB3B4B21221A60FFF7D2FC344B0422DD
:100F2C001A600120FFF7EEFE0346012B3ED1344B35
:100F3C0021221A60364B9B686433354A9360314BDF
:100F4C0003221A60324B9B68B3F5617F0ADC304B8D
:100F5C009B68304A82FB03125211DB17D31A2A4AC0
:100F6C00136021E02A4B9B682B4A82FB03129211DF
:100F7C00DB17D31A294A1360254B9968244B9A68BE
:100F8C00254B83FB02039811D317C31A4FF47A70C5
:100F9C0000FB03F3D31ACB1A1E4A82FB0312521125
:100FAC00DB17D31A184A1360FFF78AFC0220FFF7ED
:100FBC00A9FE0346012B40F0BE80114B21221A6082
:100FCC00134B9B68164A9360114B9B68154A9360B0
:100FDC000C4B03221A600E4B9B680E4A82FB0312C9
:100FEC005211DB17D31A084A1360FFF769FCA2E011
:100FFC008000002088000020780000207C00002069
:10100C0084000020900000209C000020B4000020F0
:10101C00180000201F85EB51D34D6210A00000205A
:10102C00000000200C000020454B04221A60454BA8
:10103C0001221A60FFF794F8434BDB68012B7CD13B
:10104C00FFF7AEF8FFF73CFC0020FFF75BFE034612
:10105C00012B04D1FFF7A4F83C4B00221A600120AD
:10106C00FFF750FE0346012B3ED1394B21221A606B
:10107C00384B5B686433374A5360314B02221A6039
:10108C00344B5B68B3F5617F0ADC324B5B68324AE8
:10109C0082FB03125211DB17D31A2A4A136021E088
:1010AC002C4B5B682D4A82FB03129211DB17D31A6F
:1010BC002B4A1360274B5968264B5A68274B83FBE6
:1010CC0002039811D317C31A4FF47A7000FB03F381
:1010DC00D31ACB1A204A82FB03125211DB17D31AF4
:1010EC00184A1360FFF7ECFB0220FFF70BFE0346D8
:1010FC00012B22D1164B21221A60164B5B68194A20
:10110C005360144B5B68184A53600D4B04221A60F1
:10111C00104B5B68104A82FB03125211DB17D31A77
:10112C00084A1360FFF7CCFB07E000BF06E000BFE6
:10113C0004E000BF02E000BF00E000BF00BF80BDC4
:10114C00900000209C000020B400002080000020B3
:10115C0084000020180000201F85EB51D34D621035
:10116C00A0000020000000200C00002080B400AF84
:10117C000B4B1B68042B0AD0042B0ADC022B02D06D
:10118C00032B02D005E0022305E0032303E0042334
:10119C0001E000BF00231846BD4680BC704700BF6D
:1011AC009000002080B400AF154B1B68022B18D0A8
:1011BC00022B1FDC002B02D0012B09D01AE0114BA3
:1011CC001B68114A82FB03125211DB17D31A12E06F
:1011DC000C4B5B680C4A82FB03125211DB17D31ABF
:1011EC0009E0084B9B68084A82FB03125211DB177B
:1011FC00D31A00E000231846BD4680BC704700BFE0
:10120C0094000020000000201F85EB5180B400AF3B
:10121C00154B1B68022B18D0022B1FDC002B02D0A5
:10122C00012B09D01AE0114B1B68114A82FB0312E7
:10123C005211DB17D31A12E00C4B5B680C4A82FB81
:10124C0003125211DB17D31A09E0084B9B68084AAA
:10125C0082FB03125211DB17D31A00E0002318464D
:10126C00BD4680BC704700BF980000200C000020D9
:10127C001F85EB5180B400AF154B1B68022B18D0A7
:10128C00022B1FDC002B02D0012B09D01AE0114BD2
:10129C001B68114A82FB03125211DB17D31A12E09E
:1012AC000C4B5B680C4A82FB03125211DB17D31AEE
:1012BC0009E0084B9B68084A82FB03125211DB17AA
:1012CC00D31A00E000231846BD4680BC704700BF0F
:1012DC009C000020180000201F85EB5180B500AF4A
:1012EC0000F066FA00F058F800F0DEF80122202138
:1012FC00234800F05EFD01220421214800F059FD35
:10130C00012240211E4800F054FD012208211C48F6
:10131C0000F04FFD01228021194800F04AFD012206
:10132C001021174800F045FD01224FF4807114483C
:10133C0000F03FFD01224FF40071114800F039FD1F
:10134C0001224FF480610E4800F033FD01224FF46E
:10135C0000610B4800F02DFD00F05AF8094801F02F
:10136C0079F9094B16221A60084B16221A60084BA1
:10137C0000221A60074B21221A60FFF7E9FCFCE7F8
:10138C0000080140C4000020780000207C000020F0
:10139C00800000208800002080B590B000AF07F1DD
:1013AC00180328220021184601F00CFD3B1D0022D9
:1013BC001A605A609A60DA601A610223BB610123D9
:1013CC00BB621023FB6200237B6307F118031846F2
:1013DC0000F008FD0346002B01D000F0D5F80F23D8
:1013EC007B600023BB600023FB6000233B61002378
:1013FC007B613B1D0021184600F074FF0346002B57
:10140C0001D000F0C1F800BF4037BD4680BD0000E0
:10141C0080B586B000AF07F1080300221A605A604D
:10142C009A60DA603B4600221A605A601D4B4FF0FE
:10143C0080421A601B4B41F63F725A60194B0022D6
:10144C009A60184B0922DA60164B00221A61154B70
:10145C0000229A61134801F0ADF80346002B01D02D
:10146C0000F092F84FF48053BB6007F10803194663
:10147C000C4801F043FA0346002B01D000F084F82D
:10148C0000233B6000237B603B461946054801F076
:10149C000BFC0346002B01D000F076F800BF183788
:1014AC00BD4680BDC400002080B588B000AF07F1F8
:1014BC00100300221A605A609A60DA602E4B9B6906
:1014CC002D4A43F0100393612B4B9B6903F01003DF
:1014DC00FB60FB68284B9B69274A43F0040393612C
:1014EC00254B9B6903F00403BB60BB68224B9B69D3
:1014FC00214A43F0080393611F4B9B6903F00803D7
:10150C007B607B68002240F6FC711C4800F051FCAB
:10151C0000227F211A4800F04CFC4FF460433B61E1
:10152C0000237B610123BB6107F1100319461548A9
:10153C0000F0AEFA40F6FC733B6101237B610023A3
:10154C00BB610223FB6107F1100319460B4800F045
:10155C009FFA7F233B6101237B610023BB61022344
:10156C00FB6107F110031946054800F091FA00BF22
:10157C002037BD4680BD00BF00100240000801406E
:10158C00000C01400010014080B400AF72B600BFE7
:10159C00FEE7000080B483B000AF78603960074983
:1015AC003B687A6841F82320054A3B68002142F8E1
:1015BC00231000BF0C37BD4680BC7047A400002030
:1015CC00B400002080B483B000AF00237B601CE02B
:1015DC00124A7B6852F82330002B13DD0F4A7B68CC
:1015EC0052F823305A1E0D497B6841F823200B4AD0
:1015FC007B6852F82330002B04DC094A7B680121FC
:10160C0042F823107B6801337B607B68032BDFDDA2
:10161C0000BF00BF0C37BD4680BC7047A400002043
:10162C00B400002080B485B000AF154B9B69144A00
:10163C0043F001039361124B9B6903F00103BB6000
:10164C00BB680F4BDB690E4A43F08053D3610C4BE4
:10165C00DB6903F080537B607B680A4B5B68FB6043
:10166C00FB6823F0E063FB60FB6843F08063FB6086
:10167C00044AFB68536000BF1437BD4680BC7047FA
:10168C00001002400000014080B584B000AF7860CB
:10169C007B681B68B3F1804F13D10C4BDB690B4A91
:1016AC0043F00103D361094BDB6903F00103FB60D9
:1016BC00FB68002200211C2000F0B3F91C2000F074
:1016CC00CCF900BF1037BD4680BD00BF00100240F2
:1016DC0080B400AFFEE780B400AFFEE780B400AF8B
:1016EC00FEE780B400AFFEE780B400AFFEE780B445
:1016FC0000AF00BFBD4680BC704780B400AF00BFD8
:10170C00BD4680BC704780B400AF00BFBD4680BCF6
:10171C00704780B500AF00F091F800BF80BD0000AD
:10172C0080B500AF024800F0E1FF00BF80BD00BFF4
:10173C00C400002080B400AF00BFBD4680BC704721
:10174C0080B582B000AF78607B681B68B3F1804FC6
:10175C0003D1FFF72DFAFFF735FF00BF0837BD4661
:10176C0080BD00000C480D490D4A002302E0D458FE
:10177C00C4500433C4188C42F9D30A4A0A4C0023CF
:10178C0001E013600432A242FBD3FFF7D3FF01F058
:10179C00F5FAFFF7A3FD7047000000203000002091
:1017AC00202E00083000002010010020FEE7000071
:1017BC0080B500AF084B1B68074A43F01003136059
:1017CC00032000F023F90F2000F008F8FFF72AFFA0
:1017DC000023184680BD00BF0020024080B582B0B7
:1017EC0000AF7860124B1A68124B1B7819464FF4F5
:1017FC007A73B3FBF1F3B2FBF3F3184600F03BF949
:10180C000346002B01D001230EE07B680F2B0AD876
:10181C00002279684FF0FF3000F003F9064A7B682C
:10182C001360002300E0012318460837BD4680BD35
:10183C00240000202C0000202800002080B400AFE1
:10184C00054B1B781A46054B1B681344034A13605F
:10185C0000BFBD4680BC70472C0000200C0100204E
:10186C0080B400AF024B1B681846BD4680BC704765
:10187C000C01002080B485B000AF78607B6803F069
:10188C000703FB600C4BDB68BB60BA684FF6FF03C9
:10189C001340BB60FB681A02BB68134343F0BF6381
:1018AC0043F40033BB60044ABB68D36000BF1437F9
:1018BC00BD4680BC704700BF00ED00E080B400AFB7
:1018CC00044BDB681B0A03F007031846BD4680BCBB
:1018DC00704700BF00ED00E080B483B000AF03465A
:1018EC00FB7197F90730002B0BDBFB7903F01F0220
:1018FC00064997F907305B09012000FA02F241F81A
:10190C00232000BF0C37BD4680BC704700E100E0CF
:10191C0080B483B000AF03463960FB7197F9073090
:10192C00002B0ADB3B68DAB20C4997F9073012013D
:10193C00D2B20B4483F800230AE03B68DAB20849C0
:10194C00FB7903F00F03043B1201D2B20B441A765D
:10195C0000BF0C37BD4680BC704700BF00E100E003
:10196C0000ED00E080B489B000AFF860B9607A6037
:10197C00FB6803F00703FB61FB69C3F10703042B4E
:10198C0028BF0423BB61FB690433062B02D9FB6916
:10199C00033B00E000237B614FF0FF32BB6902FA8E
:1019AC0003F3DA43BB681A407B699A404FF0FF316E
:1019BC007B6901FA03F3D9437B680B401343184648
:1019CC002437BD4680BC704780B582B000AF7860CC
:1019DC007B68013BB3F1807F01D301230FE00A4AFE
:1019EC007B68013B53600F214FF0FF30FFF790FFF6
:1019FC00054B00229A60044B07221A6000231846FC
:101A0C000837BD4680BD00BF10E000E080B582B055
:101A1C0000AF78607868FFF72DFF00BF0837BD4630
:101A2C0080BD80B586B000AF0346B9607A60FB73A9
:101A3C0000237B61FFF742FF78617A68B9687869A7
:101A4C00FFF790FF024697F90F3011461846FFF743
:101A5C005FFF00BF1837BD4680BD80B582B000AFB8
:101A6C000346FB7197F907301846FFF735FF00BFA7
:101A7C000837BD4680BD80B582B000AF786078680D
:101A8C00FFF7A2FF034618460837BD4680BD00008D
:101A9C0080B48BB000AF7860396000237B62002388
:101AAC003B6248E101227B6A02FA03F3FB613B686B
:101ABC001B68FA691340BB61BA69FB699A4240F032
:101ACC0037813B685B68A34A93425ED0A14A93423C
:101ADC0075D8A14A934258D09F4A93426FD89F4AD7
:101AEC00934252D09D4A934269D89D4A93424CD01E
:101AFC009B4A934263D89B4A934246D0994A93425D
:101B0C005DD8122B2AD8122B59D801A252F823F0E7
:101B1C00971B0008711B0008831B0008C51B0008DD
:101B2C00CB1B0008CB1B0008CB1B0008CB1B0008F1
:101B3C00CB1B0008CB1B0008CB1B0008CB1B0008E1
:101B4C00CB1B0008CB1B0008CB1B0008CB1B0008D1
:101B5C00CB1B0008791B00088D1B0008824A93429E
:101B6C0013D02CE03B68DB683B6229E03B68DB6808
:101B7C0004333B6224E03B68DB6808333B621FE0C4
:101B8C003B68DB680C333B621AE03B689B68002BBC
:101B9C0002D104233B6213E03B689B68012B05D107
:101BAC0008233B627B68FA691A6109E008233B62EF
:101BBC007B68FA695A6103E000233B6200E000BFD6
:101BCC00BB69FF2B01D87B6801E07B6804337B6128
:101BDC00BB69FF2B02D87B6A9B0002E07B6A083B47
:101BEC009B003B617B691A680F213B6901FA03F387
:101BFC00DB431A40396A3B6901FA03F31A437B69E8
:101C0C001A603B685B6803F08053002B00F09080F7
:101C1C00564B9B69554A43F001039361534B9B69A7
:101C2C0003F00103BB60BB68514A7B6A9B0802331B
:101C3C0052F82330FB607B6A03F003039B000F22F6
:101C4C0002FA03F3DB43FA681340FB607B68494AF2
:101C5C0093420DD07B68484A934207D07B68474A31
:101C6C00934201D1022304E0032302E0012300E0AC
:101C7C0000237A6A02F0030292009340FA6813433D
:101C8C00FB603B497B6A9B080233FA6841F82320CE
:101C9C003B685B6803F48033002B06D0384B1A6822
:101CAC003749BB6913430B6006E0354B1A68BB69B7
:101CBC00DB43334913400B603B685B6803F4003330
:101CCC00002B06D02E4B5A682D49BB6913434B6031
:101CDC0006E02B4B5A68BB69DB43294913404B6028
:101CEC003B685B6803F48013002B06D0244B9A6886
:101CFC002349BB6913438B6006E0214B9A68BB698F
:101D0C00DB431F4913408B603B685B6803F4001393
:101D1C00002B06D01A4BDA681949BB691343CB6008
:101D2C0006E0174BDA68BB69DB4315491340CB60FF
:101D3C007B6A01337B623B681A687B6A22FA03F385
:101D4C00002B7FF4AFAE00BF00BF2C37BD4680BC6C
:101D5C00704700BF0000321000003110000022104C
:101D6C0000002110000012100000111000100240A1
:101D7C000000014000080140000C0140001001402F
:101D8C000004014080B485B000AF78600B467B80C6
:101D9C007B689A687B881340002B02D00123FB736D
:101DAC0001E00023FB73FB7B18461437BD4680BC57
:101DBC00704780B483B000AF78600B467B801346CD
:101DCC007B707B78002B03D07A887B681A6103E0E8
:101DDC007B881A047B681A6100BF0C37BD4680BC37
:101DEC007047000080B586B000AF78607B68002B30
:101DFC0001D101236CE27B681B6803F00103002B0B
:101E0C0000F08780924B5B6803F00C03042B0CD022
:101E1C008F4B5B6803F00C03082B12D18C4B5B6867
:101E2C0003F48033B3F5803F0BD1894B1B6803F46B
:101E3C000033002B6CD07B685B68002B68D10123CE
:101E4C0046E27B685B68B3F5803F06D1804B1B682C
:101E5C007F4A43F4803313602EE07B685B68002B71
:101E6C000CD17B4B1B687A4A23F480331360784B7C
:101E7C001B68774A23F4802313601DE07B685B6842
:101E8C00B3F5A02F0CD1724B1B68714A43F480231D
:101E9C0013606F4B1B686E4A43F4803313600BE086
:101EAC006B4B1B686A4A23F480331360684B1B68C6
:101EBC00674A23F4802313607B685B68002B13D084
:101ECC00FFF7CEFC386108E0FFF7CAFC02463B691D
:101EDC00D31A642B01D90323FAE15D4B1B6803F47D
:101EEC000033002BF0D014E0FFF7BAFC386108E0A7
:101EFC00FFF7B6FC02463B69D31A642B01D90323C6
:101F0C00E6E1534B1B6803F40033002BF0D100E0E7
:101F1C0000BF7B681B6803F00203002B63D04C4BA3
:101F2C005B6803F00C03002B0BD0494B5B6803F090
:101F3C000C03082B1CD1464B5B6803F48033002B3D
:101F4C0016D1434B1B6803F00203002B05D07B68B2
:101F5C001B69012B01D00123BAE13D4B1B6823F017
:101F6C00F8027B685B69DB00394913430B603AE08C
:101F7C007B681B69002B20D0364B01221A60FFF7BF
:101F8C006FFC386108E0FFF76BFC02463B69D31A23
:101F9C00022B01D903239BE12D4B1B6803F0020399
:101FAC00002BF0D02A4B1B6823F0F8027B685B698E
:101FBC00DB00274913430B6015E0264B00221A6007
:101FCC00FFF74EFC386108E0FFF74AFC02463B691C
:101FDC00D31A022B01D903237AE11D4B1B6803F0A2
:101FEC000203002BF0D17B681B6803F00803002B65
:101FFC003AD07B689B69002B19D0174B01221A60D1
:10200C00FFF72EFC386108E0FFF72AFC02463B691B
:10201C00D31A022B01D903235AE10D4B5B6A03F04F
:10202C000203002BF0D0012000F0A6FA1CE00A4BB2
:10203C0000221A60FFF714FC38610FE0FFF710FC68
:10204C0002463B69D31A022B08D9032340E100BF97
:10205C000010024000004242800442429E4B5B6AE8
:10206C0003F00203002BE9D17B681B6803F0040327
:10207C00002B00F0A6800023FB75974BDB6903F067
:10208C008053002B0DD1944BDB69934A43F0805362
:10209C00D361914BDB6903F08053BB60BB680123B8
:1020AC00FB758E4B1B6803F48073002B18D18B4B84
:1020BC001B688A4A43F480731360FFF7D1FB3861C5
:1020CC0008E0FFF7CDFB02463B69D31A642B01D91C
:1020DC000323FDE0814B1B6803F48073002BF0D0CD
:1020EC007B68DB68012B06D17B4B1B6A7A4A43F079
:1020FC00010313622DE07B68DB68002B0CD1764B5F
:10210C001B6A754A23F001031362734B1B6A724AF4
:10211C0023F0040313621CE07B68DB68052B0CD1F5
:10212C006D4B1B6A6C4A43F0040313626A4B1B6AC7
:10213C00694A43F0010313620BE0674B1B6A664A62
:10214C0023F001031362644B1B6A634A23F00403FC
:10215C0013627B68DB68002B15D0FFF781FB3861BD
:10216C000AE0FFF77DFB02463B69D31A41F2883245
:10217C00934201D90323ABE0574B1B6A03F00203D4
:10218C00002BEED014E0FFF76BFB38610AE0FFF791
:10219C0067FB02463B69D31A41F28832934201D95C
:1021AC00032395E04C4B1B6A03F00203002BEED18A
:1021BC00FB7D012B05D1484BDB69474A23F080534B
:1021CC00D3617B68DB69002B00F08180424B5B683C
:1021DC0003F00C03082B61D07B68DB69022B46D122
:1021EC003F4B00221A60FFF73BFB386108E0FFF71A
:1021FC0037FB02463B69D31A022B01D9032367E054
:10220C00354B1B6803F00073002BF0D17B681B6A05
:10221C00B3F5803F08D1304B5B6823F400327B6808
:10222C009B682D4913434B602B4B5B6823F4741252
:10223C007B68196A7B685B6A0B43274913434B60C5
:10224C00274B01221A60FFF70BFB386108E0FFF700
:10225C0007FB02463B69D31A022B01D9032337E053
:10226C001D4B1B6803F00073002BF0D02FE01C4BB0
:10227C0000221A60FFF7F4FA386108E0FFF7F0FA71
:10228C0002463B69D31A022B01D9032320E0124BDF
:10229C001B6803F00073002BF0D118E07B68DB693E
:1022AC00012B01D1012313E00B4B5B68FB60FB6836
:1022BC0003F480327B681B6A9A4206D1FB6803F4F4
:1022CC0070127B685B6A9A4201D0012300E0002304
:1022DC0018461837BD4680BD001002400070004003
:1022EC006000424280B584B000AF786039607B6892
:1022FC00002B01D10123D0E06A4B1B6803F00703CC
:10230C003A689A4210D9674B1B6823F0070265495B
:10231C003B6813430B60634B1B6803F007033A687D
:10232C009A4201D00123B8E07B681B6803F00203DA
:10233C00002B20D07B681B6803F00403002B05D016
:10234C00594B5B68584A43F4E06353607B681B68E5
:10235C0003F00803002B05D0534B5B68524A43F43F
:10236C0060535360504B5B6823F0F0027B689B68B2
:10237C004D4913434B607B681B6803F00103002B32
:10238C0040D07B685B68012B07D1474B1B6803F47B
:10239C000033002B15D101237FE07B685B68022B97
:1023AC0007D1414B1B6803F00073002B09D10123AB
:1023BC0073E03D4B1B6803F00203002B01D101239A
:1023CC006BE0394B5B6823F003027B685B68364932
:1023DC0013434B60FFF744FAF8600AE0FFF740FA4A
:1023EC000246FB68D31A41F28832934201D9032387
:1023FC0053E02D4B5B6803F00C027B685B689B0021
:10240C009A42EBD1274B1B6803F007033A689A42B8
:10241C0010D2244B1B6823F0070222493B6813435C
:10242C000B60204B1B6803F007033A689A4201D0FB
:10243C00012332E07B681B6803F00403002B08D0F7
:10244C00194B5B6823F4E0627B68DB681649134325
:10245C004B607B681B6803F00803002B09D0124B00
:10246C005B6823F460527B681B69DB000E491343E5
:10247C004B6000F021F802460B4B5B681B0903F024
:10248C000F030A49CB5C22FA03F3094A1360094B88
:10249C001B681846FFF7A2F9002318461037BD46F3
:1024AC0080BD00BF0020024000100240082E000832
:1024BC00240000202800002090B48AB000AF2A4BE2
:1024CC003C1D0FCB84E80F0040F201233B8000231E
:1024DC00FB610023BB6100237B6200237B61002333
:1024EC003B62224B5B68FB61FB6903F00C03042B22
:1024FC0002D0082B03D02DE01D4B3B622DE0FB6975
:10250C009B0C03F00F0307F12802134413F8243C2F
:10251C007B61FB6903F48033002B13D0134B5B6896
:10252C005B0C03F0010307F12802134413F8283C59
:10253C00BB617B690E4A02FB03F2BB69B2FBF3F38E
:10254C007B6204E07B690B4A02FB03F37B627B6AD0
:10255C003B6202E0064B3B6200BF3B6A18462837E1
:10256C00BD4690BC704700BFF82D0008001002401B
:10257C0000127A0000093D0080B485B000AF78608D
:10258C000A4B1B680A4AA2FB03235B0A7A6802FB0C
:10259C0003F3FB6000BFFB685A1EFA60002BF9D1F5
:1025AC0000BF00BF1437BD4680BC7047240000201C
:1025BC00D34D621080B582B000AF78607B68002B81
:1025CC0001D1012341E07B6893F83D30DBB2002B55
:1025DC0006D17B68002283F83C207868FFF754F81A
:1025EC007B68022283F83D207B681A687B68043381
:1025FC001946104600F06AFA7B68012283F84620DF
:10260C007B68012283F83E207B68012283F83F20FF
:10261C007B68012283F840207B68012283F84120EB
:10262C007B68012283F842207B68012283F84320D7
:10263C007B68012283F844207B68012283F84520C3
:10264C007B68012283F83D20002318460837BD46DD
:10265C0080BD000080B485B000AF78607B6893F8D3
:10266C003D30DBB2012B01D0012335E07B68022227
:10267C0083F83D207B681B68DA687B681B6842F036
:10268C000102DA607B681B68164A934209D07B68AA
:10269C001B68B3F1804F04D07B681B68124A9342CD
:1026AC0011D17B681B689B6803F00703FB60FB6818
:1026BC00062B10D07B681B681A687B681B6842F07D
:1026CC0001021A6007E07B681B681A687B681B684C
:1026DC0042F001021A60002318461437BD4680BC34
:1026EC00704700BF002C01400004004080B582B050
:1026FC0000AF78607B681B681B6903F00203022B38
:10270C0022D17B681B68DB6803F00203022B1BD110
:10271C007B681B686FF002021A617B6801221A77D2
:10272C007B681B689B6903F00303002B03D078685C
:10273C0000F0B1F905E0786800F0A4F9786800F0D1
:10274C00B3F97B6800221A777B681B681B6903F05E
:10275C000403042B22D17B681B68DB6803F00403A1
:10276C00042B1BD17B681B686FF004021A617B6819
:10277C0002221A777B681B689B6903F44073002B59
:10278C0003D0786800F087F905E0786800F07AF9F2
:10279C00786800F089F97B6800221A777B681B68DF
:1027AC001B6903F00803082B22D17B681B68DB68CC
:1027BC0003F00803082B1BD17B681B686FF0080221
:1027CC001A617B6804221A777B681B68DB6903F04B
:1027DC000303002B03D0786800F05DF905E07868FE
:1027EC0000F050F9786800F05FF97B6800221A77E6
:1027FC007B681B681B6903F01003102B22D17B68CC
:10280C001B68DB6803F01003102B1BD17B681B6863
:10281C006FF010021A617B6808221A777B681B68BC
:10282C00DB6903F44073002B03D0786800F033F9B4
:10283C0005E0786800F026F9786800F035F97B68D7
:10284C0000221A777B681B681B6903F00103012BBC
:10285C000ED17B681B68DB6803F00103012B07D1E9
:10286C007B681B686FF001021A617868FEF768FFDD
:10287C007B681B681B6903F08003802B0ED17B687F
:10288C001B68DB6803F08003802B07D17B681B6817
:10289C006FF080021A61786800F067FA7B681B6839
:1028AC001B6903F04003402B0ED17B681B68DB686F
:1028BC0003F04003402B07D17B681B686FF040028C
:1028CC001A61786800F0F9F87B681B681B6903F0E3
:1028DC002003202B0ED17B681B68DB6803F02003E0
:1028EC00202B07D17B681B686FF020021A61786877
:1028FC0000F032FA00BF0837BD4680BD80B584B009
:10290C0000AF786039607B6893F83C30012B01D1C3
:10291C000223B3E07B68012283F83C207B6802220F
:10292C0083F83D207B681B689B68FB60FB6823F089
:10293C007703FB60FB6823F47F43FB607B681B68B9
:10294C00FA689A603B681B68B3F5005F3ED0B3F53C
:10295C00005F00F28780B3F5805F00F08580B3F5EF
:10296C00805F7FD8702B1AD0702B7BD8602B50D007
:10297C00602B77D8502B3CD0502B73D8402B58D091
:10298C00402B6FD8302B64D0302B6BD8202B60D0E1
:10299C00202B67D8002B5CD0102B5AD062E07B68C0
:1029AC0018683B6899683B685A683B68DB6800F0BC
:1029BC005CF97B681B689B68FB60FB6843F07703E2
:1029CC00FB607B681B68FA689A604EE07B6818684D
:1029DC003B6899683B685A683B68DB6800F045F9CE
:1029EC007B681B689A687B681B6842F480429A601B
:1029FC003BE07B6818683B6859683B68DB681A46A3
:102A0C0000F0BCF87B681B685021184600F013F9E5
:102A1C002BE07B6818683B6859683B68DB681A4692
:102A2C0000F0DAF87B681B686021184600F003F9A7
:102A3C001BE07B6818683B6859683B68DB681A4682
:102A4C0000F09CF87B681B684021184600F0F3F8F6
:102A5C000BE07B681A683B681B681946104600F04F
:102A6C00EAF802E000BF00E000BF7B68012283F8B7
:102A7C003D207B68002283F83C2000231846103749
:102A8C00BD4680BD80B483B000AF786000BF0C370A
:102A9C00BD4680BC704780B483B000AF786000BF87
:102AAC000C37BD4680BC704780B483B000AF7860F3
:102ABC0000BF0C37BD4680BC704780B483B000AFFC
:102ACC00786000BF0C37BD4680BC704780B485B0C1
:102ADC0000AF786039607B681B68FB607B68254AB7
:102AEC00934207D07B68B3F1804F03D07B68224AB6
:102AFC00934208D1FB6823F07003FB603B685B6872
:102B0C00FA681343FB607B681A4A934207D07B68D0
:102B1C00B3F1804F03D07B68174A934208D1FB680E
:102B2C0023F44073FB603B68DB68FA681343FB607B
:102B3C00FB6823F080023B685B691343FB607B6896
:102B4C00FA681A603B689A687B68DA623B681A68B4
:102B5C007B689A627B68074A934203D13B681A6987
:102B6C007B681A637B6801225A6100BF1437BD462B
:102B7C0080BC7047002C01400004004080B487B03A
:102B8C0000AFF860B9607A60FB681B6A7B61FB6818
:102B9C001B6A23F00102FB681A62FB689B693B61AC
:102BAC003B6923F0F0033B617B681B013A691343DB
:102BBC003B617B6923F00A037B617A69BB68134331
:102BCC007B61FB683A699A61FB687A691A6200BF9B
:102BDC001C37BD4680BC704780B487B000AFF8602E
:102BEC00B9607A60FB681B6A23F01002FB681A62FA
:102BFC00FB689B697B61FB681B6A3B617B6923F407
:102C0C0070437B617B681B037A6913437B613B696F
:102C1C0023F0A0033B61BB681B013A6913433B6182
:102C2C00FB687A699A61FB683A691A6200BF1C37C3
:102C3C00BD4680BC704780B485B000AF7860396009
:102C4C007B689B68FB60FB6823F07003FB603A6851
:102C5C00FB68134343F00703FB607B68FA689A60D8
:102C6C0000BF1437BD4680BC704780B487B000AF3E
:102C7C00F860B9607A603B60FB689B687B617B693C
:102C8C0023F47F437B613B681A027B681A43BB6861
:102C9C0013437A6913437B61FB687A699A6000BFBE
:102CAC001C37BD4680BC704780B485B000AF7860DF
:102CBC0039607B6893F83C30012B01D1022341E051
:102CCC007B68012283F83C207B68022283F83D203C
:102CDC007B681B685B68FB607B681B689B68BB60E0
:102CEC00FB6823F07003FB603B681B68FA681343B6
:102CFC00FB607B681B68FA685A607B681B68144A27
:102D0C00934209D07B681B68B3F1804F04D07B6879
:102D1C001B68104A93420CD1BB6823F08003BB6044
:102D2C003B685B68BA681343BB607B681B68BA6816
:102D3C009A607B68012283F83D207B68002283F82F
:102D4C003C20002318461437BD4680BC704700BF9A
:102D5C00002C01400004004080B483B000AF7860C8
:102D6C0000BF0C37BD4680BC704780B483B000AF49
:102D7C00786000BF0C37BD4680BC704770B500262C
:102D8C000C4D0D4C641BA410A64209D100F022F886
:102D9C0000260A4D0A4C641BA410A64205D170BD36
:102DAC0055F8043B98470136EEE755F8043B984735
:102DBC000136F2E7182E0008182E0008182E00080D
:102DCC001C2E000803460244934200D1704703F8BE
:102DDC00011BF9E7F8B500BFF8BC08BC9E4670476C
:0C2DEC00F8B500BFF8BC08BC9E4670475C
:102DF80002030405060708090A0B0C0D0E0F101034
:102E08000000000000000000010203040607080992
:042E1800310100087C
:042E1C000D0100089C
:102E2000F40100002C010000C8000000F4010000C3
:102E30002C010000C8000000F40100002C0100007B
:102E4000C80000000024F400100000000100000091
:040000050800177167
:00000001FF
