:020000040800F2
:1000000000280020B513000821130008271300085A
:100010002D130008331300083913000800000000F6
:100020000000000000000000000000003F13000876
:100030004B1300080000000057130008631300086A
:10004000FD130008FD130008FD130008FD13000850
:10005000FD130008FD130008FD130008FD13000840
:10006000FD130008FD130008FD130008FD13000830
:10007000FD130008FD130008FD130008FD13000820
:10008000FD130008FD130008FD130008FD13000810
:10009000FD130008FD130008FD130008FD13000800
:1000A000FD130008FD130008FD130008FD130008F0
:1000B00071130008FD13000800000000FD13000884
:1000C000FD1300080000000000000000FD13000800
:1000D00000000000FD130008FD13000800000000F0
:1000E000FD130008FD130008FD13000800000000C8
:1000F0000000000000000000000000000000000000
:0C01000000000000000000005FF808F1A3
:10010C0010B5054C237833B9044B13B10448AFF345
:10011C0000800123237010BD34000020000000007B
:10012C00542A000808B5034B1BB103490348AFF32D
:10013C00008008BD0000000038000020542A000890
:10014C0080B500AF084B5B68012B0BD12021074811
:10015C0001F069FC0421054801F065FC0121322005
:10016C0001F03AF800BF80BDA40000200008014057
:10017C0080B500AF084B5B68012B0BD18021074881
:10018C0001F051FC1021054801F04DFC01213220F9
:10019C0001F022F800BF80BDA4000020000801403F
:1001AC0080B500AF084B5B68012B0BD14021074891
:1001BC0001F039FC0821054801F035FC0121322001
:1001CC0001F00AF800BF80BDA40000200008014027
:1001DC0080B500AF012220210E4801F00CFC012259
:1001EC0004210C4801F007FC01228021094801F090
:1001FC0002FC01221021074801F0FDFB01224021E5
:10020C00044801F0F8FB01220821024801F0F3FB3D
:10021C0000BF80BD0008014080B500AFA54B1B6836
:10022C00A54A82FB03129210DB17D31AA34A136060
:10023C00A04B1968A04B83FB01239A10CB17D21A41
:10024C0013469B0013445B00CA1A9C4B5A609C4B90
:10025C001B68994A82FB03129210DB17D31A974A38
:10026C009360974B1968944B83FB01239A10CB171F
:10027C00D21A13469B0013445B00CA1A8F4BDA60E8
:10028C00904B9B68012B0DD10221642000F0A4FF40
:10029C00884B1B68013B874A1360894B1B68013BE9
:1002AC00874A1360884B1B68163B032B00F2AD800A
:1002BC0001A252F823F000BFD50200083F0300084A
:1002CC0087030008CF030008002220217F4801F09B
:1002DC0092FB012280217D4801F08DFB01224021FF
:1002EC007A4801F088FB7A4B1A68794B5968784B3D
:1002FC009B680B449A420AD0764B4FF4FA721A6000
:10030C00744BC8229A60734B4FF496725A60694BC7
:10031C001B68002B7BDC6C4B17221A606D4B1B6827
:10032C006D4A82FB03125211DB17D31A614A136018
:10033C006DE000222021654801F05DFB0122802147
:10034C00624801F058FB01224021604801F053FB48
:10035C005A4800F027FB574B1B68002B59DC5A4BB3
:10036C0018221A605B4B5B685B4A82FB03125211CA
:10037C00DB17D31A4F4A13604BE00122202153485C
:10038C0001F039FB00228021504801F034FB01229E
:10039C0040214E4801F02FFB484800F003FB454B31
:1003AC001B68002B37DC484B19221A60494B9B68A1
:1003BC00494A82FB03125211DB17D31A3D4A1360D0
:1003CC0029E001222021414801F015FB0122802166
:1003DC003E4801F010FB002240213C4801F00BFB91
:1003EC00364800F0DFFA334B1B68002B15DC364B1C
:1003FC0017221A60374B1B68374A82FB03125211C3
:10040C00DB17D31A2B4A136007E000BF06E000BFCE
:10041C0004E000BF02E000BF00E000BF2F4B1B68F0
:10042C00163B032B00F2BF8001A252F823F000BF51
:10043C004D04000871050008ED0400082F050008A4
:10044C0001220421214801F0D6FA002210211F4874
:10045C0001F0D1FA012208211C4801F0CCFA1C4B06
:10046C001A681B4B59681A4B9B680B449A420AD06A
:10047C00184B4FF4FA721A60164BC8229A60154B3F
:10048C004FF496725A60154B18221A600C4B1B686D
:10049C00002B00F38A80114B18221A600D4B5B68FD
:1004AC000D4A82FB03125211DB17D31A044A136054
:1004BC007BE000BF500000206766666618000020D5
:1004CC0054000020A40000208800002000080140F7
:1004DC000C000020000000201F85EB518C00002038
:1004EC0001220421354801F086FA002210213348FC
:1004FC0001F081FA01220821304801F07CFA304BDE
:10050C001B68002B53DC2F4B19221A602E4B9B6857
:10051C002E4A82FB03125211DB17D31A284A13609E
:10052C0045E001220421254801F065FA0122102141
:10053C00224801F060FA00220821204801F05BFA01
:10054C001F4B1B68002B34DC1E4B17221A601E4BF2
:10055C001B681E4A82FB03125211DB17D31A184A6E
:10056C00136026E000220421144801F044FA012211
:10057C001021124801F03FFA012208210F4801F026
:10058C003AFA0F4B1B68002B15DC0E4B18221A6025
:10059C000D4B5B680D4A82FB03125211DB17D31A09
:1005AC00074A136007E000BF06E000BF04E000BF8D
:1005BC0002E000BF00E000BF00BF80BD00080140AA
:1005CC00540000208C000020000000201F85EB51FF
:1005DC0080B582B000AF78607B68092B00F2808117
:1005EC0001A252F823F000BF1D06000865060008A2
:1005FC00AD060008F50600083D0700088507000851
:10060C00CD070008150800085D080008A5080008BB
:10061C0000220121B54801F0EEF900220221B34875
:10062C0001F0E9F900220421B04801F0E4F90022BC
:10063C000821AE4801F0DFF900221021AB4801F08F
:10064C00DAF900222021A94801F0D5F90122402134
:10065C00A64801F0D0F944E101220121A34801F0A0
:10066C00CAF900220221A14801F0C5F90022042197
:10067C009E4801F0C0F9012208219C4801F0BBF909
:10068C0001221021994801F0B6F901222021974846
:10069C0001F0B1F901224021944801F0ACF920E1BC
:1006AC0000220121914801F0A6F9002202218F4875
:1006BC0001F0A1F9012204218C4801F09CF90022DF
:1006CC0008218A4801F097F900221021874801F08F
:1006DC0092F901222021854801F08DF90022402158
:1006EC00824801F088F9FCE0002201217F4801F0EA
:1006FC0082F9002202217D4801F07DF900220421BB
:10070C007A4801F078F900220821784801F073F951
:10071C0001221021754801F06EF901222021734845
:10072C0001F069F900224021704801F064F9D8E029
:10073C00012201216D4801F05EF9002202216B4873
:10074C0001F059F900220421684801F054F9012202
:10075C000821664801F04FF901221021634801F08D
:10076C004AF900222021614801F045F9002240217C
:10077C005E4801F040F9B4E0002201215B4801F031
:10078C003AF901220221594801F035F900220421DD
:10079C00564801F030F900220821544801F02BF999
:1007AC0001221021514801F026F9002220214F4846
:1007BC0001F021F9002240214C4801F01CF990E095
:1007CC0000220121494801F016F901220221474873
:1007DC0001F011F900220421444801F00CF9002227
:1007EC000821424801F007F9002210213F4801F08E
:1007FC0002F9002220213D4801F0FDF800224021A1
:10080C003A4801F0F8F86CE000220121374801F079
:10081C00F2F800220221354801F0EDF80022042103
:10082C00324801F0E8F801220821304801F0E3F8E1
:10083C00012210212D4801F0DEF8012220212B4845
:10084C0001F0D9F801224021284801F0D4F848E001
:10085C0000220121254801F0CEF800220221234874
:10086C0001F0C9F800220421204801F0C4F800224C
:10087C0008211E4801F0BFF8002210211B4801F08E
:10088C00BAF800222021194801F0B5F800224021C5
:10089C00164801F0B0F824E000220121134801F0C1
:1008AC00AAF800220221114801F0A5F80022042127
:1008BC000E4801F0A0F8002208210C4801F09BF82A
:1008CC0001221021094801F096F800222021074846
:1008DC0001F091F800224021044801F08CF800E06E
:1008EC0000BF00BF0837BD4680BD00BF000C0140F3
:1008FC0080B500AF01224FF480710B4801F07BF8FA
:10090C0001224FF40071084801F075F801224FF4F0
:10091C008061054801F06FF801224FF40061024834
:10092C0001F069F800BF80BD0008014080B582B0BD
:10093C0000AF78607B68032B2ED801A252F823F00D
:10094C005D0900086F090008810900089309000877
:10095C00FFF7CEFF00224FF48071114801F04BF8E5
:10096C001AE0FFF7C5FF00224FF400710C4801F0AC
:10097C0042F811E0FFF7BCFF00224FF480610848F9
:10098C0001F039F808E0FFF7B3FF00224FF40061E3
:10099C00034801F030F800BF00BF0837BD4680BDEA
:1009AC000008014080B582B000AF7860114BDB6865
:1009BC00012B1BD10321192000F00EFC0E4B1B68E0
:1009CC009B007A6813441B681846FFF701FE0A4B1C
:1009DC001B685A1C08490A601846FFF7A7FF064B0C
:1009EC001B68032B02DD044B00221A6000BF083782
:1009FC00BD4680BDA40000205800002090B583B0F7
:100A0C0000AF0023FB7188E0FA79FB794749895CD8
:100A1C00474AD154FA79FB794649895C434AD15407
:100A2C00FB79002B09D1FC794FF40051424800F0BE
:100A3C00CBFF03461A463F4B1A55FB79012B09D1C4
:100A4C00FC794FF480413C4800F0BEFF03461A4647
:100A5C00384B1A55FB79022B09D1FC794FF4004124
:100A6C00354800F0B1FF03461A46324B1A55FB7954
:100A7C002F4AD25CFB792D49CB5C9A424AD1FB7947
:100A8C002A4AD25CFB792B49CB5C9A4242D1FB7946
:100A9C002A4AD25CFB792649CB5C9A4222D0FA795D
:100AAC00FB792349895C254AD154FB79234AD35CD1
:100ABC00002B09D1FB79224A0021D154FB79214A20
:100ACC00642122F8131025E0FB791D4A0121D15431
:100ADC00FB791D4A0021D154FB791C4A012142F8B3
:100AEC00231017E0FB79154AD35C002B12D1FB794C
:100AFC00144A32F81320013A91B2124A22F8131018
:100B0C00FB79104A32F81330002B03D1FB790E4AD3
:100B1C000121D154FB790133FB71FB79022B7FF658
:100B2C0073AF00BF00BF0C37BD4690BD74000020F2
:100B3C007800002070000020001001407C00002094
:100B4C008000002068000020840000205C00002051
:100B5C0080B483B000AF0346FB71FB79022B01D943
:100B6C00002312E0FB790B4AD35C002B0CD1FB79F0
:100B7C00094A52F82330012B06D1FB79064A002191
:100B8C0042F82310012300E0002318460C37BD4621
:100B9C0080BC7047800000205C00002080B500AF56
:100BAC008E4B1B68042B00F2998101A252F823F0A2
:100BBC00D10B0008FF0B0008510C00081F0D00089A
:100BCC00050E0008864B1A68854B5968844B9B6848
:100BDC000B449A420AD0824B4FF4FA721A60804B43
:100BEC004FF496725A607E4BC8229A607B4B01225E
:100BFC001A60FFF711FB0020FFF7AAFF0346012B39
:100C0C0040F06E81FFF7E4FA764B00221A60754BC8
:100C1C0002225A60744B1B68744A82FB03129211B5
:100C2C00DB17D31A6F4A93606D4B1B68704A82FBBB
:100C3C0003125211DB17D31A6A4AD360674B022294
:100C4C001A604DE1FFF77CFA664B00221A60654B87
:100C5C0002225A60644B1B68644A82FB0312921195
:100C6C00DB17D31A5F4A93605F4B1B68604A82FBA9
:100C7C0003125211DB17D11A5E4B83FB01239A101E
:100C8C00CB17D21A13469B0013445B00CA1A554B60
:100C9C00DA605448FFF786FE0120FFF759FF034640
:100CAC00012B0AD14F4B00221A604E4B02225A6084
:100CBC004D4B1B6864334C4A13600220FFF748FF0E
:100CCC000346012B03D1484B1B68454A1360002097
:100CDC00FFF73EFF0346012B40F00481FFF778FA43
:100CEC00FFF706FE3F4B00221A603E4B03225A6070
:100CFC003C4B00229A603A4B9B683D4A82FB0312A4
:100D0C005211DB17D31A374AD360344B03221A60C3
:100D1C00E8E0FFF745FA334B00221A60314B03220F
:100D2C005A60314B9B68314A82FB03129211DB17DC
:100D3C00D31A2C4A93602C4B9B682D4A82FB0312CE
:100D4C005211DB17D11A2B4B83FB01239A10CB17B3
:100D5C00D21A13469B0013445B00CA1A214BDA606B
:100D6C002048FFF71FFE0120FFF7F2FE0346012B80
:100D7C000AD11C4B00221A601A4B03225A601A4BE0
:100D8C009B686433184A93600220FFF7E1FE034628
:100D9C00012B03D1144B9B68114A93600020FFF781
:100DAC00D7FE0346012B40F09F80FFF711FA0D4B45
:100DBC0000221A600B4B04225A600A4B00229A60E4
:100DCC00074B5B680A4A82FB03125211DB17D31ADA
:100DDC00044AD360014B04221A6085E09000002085
:100DEC0000000020180000200C000020D34D6210E1
:100DFC001F85EB5167666666FFF7BAF93D4B00221B
:100E0C001A603C4B04225A603B4B5B683B4A82FBAA
:100E1C0003129211DB17D31A364A9360364B5B6878
:100E2C00374A82FB03125211DB17D11A354B83FB65
:100E3C0001239A10CB17D21A13469B0013445B0064
:100E4C00CA1A2C4BDA602B48FFF7ACFD0120FFF7D8
:100E5C007FFE0346012B0AD1264B00221A60254B3C
:100E6C0002225A60244B5B686433234A536002208D
:100E7C00FFF76EFE0346012B24D11F4B5B68224A01
:100E8C0053601D4B1A681C4B59681B4B9B680B44D9
:100E9C009A420CD1184B1B681B4A1360164B5B68AB
:100EAC00194A5360144B9B68174A93600AE0164B1F
:100EBC004FF4FA721A60144B4FF496725A60124B3C
:100ECC00C8229A600020FFF743FE0346012B0DD188
:100EDC00FFF77EF90D4B01221A6007E000BF06E018
:100EEC0000BF04E000BF02E000BF00E000BF00BF95
:100EFC0080BD00BF180000200C000020D34D6210F4
:100F0C001F85EB516766666600000020900000208C
:100F1C0080B500AF00F06EFA00F060F800F0E6F873
:100F2C0001222021284800F066FD012204212648D8
:100F3C0000F061FD01224021234800F05CFD0122FC
:100F4C000821214800F057FD012280211E4800F0A5
:100F5C0052FD012210211C4800F04DFD01224FF4DE
:100F6C008071194800F047FD01224FF400711648BA
:100F7C0000F041FD01224FF48061134800F03BFD6D
:100F8C0001224FF40061104800F035FD00F062F8CA
:100F9C000E4801F099F90E4B16221A600D4B1622D1
:100FAC001A600D4B00221A600221642000F014F923
:100FBC000321192000F010F90121322000F00CF966
:100FCC00FFF7ECFDFCE700BF00080140B400002077
:100FDC00880000208C0000209000002080B590B08C
:100FEC0000AF07F1180328220021184601F024FD58
:100FFC003B1D00221A605A609A60DA601A61022363
:10100C00BB610123BB621023FB6200237B6307F1EE
:10101C001803184600F020FD0346002B01D000F009
:10102C00D5F80F237B600023BB600023FB600023FB
:10103C003B6100237B613B1D0021184600F08CFFB7
:10104C000346002B01D000F0C1F800BF4037BD466D
:10105C0080BD000080B586B000AF07F10803002208
:10106C001A605A609A60DA603B4600221A605A6035
:10107C001D4B4FF080421A601B4B41F63F725A6079
:10108C00194B00229A60184B0922DA60164B002289
:10109C001A61154B00229A61134801F0C5F80346FA
:1010AC00002B01D000F092F84FF48053BB6007F195
:1010BC00080319460C4801F05BFA0346002B01D0DB
:1010CC0000F084F800233B6000237B603B4619460C
:1010DC00054801F023FC0346002B01D000F076F804
:1010EC0000BF1837BD4680BDB400002080B588B065
:1010FC0000AF07F1100300221A605A609A60DA60A0
:10110C002E4B9B692D4A43F0100393612B4B9B692B
:10111C0003F01003FB60FB68284B9B69274A43F0E4
:10112C0004039361254B9B6903F00403BB60BB680C
:10113C00224B9B69214A43F0080393611F4B9B6927
:10114C0003F008037B607B68002240F6FC711C48AE
:10115C0000F051FC00227F211A4800F04CFC4FF4A7
:10116C0060433B6100237B610123BB6107F11003EA
:10117C001946154800F0AEFA40F6FC733B610123AA
:10118C007B610023BB610223FB6107F1100319464D
:10119C000B4800F09FFA7F233B6101237B61002306
:1011AC00BB610223FB6107F110031946054800F0EF
:1011BC0091FA00BF2037BD4680BD00BF0010024031
:1011CC0000080140000C01400010014080B400AF49
:1011DC0072B600BFFEE7000080B483B000AF786049
:1011EC00396007493B687A6841F82320054A3B6817
:1011FC00002142F8231000BF0C37BD4680BC70475D
:10120C0094000020A400002080B483B000AF002321
:10121C007B601CE0124A7B6852F82330002B13DDF4
:10122C000F4A7B6852F823305A1E0D497B6841F8EF
:10123C0023200B4A7B6852F82330002B04DC094A2C
:10124C007B68012142F823107B6801337B607B684B
:10125C00032BDFDD00BF00BF0C37BD4680BC7047E1
:10126C0094000020A400002080B485B000AF154B82
:10127C009B69144A43F001039361124B9B6903F081
:10128C000103BB60BB680F4BDB690E4A43F0805314
:10129C00D3610C4BDB6903F080537B607B680A4B9A
:1012AC005B68FB60FB6823F0E063FB60FB6843F06A
:1012BC008063FB60044AFB68536000BF1437BD4673
:1012CC0080BC7047001002400000014080B584B023
:1012DC0000AF78607B681B68B3F1804F13D10C4B67
:1012EC00DB690B4A43F00103D361094BDB6903F063
:1012FC000103FB60FB68002200211C2000F0B3F905
:10130C001C2000F0CCF900BF1037BD4680BD00BFDB
:10131C000010024080B400AFFEE780B400AFFEE7DF
:10132C0080B400AFFEE780B400AFFEE780B400AF3E
:10133C00FEE780B400AF00BFBD4680BC704780B4F0
:10134C0000AF00BFBD4680BC704780B400AF00BF8B
:10135C00BD4680BC704780B500AF00F091F800BF6F
:10136C0080BD000080B500AF024800F0F9FF00BF5F
:10137C0080BD00BFB400002080B400AF00BFBD46EC
:10138C0080BC704780B582B000AF78607B681B680A
:10139C00B3F1804F03D1FFF731FBFFF735FF00BFEF
:1013AC000837BD4680BD00000C480D490D4A00238E
:1013BC0002E0D458C4500433C4188C42F9D30A4AFE
:1013CC000A4C002301E013600432A242FBD3FFF766
:1013DC00D3FF01F00DFBFFF79BFD704700000020D1
:1013EC0034000020942A0008340000200001002062
:1013FC00FEE7000080B500AF084B1B68074A43F0BE
:10140C0010031360032000F023F90F2000F008F8FC
:10141C00FFF72AFF0023184680BD00BF00200240C2
:10142C0080B582B000AF7860124B1A68124B1B78F3
:10143C0019464FF47A73B3FBF1F3B2FBF3F318468E
:10144C0000F03BF90346002B01D001230EE07B6832
:10145C000F2B0AD8002279684FF0FF3000F003F907
:10146C00064A7B681360002300E001231846083706
:10147C00BD4680BD28000020300000202C0000203C
:10148C0080B400AF054B1B781A46054B1B68134400
:10149C00034A136000BFBD4680BC7047300000207B
:1014AC00FC00002080B400AF024B1B681846BD4600
:1014BC0080BC7047FC00002080B485B000AF786021
:1014CC007B6803F00703FB600C4BDB68BB60BA68FE
:1014DC004FF6FF031340BB60FB681A02BB68134353
:1014EC0043F0BF6343F40033BB60044ABB68D36072
:1014FC0000BF1437BD4680BC704700BF00ED00E054
:10150C0080B400AF044BDB681B0A03F007031846DA
:10151C00BD4680BC704700BF00ED00E080B483B0D6
:10152C0000AF0346FB7197F90730002B0BDBFB79FF
:10153C0003F01F02064997F907305B09012000FAF6
:10154C0002F241F8232000BF0C37BD4680BC704727
:10155C0000E100E080B483B000AF03463960FB715A
:10156C0097F90730002B0ADB3B68DAB20C4997F984
:10157C0007301201D2B20B4483F800230AE03B6817
:10158C00DAB20849FB7903F00F03043B1201D2B223
:10159C000B441A7600BF0C37BD4680BC704700BFA9
:1015AC0000E100E000ED00E080B489B000AFF8602D
:1015BC00B9607A60FB6803F00703FB61FB69C3F158
:1015CC000703042B28BF0423BB61FB690433062BE0
:1015DC0002D9FB69033B00E000237B614FF0FF3233
:1015EC00BB6902FA03F3DA43BB681A407B699A4081
:1015FC004FF0FF317B6901FA03F3D9437B680B4051
:10160C00134318462437BD4680BC704780B582B062
:10161C0000AF78607B68013BB3F1807F01D301237D
:10162C000FE00A4A7B68013B53600F214FF0FF30FB
:10163C00FFF790FF054B00229A60044B07221A60BB
:10164C00002318460837BD4680BD00BF10E000E0FF
:10165C0080B582B000AF78607868FFF72DFF00BFCF
:10166C000837BD4680BD80B586B000AF0346B96073
:10167C007A60FB7300237B61FFF742FF78617A6825
:10168C00B9687869FFF790FF024697F90F30114659
:10169C001846FFF75FFF00BF1837BD4680BD80B509
:1016AC0082B000AF0346FB7197F907301846FFF77D
:1016BC0035FF00BF0837BD4680BD80B582B000AF96
:1016CC0078607868FFF7A2FF034618460837BD46D6
:1016DC0080BD000080B48BB000AF7860396000230F
:1016EC007B6200233B6248E101227B6A02FA03F32E
:1016FC00FB613B681B68FA691340BB61BA69FB6903
:10170C009A4240F037813B685B68A34A93425ED0B3
:10171C00A14A934275D8A14A934258D09F4A93420A
:10172C006FD89F4A934252D09D4A934269D89D4AA2
:10173C0093424CD09B4A934263D89B4A934246D0E7
:10174C00994A93425DD8122B2AD8122B59D801A250
:10175C0052F823F0DB170008B5170008C71700086C
:10176C00091800080F1800080F1800080F180008B7
:10177C000F1800080F1800080F1800080F180008A1
:10178C000F1800080F1800080F1800080F18000891
:10179C000F1800080F180008BD170008D117000813
:1017AC00824A934213D02CE03B68DB683B6229E011
:1017BC003B68DB6804333B6224E03B68DB6808333E
:1017CC003B621FE03B68DB680C333B621AE03B6812
:1017DC009B68002B02D104233B6213E03B689B689F
:1017EC00012B05D108233B627B68FA691A6109E079
:1017FC0008233B627B68FA695A6103E000233B6271
:10180C0000E000BFBB69FF2B01D87B6801E07B685F
:10181C0004337B61BB69FF2B02D87B6A9B0002E01F
:10182C007B6A083B9B003B617B691A680F213B6913
:10183C0001FA03F3DB431A40396A3B6901FA03F3FB
:10184C001A437B691A603B685B6803F08053002B7A
:10185C0000F09080564B9B69554A43F0010393610D
:10186C00534B9B6903F00103BB60BB68514A7B6A15
:10187C009B08023352F82330FB607B6A03F00303AE
:10188C009B000F2202FA03F3DB43FA681340FB6060
:10189C007B68494A93420DD07B68484A934207D0F3
:1018AC007B68474A934201D1022304E0032302E000
:1018BC00012300E000237A6A02F0030292009340B5
:1018CC00FA681343FB603B497B6A9B080233FA6856
:1018DC0041F823203B685B6803F48033002B06D06F
:1018EC00384B1A683749BB6913430B6006E0354B1C
:1018FC001A68BB69DB43334913400B603B685B6878
:10190C0003F40033002B06D02E4B5A682D49BB69CB
:10191C0013434B6006E02B4B5A68BB69DB432949E8
:10192C0013404B603B685B6803F48013002B06D0BC
:10193C00244B9A682349BB6913438B6006E0214B07
:10194C009A68BB69DB431F4913408B603B685B683B
:10195C0003F40013002B06D01A4BDA681949BB6943
:10196C001343CB6006E0174BDA68BB69DB431549C0
:10197C001340CB607B6A01337B623B681A687B6ADD
:10198C0022FA03F3002B7FF4AFAE00BF00BF2C375D
:10199C00BD4680BC704700BF000032100000311003
:1019AC000000221000002110000012100000111085
:1019BC00001002400000014000080140000C0140F2
:1019CC00001001400004014080B485B000AF786085
:1019DC000B467B807B689A687B881340002B02D077
:1019EC000123FB7301E00023FB73FB7B18461437C8
:1019FC00BD4680BC704780B483B000AF78600B46A6
:101A0C007B8013467B707B78002B03D07A887B68B5
:101A1C001A6103E07B881A047B681A6100BF0C37DB
:101A2C00BD4680BC704780B485B000AF78600B4673
:101A3C007B807B68DB68FB607A88FB6813401A0448
:101A4C00FB68D9437B880B401A437B681A6100BF43
:101A5C001437BD4680BC704780B586B000AF786047
:101A6C007B68002B01D101236CE27B681B6803F0BF
:101A7C000103002B00F08780924B5B6803F00C0392
:101A8C00042B0CD08F4B5B6803F00C03082B12D18A
:101A9C008C4B5B6803F48033B3F5803F0BD1894BDF
:101AAC001B6803F40033002B6CD07B685B68002B45
:101ABC0068D1012346E27B685B68B3F5803F06D1B1
:101ACC00804B1B687F4A43F4803313602EE07B68A5
:101ADC005B68002B0CD17B4B1B687A4A23F4803358
:101AEC001360784B1B68774A23F4802313601DE046
:101AFC007B685B68B3F5A02F0CD1724B1B68714AE5
:101B0C0043F4802313606F4B1B686E4A43F480339D
:101B1C0013600BE06B4B1B686A4A23F48033136031
:101B2C00684B1B68674A23F4802313607B685B68EF
:101B3C00002B13D0FFF7B6FC386108E0FFF7B2FCBE
:101B4C0002463B69D31A642B01D90323FAE15D4B9E
:101B5C001B6803F40033002BF0D014E0FFF7A2FC59
:101B6C00386108E0FFF79EFC02463B69D31A642BF0
:101B7C0001D90323E6E1534B1B6803F40033002B1C
:101B8C00F0D100E000BF7B681B6803F00203002B60
:101B9C0063D04C4B5B6803F00C03002B0BD0494B10
:101BAC005B6803F00C03082B1CD1464B5B6803F4F9
:101BBC008033002B16D1434B1B6803F00203002B20
:101BCC0005D07B681B69012B01D00123BAE13D4B89
:101BDC001B6823F0F8027B685B69DB00394913430F
:101BEC000B603AE07B681B69002B20D0364B01223E
:101BFC001A60FFF757FC386108E0FFF753FC024608
:101C0C003B69D31A022B01D903239BE12D4B1B6893
:101C1C0003F00203002BF0D02A4B1B6823F0F802D0
:101C2C007B685B69DB00274913430B6015E0264B8F
:101C3C0000221A60FFF736FC386108E0FFF732FC2F
:101C4C0002463B69D31A022B01D903237AE11D4BBF
:101C5C001B6803F00203002BF0D17B681B6803F0B8
:101C6C000803002B3AD07B689B69002B19D0174BCB
:101C7C0001221A60FFF716FC386108E0FFF712FC2E
:101C8C0002463B69D31A022B01D903235AE10D4BAF
:101C9C005B6A03F00203002BF0D0012000F0A6FADF
:101CAC001CE00A4B00221A60FFF7FCFB38610FE0C6
:101CBC00FFF7F8FB02463B69D31A022B08D9032322
:101CCC0040E100BF0010024000004242800442424A
:101CDC009E4B5B6A03F00203002BE9D17B681B6807
:101CEC0003F00403002B00F0A6800023FB75974B38
:101CFC00DB6903F08053002B0DD1944BDB69934AC5
:101D0C0043F08053D361914BDB6903F08053BB608C
:101D1C00BB680123FB758E4B1B6803F48073002B8F
:101D2C0018D18B4B1B688A4A43F480731360FFF7FE
:101D3C00B9FB386108E0FFF7B5FB02463B69D31AE3
:101D4C00642B01D90323FDE0814B1B6803F48073E2
:101D5C00002BF0D07B68DB68012B06D17B4B1B6A18
:101D6C007A4A43F0010313622DE07B68DB68002B99
:101D7C000CD1764B1B6A754A23F001031362734B2B
:101D8C001B6A724A23F0040313621CE07B68DB6855
:101D9C00052B0CD16D4B1B6A6C4A43F00403136288
:101DAC006A4B1B6A694A43F0010313620BE0674BF1
:101DBC001B6A664A23F001031362644B1B6A634A75
:101DCC0023F0040313627B68DB68002B15D0FFF74C
:101DDC0069FB38610AE0FFF765FB02463B69D31AE1
:101DEC0041F28832934201D90323ABE0574B1B6A73
:101DFC0003F00203002BEED014E0FFF753FB386125
:101E0C000AE0FFF74FFB02463B69D31A41F28832D6
:101E1C00934201D9032395E04C4B1B6A03F0020358
:101E2C00002BEED1FB7D012B05D1484BDB69474ADA
:101E3C0023F08053D3617B68DB69002B00F0818039
:101E4C00424B5B6803F00C03082B61D07B68DB69A9
:101E5C00022B46D13F4B00221A60FFF723FB38615F
:101E6C0008E0FFF71FFB02463B69D31A022B01D98E
:101E7C00032367E0354B1B6803F00073002BF0D194
:101E8C007B681B6AB3F5803F08D1304B5B6823F449
:101E9C0000327B689B682D4913434B602B4B5B686E
:101EAC0023F474127B68196A7B685B6A0B432749BD
:101EBC0013434B60274B01221A60FFF7F3FA38618A
:101ECC0008E0FFF7EFFA02463B69D31A022B01D95F
:101EDC00032337E01D4B1B6803F00073002BF0D07D
:101EEC002FE01C4B00221A60FFF7DCFA386108E087
:101EFC00FFF7D8FA02463B69D31A022B01D9032308
:101F0C0020E0124B1B6803F00073002BF0D118E09B
:101F1C007B68DB69012B01D1012313E00B4B5B6860
:101F2C00FB60FB6803F480327B681B6A9A4206D123
:101F3C00FB6803F470127B685B6A9A4201D0012340
:101F4C0000E0002318461837BD4680BD0010024043
:101F5C00007000406000424280B584B000AF7860F1
:101F6C0039607B68002B01D10123D0E06A4B1B68E0
:101F7C0003F007033A689A4210D9674B1B6823F0A9
:101F8C00070265493B6813430B60634B1B6803F006
:101F9C0007033A689A4201D00123B8E07B681B68BA
:101FAC0003F00203002B20D07B681B6803F00403B2
:101FBC00002B05D0594B5B68584A43F4E0635360DF
:101FCC007B681B6803F00803002B05D0534B5B6840
:101FDC00524A43F460535360504B5B6823F0F00259
:101FEC007B689B684D4913434B607B681B6803F00F
:101FFC000103002B40D07B685B68012B07D1474B5A
:10200C001B6803F40033002B15D101237FE07B68A0
:10201C005B68022B07D1414B1B6803F00073002B4C
:10202C0009D1012373E03D4B1B6803F00203002B25
:10203C0001D101236BE0394B5B6823F003027B6811
:10204C005B68364913434B60FFF72CFAF8600AE0E3
:10205C00FFF728FA0246FB68D31A41F28832934202
:10206C0001D9032353E02D4B5B6803F00C027B6812
:10207C005B689B009A42EBD1274B1B6803F007036C
:10208C003A689A4210D2244B1B6823F0070222496B
:10209C003B6813430B60204B1B6803F007033A6843
:1020AC009A4201D0012332E07B681B6803F00403E1
:1020BC00002B08D0194B5B6823F4E0627B68DB686B
:1020CC00164913434B607B681B6803F00803002B15
:1020DC0009D0124B5B6823F460527B681B69DB00F0
:1020EC000E4913434B6000F021F802460B4B5B6822
:1020FC001B0903F00F030A49CB5C22FA03F3094ACC
:10210C001360094B1B681846FFF78AF90023184621
:10211C001037BD4680BD00BF0020024000100240B9
:10212C007C2A0008280000202C00002090B48AB0E3
:10213C0000AF2A4B3C1D0FCB84E80F0040F201236B
:10214C003B800023FB610023BB6100237B620023E7
:10215C007B6100233B62224B5B68FB61FB6903F0F4
:10216C000C03042B02D0082B03D02DE01D4B3B623B
:10217C002DE0FB699B0C03F00F0307F128021344BD
:10218C0013F8243C7B61FB6903F48033002B13D0E0
:10219C00134B5B685B0C03F0010307F1280213443B
:1021AC0013F8283CBB617B690E4A02FB03F2BB6946
:1021BC00B2FBF3F37B6204E07B690B4A02FB03F393
:1021CC007B627B6A3B6202E0064B3B6200BF3B6A70
:1021DC0018462837BD4690BC704700BF6C2A0008D3
:1021EC000010024000127A0000093D0080B485B056
:1021FC0000AF78600A4B1B680A4AA2FB03235B0AF8
:10220C007A6802FB03F3FB6000BFFB685A1EFA609E
:10221C00002BF9D100BF00BF1437BD4680BC7047FE
:10222C0028000020D34D621080B582B000AF7860DA
:10223C007B68002B01D1012341E07B6893F83D3092
:10224C00DBB2002B06D17B68002283F83C20786837
:10225C00FFF73CF87B68022283F83D207B681A6804
:10226C007B6804331946104600F06AFA7B68012239
:10227C0083F846207B68012283F83E207B6801228C
:10228C0083F83F207B68012283F840207B68012281
:10229C0083F841207B68012283F842207B6801226D
:1022AC0083F843207B68012283F844207B68012259
:1022BC0083F845207B68012283F83D2000231846D3
:1022CC000837BD4680BD000080B485B000AF786093
:1022DC007B6893F83D30DBB2012B01D0012335E054
:1022EC007B68022283F83D207B681B68DA687B6878
:1022FC001B6842F00102DA607B681B68164A934245
:10230C0009D07B681B68B3F1804F04D07B681B68D5
:10231C00124A934211D17B681B689B6803F0070338
:10232C00FB60FB68062B10D07B681B681A687B6807
:10233C001B6842F001021A6007E07B681B681A6890
:10234C007B681B6842F001021A60002318461437A0
:10235C00BD4680BC704700BF002C0140000400400B
:10236C0080B582B000AF78607B681B681B6903F096
:10237C000203022B22D17B681B68DB6803F002038B
:10238C00022B1BD17B681B686FF002021A617B6801
:10239C0001221A777B681B689B6903F00303002BEF
:1023AC0003D0786800F0B1F905E0786800F0A4F982
:1023BC00786800F0B3F97B6800221A777B681B6899
:1023CC001B6903F00403042B22D17B681B68DB68B8
:1023DC0003F00403042B1BD17B681B686FF0040211
:1023EC001A617B6802221A777B681B689B6903F46D
:1023FC004073002B03D0786800F087F905E078680B
:10240C0000F07AF9786800F089F97B6800221A7775
:10241C007B681B681B6903F00803082B22D17B68BF
:10242C001B68DB6803F00803082B1BD17B681B6857
:10243C006FF008021A617B6804221A777B681B68AC
:10244C00DB6903F00303002B03D0786800F05DF91F
:10245C0005E0786800F050F9786800F05FF97B6867
:10246C0000221A777B681B681B6903F01003102B82
:10247C0022D17B681B68DB6803F01003102B1BD187
:10248C007B681B686FF010021A617B6808221A7750
:10249C007B681B68DB6903F44073002B03D07868FE
:1024AC0000F033F905E0786800F026F9786800F060
:1024BC0035F97B6800221A777B681B681B6903F06F
:1024CC000103012B0ED17B681B68DB6803F0010351
:1024DC00012B07D17B681B686FF001021A617868C9
:1024EC00FEF750FF7B681B681B6903F08003802B91
:1024FC000ED17B681B68DB6803F08003802B07D14F
:10250C007B681B686FF080021A61786800F067FACC
:10251C007B681B681B6903F04003402B0ED17B6862
:10252C001B68DB6803F04003402B07D17B681B68FA
:10253C006FF040021A61786800F0F9F87B681B684C
:10254C001B6903F02003202B0ED17B681B68DB6812
:10255C0003F02003202B07D17B681B686FF020024F
:10256C001A61786800F032FA00BF0837BD4680BDAA
:10257C0080B584B000AF786039607B6893F83C30EC
:10258C00012B01D10223B3E07B68012283F83C20AC
:10259C007B68022283F83D207B681B689B68FB608C
:1025AC00FB6823F07703FB60FB6823F47F43FB603D
:1025BC007B681B68FA689A603B681B68B3F5005F20
:1025CC003ED0B3F5005F00F28780B3F5805F00F07A
:1025DC008580B3F5805F7FD8702B1AD0702B7BD899
:1025EC00602B50D0602B77D8502B3CD0502B73D80D
:1025FC00402B58D0402B6FD8302B64D0302B6BD85D
:10260C00202B60D0202B67D8002B5CD0102B5AD0FD
:10261C0062E07B6818683B6899683B685A683B685D
:10262C00DB6800F05CF97B681B689B68FB60FB68EF
:10263C0043F07703FB607B681B68FA689A604EE096
:10264C007B6818683B6899683B685A683B68DB682C
:10265C0000F045F97B681B689A687B681B6842F43C
:10266C0080429A603BE07B6818683B6859683B681D
:10267C00DB681A4600F0BCF87B681B6850211846D2
:10268C0000F013F92BE07B6818683B6859683B68CD
:10269C00DB681A4600F0DAF87B681B686021184684
:1026AC0000F003F91BE07B6818683B6859683B68CD
:1026BC00DB681A4600F09CF87B681B6840211846C2
:1026CC0000F0F3F80BE07B681A683B681B6819464E
:1026DC00104600F0EAF802E000BF00E000BF7B68A3
:1026EC00012283F83D207B68002283F83C200023E4
:1026FC0018461037BD4680BD80B483B000AF7860FB
:10270C0000BF0C37BD4680BC704780B483B000AFAF
:10271C00786000BF0C37BD4680BC704780B483B076
:10272C0000AF786000BF0C37BD4680BC704780B4EA
:10273C0083B000AF786000BF0C37BD4680BC7047DB
:10274C0080B485B000AF786039607B681B68FB6033
:10275C007B68254A934207D07B68B3F1804F03D046
:10276C007B68224A934208D1FB6823F07003FB601C
:10277C003B685B68FA681343FB607B681A4A9342B8
:10278C0007D07B68B3F1804F03D07B68174A934224
:10279C0008D1FB6823F44073FB603B68DB68FA6884
:1027AC001343FB60FB6823F080023B685B691343B7
:1027BC00FB607B68FA681A603B689A687B68DA622F
:1027CC003B681A687B689A627B68074A934203D11C
:1027DC003B681A697B681A637B6801225A6100BFE7
:1027EC001437BD4680BC7047002C014000040040EB
:1027FC0080B487B000AFF860B9607A60FB681B6A80
:10280C007B61FB681B6A23F00102FB681A62FB68A0
:10281C009B693B613B6923F0F0033B617B681B01C7
:10282C003A6913433B617B6923F00A037B617A6944
:10283C00BB6813437B61FB683A699A61FB687A69F0
:10284C001A6200BF1C37BD4680BC704780B487B08D
:10285C0000AFF860B9607A60FB681B6A23F0100265
:10286C00FB681A62FB689B697B61FB681B6A3B61B6
:10287C007B6923F470437B617B681B037A69134388
:10288C007B613B6923F0A0033B61BB681B013A6988
:10289C0013433B61FB687A699A61FB683A691A6277
:1028AC0000BF1C37BD4680BC704780B485B000AFFC
:1028BC00786039607B689B68FB60FB6823F0700371
:1028CC00FB603A68FB68134343F00703FB607B68CB
:1028DC00FA689A6000BF1437BD4680BC704780B45C
:1028EC0087B000AFF860B9607A603B60FB689B68AA
:1028FC007B617B6923F47F437B613B681A027B68B5
:10290C001A43BB6813437A6913437B61FB687A698A
:10291C009A6000BF1C37BD4680BC704780B485B040
:10292C0000AF786039607B6893F83C30012B01D1A3
:10293C00022341E07B68012283F83C207B68022261
:10294C0083F83D207B681B685B68FB607B681B68B9
:10295C009B68BB60FB6823F07003FB603B681B68E3
:10296C00FA681343FB607B681B68FA685A607B68E3
:10297C001B68144A934209D07B681B68B3F1804FE3
:10298C0004D07B681B68104A93420CD1BB6823F0BF
:10299C008003BB603B685B68BA681343BB607B68B1
:1029AC001B68BA689A607B68012283F83D207B68BB
:1029BC00002283F83C20002318461437BD4680BC07
:1029CC00704700BF002C01400004004080B483B06D
:1029DC0000AF786000BF0C37BD4680BC704780B438
:1029EC0083B000AF786000BF0C37BD4680BC704729
:1029FC0070B500260C4D0D4C641BA410A64209D1D9
:102A0C0000F022F800260A4D0A4C641BA410A642C2
:102A1C0005D170BD55F8043B98470136EEE755F8E3
:102A2C00043B98470136F2E78C2A00088C2A0008F0
:102A3C008C2A0008902A000803460244934200D1D5
:102A4C00704703F8011BF9E7F8B500BFF8BC08BCE8
:102A5C009E467047F8B500BFF8BC08BC9E46704750
:102A6C0002030405060708090A0B0C0D0E0F1010C3
:102A7C000000000000000000010203040607080922
:042A8C00310100080C
:042A90000D0100082C
:102A9400F40100002C010000C8000000F401000053
:102AA4002C010000C8000000000000000500000028
:102AB40000000000030000000024F40010000000E7
:042AC400010000000D
:04000005080013B527
:00000001FF
