:020000040800F2
:100000000028002005160008711500087715000863
:100010007D15000883150008891500080000000000
:100020000000000000000000000000008F15000824
:100030009B15000800000000A7150008B315000874
:100040004D1600084D1600084D1600084D16000804
:100050004D1600084D1600084D1600084D160008F4
:100060004D1600084D1600084D1600084D160008E4
:100070004D1600084D1600084D1600084D160008D4
:100080004D1600084D1600084D1600084D160008C4
:100090004D1600084D1600084D1600084D160008B4
:1000A0004D1600084D1600084D1600084D160008A4
:1000B000C11500084D160008000000004D1600088C
:1000C0004D16000800000000000000004D1600085A
:1000D000000000004D1600084D160008000000004A
:1000E0004D1600084D1600084D16000800000000CF
:1000F0000000000000000000000000000000000000
:0C01000000000000000000005FF808F1A3
:10010C0010B5054C237833B9044B13B10448AFF345
:10011C0000800123237010BD24000020000000008B
:10012C00742C000808B5034B1BB103490348AFF30B
:10013C00008008BD0000000028000020742C00087E
:10014C0080B500AF00222021044801F07CFD002284
:10015C000421024801F077FD00BF80BD000801407A
:10016C0080B500AF00228021044801F06CFD002214
:10017C001021024801F067FD00BF80BD000801405E
:10018C0080B500AF00224021044801F05CFD002244
:10019C000821024801F057FD00BF80BD0008014056
:1001AC0080B500AF012220210E4801F04CFD012248
:1001BC0004210C4801F047FD01228021094801F07F
:1001CC0042FD01221021074801F03DFD0122402192
:1001DC00044801F038FD01220821024801F033FDEA
:1001EC0000BF80BD0008014080B500AFB24B1B685A
:1001FC00163B032B00F2B38001A252F823F000BF90
:10020C001D02000881020008CD0200081903000835
:10021C0000222021A94801F016FD01228021A748C7
:10022C0001F011FD01224021A44801F00CFDA44B6A
:10023C001A68A34B5968A24B9B680B449A420AD08C
:10024C009F4B4FF4FA721A609D4BC8229A609C4BDC
:10025C004FF496725A609B4B21221A60964B1722D0
:10026C001A6000F0E9FB964B1B680021184601F060
:10027C00DBF87BE000222021904801F0E4FC012215
:10028C0080218E4801F0DFFC012240218B4801F0D7
:10029C00DAFC8D4B00221A608C4B9B68012B01D130
:1002AC0000F0CAFB894B1B68012B5AD1824B1822D8
:1002BC001A60834B5B680021184601F0B5F850E0DA
:1002CC00012220217D4801F0BEFC002280217B48C8
:1002DC0001F0B9FC01224021784801F0B4FC7A4BC2
:1002EC0001221A60794B1B68012B08D1724B192221
:1002FC001A60734B9B680021184601F095F8734BFC
:10030C009B68012B2FD100F097FB2CE001222021C0
:10031C006A4801F098FC01228021684801F093FCA6
:10032C0000224021654801F08EFC674B02221A60C6
:10033C00664B1B68012B08D1614B1B6800211846CA
:10034C0001F072F85C4B17221A60604B9B68012B12
:10035C000BD15F4B00221A6000F06EFB05E000BF72
:10036C0004E000BF02E000BF00E000BF594B1B6877
:10037C00163B032B00F29C8001A252F823F000BF25
:10038C009D0300087D040008FD0300083D040008DF
:10039C0001220421494801F056FC00221021474853
:1003AC0001F051FC01220821444801F04CFC444B63
:1003BC001A68434B5968424B9B680B449A420AD0CB
:1003CC003F4B4FF4FA721A603D4BC8229A603C4B7B
:1003DC004FF496725A60404B01221A603D4B182222
:1003EC001A60374B5B680121184601F01DF878E064
:1003FC0001220421314801F026FC002210212F4853
:10040C0001F021FC012208212C4801F01CFC324B8C
:10041C0001221A602D4B5B68012B4BD12D4B1922FD
:10042C001A60274B9B680121184600F0FDFF41E044
:10043C0001220421214801F006FC012210211F4851
:10044C0001F001FC002208211C4801F0FCFB224BAE
:10045C0002221A601D4B5B68012B3FD11D4B1722EA
:10046C001A60174B1B680121184600F0DDFF35E0C0
:10047C0000220421114801F0E6FB012210210F4853
:10048C0001F0E1FB012208210C4801F0DCFB124BCE
:10049C0000221A600D4B5B68012B21D1084B5B6865
:1004AC000121184600F0C0FF0A4B18221A6017E011
:1004BC0000BF16E000BF14E06C00002000080140F3
:1004CC00000000207C00002088000020A4000020F8
:1004DC0080000020700000208C00002000BF00E095
:1004EC0000BF00BF80BD00BF80B582B000AF786098
:1004FC007B68092B00F2808101A252F823F000BF27
:10050C00350500087D050008C50500080D06000826
:10051C00550600089D060008E50600082D07000892
:10052C0075070008BD07000800220121B54801F03D
:10053C008AFB00220221B34801F085FB0022042132
:10054C00B04801F080FB00220821AE4801F07BFB93
:10055C0000221021AB4801F076FB00222021A94893
:10056C0001F071FB01224021A64801F06CFB44E133
:10057C0001220121A34801F066FB00220221A148BF
:10058C0001F061FB002204219E4801F05CFB01227A
:10059C0008219C4801F057FB01221021994801F0D9
:1005AC0052FB01222021974801F04DFB01224021F2
:1005BC00944801F048FB20E100220121914801F010
:1005CC0042FB002202218F4801F03DFB0122042155
:1005DC008C4801F038FB002208218A4801F033FBDB
:1005EC0000221021874801F02EFB01222021854892
:1005FC0001F029FB00224021824801F024FBFCE0A1
:10060C00002201217F4801F01EFB002202217D48BF
:10061C0001F019FB002204217A4801F014FB00229E
:10062C000821784801F00FFB01221021754801F0D8
:10063C000AFB01222021734801F005FB0022402116
:10064C00704801F000FBD8E0012201216D4801F057
:10065C00FAFA002202216B4801F0F5FA002204217B
:10066C00684801F0F0FA01220821664801F0EBFA23
:10067C0001221021634801F0E6FA00222021614892
:10068C0001F0E1FA002240215E4801F0DCFAB4E00E
:10069C00002201215B4801F0D6FA012202215948BF
:1006AC0001F0D1FA00220421564801F0CCFA0022C4
:1006BC000821544801F0C7FA01221021514801F0D9
:1006CC00C2FA002220214F4801F0BDFA002240213D
:1006DC004C4801F0B8FA90E000220121494801F0A1
:1006EC00B2FA01220221474801F0ADFA002204219E
:1006FC00444801F0A8FA00220821424801F0A3FA6C
:10070C00002210213F4801F09EFA002220213D4892
:10071C0001F099FA002240213A4801F094FA6CE079
:10072C0000220121374801F08EFA002202213548BF
:10073C0001F089FA00220421324801F084FA0122E6
:10074C000821304801F07FFA012210212D4801F0D8
:10075C007AFA012220212B4801F075FA012240215E
:10076C00284801F070FA48E000220121254801F0E8
:10077C006AFA00220221234801F065FA00220421C2
:10078C00204801F060FA002208211E4801F05BFAB3
:10079C00002210211B4801F056FA00222021194892
:1007AC0001F051FA00224021164801F04CFA24E0E5
:1007BC0000220121134801F046FA002202211148BF
:1007CC0001F041FA002204210E4801F03CFA00220B
:1007DC0008210C4801F037FA01221021094801F0D8
:1007EC0032FA00222021074801F02DFA0022402184
:1007FC00044801F028FA00E000BF00BF0837BD46EE
:10080C0080BD00BF000C014080B500AF01224FF449
:10081C0080710B4801F017FA01224FF4007108485F
:10082C0001F011FA01224FF48061054801F00BFA36
:10083C0001224FF40061024801F005FA00BF80BDAF
:10084C000008014080B582B000AF78607B68032B54
:10085C002ED801A252F823F075080008870800086A
:10086C0099080008AB080008FFF7CEFF00224FF4F0
:10087C008071114801F0E7F91AE0FFF7C5FF00227B
:10088C004FF400710C4801F0DEF911E0FFF7BCFFEA
:10089C0000224FF48061084801F0D5F908E0FFF719
:1008AC00B3FF00224FF40061034801F0CCF900BF04
:1008BC0000BF0837BD4680BD0008014080B500AFC1
:1008CC005A4B1B68212B00F2A58001A252F823F091
:1008DC0081090008A5090008CF090008F7090008DC
:1008EC00210A0008210A0008210A0008210A000830
:1008FC00210A0008210A0008210A0008210A000820
:10090C00210A0008210A0008210A0008210A00080F
:10091C00210A0008210A0008210A0008210A0008FF
:10092C00210A0008210A0008210A0008210A0008EF
:10093C00210A0008210A0008210A0008210A0008DF
:10094C00210A0008210A0008210A0008210A0008CF
:10095C00210A0008650900080020FFF773FF00203A
:10096C00FFF7C2FD0321322000F05EFD2F4B012268
:10097C001A6058E00020FFF765FF0020FFF7B4FD78
:10098C002B4BDB68012B47D1284B01221A6003212A
:10099C00322000F049FD3FE00120FFF753FF00F04B
:1009AC0063FB03461846FFF79FFD214BDB68012BC9
:1009BC0034D11E4B02221A600321322000F034FD88
:1009CC002CE00220FFF73EFF1A4B1B681846FFF77E
:1009DC008BFD174BDB68012B22D1144B03221A60C1
:1009EC000321322000F020FD1AE00320FFF72AFF3C
:1009FC0000F08AFB03461846FFF776FD0C4BDB68CC
:100A0C00012B0FD1094B00221A600321322000F078
:100A1C000BFD07E000BF06E000BF04E000BF02E0F2
:100A2C0000BF00E000BF00BF80BD00BF7800002009
:100A3C00A40000209000002080B500AF594B1B682B
:100A4C00212B00F2A38001A252F823F0FD0A00082A
:100A5C00210B00084B0B00086F0B0008990B0008CA
:100A6C00990B0008990B0008990B0008990B0008CA
:100A7C00990B0008990B0008990B0008990B0008BA
:100A8C00990B0008990B0008990B0008990B0008AA
:100A9C00990B0008990B0008990B0008990B00089A
:100AAC00990B0008990B0008990B0008990B00088A
:100ABC00990B0008990B0008990B0008990B00087A
:100ACC00990B0008990B0008990B0008990B00086A
:100ADC00E10A00080020FFF7B5FE0020FFF704FD37
:100AEC0002211E2000F0A0FC2E4B00221A6056E0C2
:100AFC000020FFF7A7FE0020FFF7F6FC2A4B9B68AF
:100B0C00012B45D1274B01221A6002211E2000F037
:100B1C008BFC3DE00120FFF795FE00F0C1FA034687
:100B2C001846FFF7E1FC204B9B68012B32D11D4B83
:100B3C0002221A6002211E2000F076FC2AE002201C
:100B4C00FFF780FE0020FFF7CFFC174B9B68012BB3
:100B5C0022D1144B03221A6002211E2000F064FCE7
:100B6C001AE00320FFF76EFE00F0CEFA034618469B
:100B7C00FFF7BAFC0C4B9B68012B0FD1094B0022E1
:100B8C001A6002211E2000F04FFC07E000BF06E0B7
:100B9C0000BF04E000BF02E000BF00E000BF00BFE8
:100BAC0080BD00BF7C000020A400002090B583B065
:100BBC0000AF0023FB7188E0FA79FB794749895C27
:100BCC00474AD154FA79FB794649895C434AD15456
:100BDC00FB79002B09D1FC794FF40051424801F00C
:100BEC001BF803461A463F4B1A55FB79012B09D1CA
:100BFC00FC794FF480413C4801F00EF803461A464C
:100C0C00384B1A55FB79022B09D1FC794FF4004172
:100C1C00354801F001F803461A46324B1A55FB7958
:100C2C002F4AD25CFB792D49CB5C9A424AD1FB7995
:100C3C002A4AD25CFB792B49CB5C9A4242D1FB7994
:100C4C002A4AD25CFB792649CB5C9A4222D0FA79AB
:100C5C00FB792349895C254AD154FB79234AD35C1F
:100C6C00002B09D1FB79224A0021D154FB79214A6E
:100C7C00642122F8131025E0FB791D4A0121D1547F
:100C8C00FB791D4A0021D154FB791C4A012142F801
:100C9C00231017E0FB79154AD35C002B12D1FB799A
:100CAC00144A32F81320013A91B2124A22F8131066
:100CBC00FB79104A32F81330002B03D1FB790E4A22
:100CCC000121D154FB790133FB71FB79022B7FF6A7
:100CDC0073AF00BF00BF0C37BD4690BD580000205D
:100CEC005C00002054000020001001406000002037
:100CFC00640000204C000020680000204000002010
:100D0C0080B483B000AF0346FB71FB79022B01D991
:100D1C00002312E0FB790B4AD35C002B0CD1FB793E
:100D2C00094A52F82330012B06D1FB79064A0021DF
:100D3C0042F82310012300E0002318460C37BD466F
:100D4C0080BC7047640000204000002080B500AFDC
:100D5C00B54B1B68042B00F25E8101A252F823F004
:100D6C00810D0008A10D0008DD0D0008DF0E000844
:100D7C00910F0008AD4B21221A60AD4B16221A6060
:100D8C00AC4B16221A600321322000F04DFBA64B0F
:100D9C0001221A60FFF728FA0020FFF7B1FF034683
:100DAC00012B40F03A81FFF7FBF90321322000F0D0
:100DBC003BFBA14B21221A60A04B02221A60A04BD4
:100DCC0000221A60FFF77AFD974B02221A6024E189
:100DDC00FFF7B6F99B4BDB68012B40F02081FFF746
:100DEC00DFF9FFF76BFD0020FFF78AFF0346012BAD
:100DFC0013D1FFF7D5F90321322000F015FB8E4BF0
:100E0C0021221A608D4B03221A608D4B02221A602C
:100E1C00FFF754FD844B03221A600120FFF770FF8B
:100E2C000346012B3ED1844B21221A60864B1B6852
:100E3C006433854A1360814B02221A60824B1B6813
:100E4C00B3F5617F0ADC804B1B68804A82FB03127E
:100E5C005211DB17D31A7E4A136021E07A4B1B68C0
:100E6C007C4A82FB03129211DB17D31A7A4A136065
:100E7C00754B1968744B1A68764B83FB02039811F7
:100E8C00D317C31A4FF47A7000FB03F3D31ACB1A9F
:100E9C006E4A82FB03125211DB17D31A6C4A136091
:100EAC00FFF70CFD0220FFF72BFF0346012B40F050
:100EBC00B680624B02221A60634B1B68634A82FB4A
:100ECC0003125211DB17D31A614A1360FFF7B4FDFA
:100EDC00A5E0FFF755F95B4BDB68012B40F0A180D7
:100EEC00FFF75EF9FFF7EAFC0020FFF709FF034666
:100EFC00012B13D1FFF754F90321322000F094FA9F
:100F0C004D4B21221A604D4B04221A604C4B01228E
:100F1C001A60FFF7D3FC444B04221A600120FFF740
:100F2C00EFFE0346012B13D1474B9B686433464AB3
:100F3C009360424B03221A60434B9B68434A82FBEB
:100F4C0003125211DB17D31A414A1360FFF774FDD9
:100F5C000220FFF7D5FE0346012B62D13A4B9B686A
:100F6C003E4A9360354B03221A60374B9B68374AD5
:100F7C0082FB03125211DB17D31A354A1360FFF7A9
:100F8C005BFD4EE0FFF7ECF82E4BDB68012B67D1D5
:100F9C00FFF706F9FFF792FC0020FFF7B1FE0346BE
:100FAC00012B04D1FFF7FCF81F4B00221A60012023
:100FBC00FFF7A6FE0346012B13D1234B5B6864336A
:100FCC00214A53601D4B04221A601F4B5B681F4A59
:100FDC0082FB03125211DB17D31A1D4A1360FFF761
:100FEC002BFD0220FFF78CFE0346012B38D1164B4C
:100FFC005B681A4A9360114B04221A60124B5B68AF
:10100C00124A82FB03125211DB17D31A104A1360D7
:10101C00FFF712FD24E000BF23E000BF21E000BF7A
:10102C001FE000BF1DE000BF740000207C0000200A
:10103C006C0000207000002078000020840000204C
:10104C008C000020A40000200C0000201F85EB5118
:10105C0088000020D34D621090000020000000207A
:10106C0000BF00BF80BD00BF80B400AF0B4B1B683E
:10107C00042B0AD0042B0ADC022B02D0032B02D047
:10108C0005E0022305E0032303E0042301E000BF95
:10109C0000231846BD4680BC704700BF840000206A
:1010AC0080B400AF154B1B68022B18D0022B1FDC31
:1010BC00002B02D0012B09D01AE0114B1B68114AEE
:1010CC0082FB03125211DB17D31A12E00C4B5B6834
:1010DC000C4A82FB03125211DB17D31A09E0084B9E
:1010EC009B68084A82FB03125211DB17D31A00E0EB
:1010FC0000231846BD4680BC704700BF8800002006
:10110C00000000201F85EB5180B400AF154B1B680D
:10111C00022B18D0022B1FDC002B02D0012B09D084
:10112C001AE0114B1B68114A82FB03125211DB1798
:10113C00D31A12E00C4B5B680C4A82FB031252115F
:10114C00DB17D31A09E0084B9B68084A82FB031291
:10115C005211DB17D31A00E000231846BD4680BCA1
:10116C00704700BF8C0000200C0000201F85EB5145
:10117C0080B500AF00F066FA00F058F800F0DEF829
:10118C0001222021234800F05EFD01220421214888
:10119C0000F059FD012240211E4800F054FD0122AF
:1011AC0008211C4800F04FFD01228021194800F055
:1011BC004AFD01221021174800F045FD01224FF491
:1011CC008071144800F03FFD01224FF4007111486A
:1011DC0000F039FD01224FF480610E4800F033FD20
:1011EC0001224FF400610B4800F02DFD00F05AF87D
:1011FC00094801F079F9094B16221A60084B16229E
:10120C001A60084B00221A60074B21221A60FFF764
:10121C009DFDFCE700080140B40000206C0000209C
:10122C0070000020740000207C00002080B590B07D
:10123C0000AF07F1180328220021184601F00CFD1D
:10124C003B1D00221A605A609A60DA601A61022310
:10125C00BB610123BB621023FB6200237B6307F19C
:10126C001803184600F008FD0346002B01D000F0CF
:10127C00D5F80F237B600023BB600023FB600023A9
:10128C003B6100237B613B1D0021184600F074FF7D
:10129C000346002B01D000F0C1F800BF4037BD461B
:1012AC0080BD000080B586B000AF07F108030022B6
:1012BC001A605A609A60DA603B4600221A605A60E3
:1012CC001D4B4FF080421A601B4B41F63F725A6027
:1012DC00194B00229A60184B0922DA60164B002237
:1012EC001A61154B00229A61134801F0ADF80346C0
:1012FC00002B01D000F092F84FF48053BB6007F143
:10130C00080319460C4801F043FA0346002B01D0A0
:10131C0000F084F800233B6000237B603B461946B9
:10132C00054801F00BFC0346002B01D000F076F8C9
:10133C0000BF1837BD4680BDB400002080B588B012
:10134C0000AF07F1100300221A605A609A60DA604D
:10135C002E4B9B692D4A43F0100393612B4B9B69D9
:10136C0003F01003FB60FB68284B9B69274A43F092
:10137C0004039361254B9B6903F00403BB60BB68BA
:10138C00224B9B69214A43F0080393611F4B9B69D5
:10139C0003F008037B607B68002240F6FC711C485C
:1013AC0000F051FC00227F211A4800F04CFC4FF455
:1013BC0060433B6100237B610123BB6107F1100398
:1013CC001946154800F0AEFA40F6FC733B61012358
:1013DC007B610023BB610223FB6107F110031946FB
:1013EC000B4800F09FFA7F233B6101237B610023B4
:1013FC00BB610223FB6107F110031946054800F09D
:10140C0091FA00BF2037BD4680BD00BF00100240DE
:10141C0000080140000C01400010014080B400AFF6
:10142C0072B600BFFEE7000080B483B000AF7860F6
:10143C00396007493B687A6841F82320054A3B68C4
:10144C00002142F8231000BF0C37BD4680BC70470A
:10145C0094000020A400002080B483B000AF0023CF
:10146C007B601CE0124A7B6852F82330002B13DDA2
:10147C000F4A7B6852F823305A1E0D497B6841F89D
:10148C0023200B4A7B6852F82330002B04DC094ADA
:10149C007B68012142F823107B6801337B607B68F9
:1014AC00032BDFDD00BF00BF0C37BD4680BC70478F
:1014BC0094000020A400002080B485B000AF154B30
:1014CC009B69144A43F001039361124B9B6903F02F
:1014DC000103BB60BB680F4BDB690E4A43F08053C2
:1014EC00D3610C4BDB6903F080537B607B680A4B48
:1014FC005B68FB60FB6823F0E063FB60FB6843F018
:10150C008063FB60044AFB68536000BF1437BD4620
:10151C0080BC7047001002400000014080B584B0D0
:10152C0000AF78607B681B68B3F1804F13D10C4B14
:10153C00DB690B4A43F00103D361094BDB6903F010
:10154C000103FB60FB68002200211C2000F0B3F9B2
:10155C001C2000F0CCF900BF1037BD4680BD00BF89
:10156C000010024080B400AFFEE780B400AFFEE78D
:10157C0080B400AFFEE780B400AFFEE780B400AFEC
:10158C00FEE780B400AF00BFBD4680BC704780B49E
:10159C0000AF00BFBD4680BC704780B400AF00BF39
:1015AC00BD4680BC704780B500AF00F091F800BF1D
:1015BC0080BD000080B500AF024800F0E1FF00BF25
:1015CC0080BD00BFB400002080B400AF00BFBD469A
:1015DC0080BC704780B582B000AF78607B681B68B8
:1015EC00B3F1804F03D1FFF7E1FAFFF735FF00BFEE
:1015FC000837BD4680BD00000C480D490D4A00233C
:10160C0002E0D458C4500433C4188C42F9D30A4AAB
:10161C000A4C002301E013600432A242FBD3FFF713
:10162C00D3FF01F0F5FAFFF7A3FD7047000000208F
:10163C0024000020B42C000824000020000100200D
:10164C00FEE7000080B500AF084B1B68074A43F06B
:10165C0010031360032000F023F90F2000F008F8AA
:10166C00FFF72AFF0023184680BD00BF0020024070
:10167C0080B582B000AF7860124B1A68124B1B78A1
:10168C0019464FF47A73B3FBF1F3B2FBF3F318463C
:10169C0000F03BF90346002B01D001230EE07B68E0
:1016AC000F2B0AD8002279684FF0FF3000F003F9B5
:1016BC00064A7B681360002300E0012318460837B4
:1016CC00BD4680BD18000020200000201C0000201A
:1016DC0080B400AF054B1B781A46054B1B681344AE
:1016EC00034A136000BFBD4680BC70472000002039
:1016FC00FC00002080B400AF024B1B681846BD46AE
:10170C0080BC7047FC00002080B485B000AF7860CE
:10171C007B6803F00703FB600C4BDB68BB60BA68AB
:10172C004FF6FF031340BB60FB681A02BB68134300
:10173C0043F0BF6343F40033BB60044ABB68D3601F
:10174C0000BF1437BD4680BC704700BF00ED00E001
:10175C0080B400AF044BDB681B0A03F00703184688
:10176C00BD4680BC704700BF00ED00E080B483B084
:10177C0000AF0346FB7197F90730002B0BDBFB79AD
:10178C0003F01F02064997F907305B09012000FAA4
:10179C0002F241F8232000BF0C37BD4680BC7047D5
:1017AC0000E100E080B483B000AF03463960FB7108
:1017BC0097F90730002B0ADB3B68DAB20C4997F932
:1017CC0007301201D2B20B4483F800230AE03B68C5
:1017DC00DAB20849FB7903F00F03043B1201D2B2D1
:1017EC000B441A7600BF0C37BD4680BC704700BF57
:1017FC0000E100E000ED00E080B489B000AFF860DB
:10180C00B9607A60FB6803F00703FB61FB69C3F105
:10181C000703042B28BF0423BB61FB690433062B8D
:10182C0002D9FB69033B00E000237B614FF0FF32E0
:10183C00BB6902FA03F3DA43BB681A407B699A402E
:10184C004FF0FF317B6901FA03F3D9437B680B40FE
:10185C00134318462437BD4680BC704780B582B010
:10186C0000AF78607B68013BB3F1807F01D301232B
:10187C000FE00A4A7B68013B53600F214FF0FF30A9
:10188C00FFF790FF054B00229A60044B07221A6069
:10189C00002318460837BD4680BD00BF10E000E0AD
:1018AC0080B582B000AF78607868FFF72DFF00BF7D
:1018BC000837BD4680BD80B586B000AF0346B96021
:1018CC007A60FB7300237B61FFF742FF78617A68D3
:1018DC00B9687869FFF790FF024697F90F30114607
:1018EC001846FFF75FFF00BF1837BD4680BD80B5B7
:1018FC0082B000AF0346FB7197F907301846FFF72B
:10190C0035FF00BF0837BD4680BD80B582B000AF43
:10191C0078607868FFF7A2FF034618460837BD4683
:10192C0080BD000080B48BB000AF786039600023BC
:10193C007B6200233B6248E101227B6A02FA03F3DB
:10194C00FB613B681B68FA691340BB61BA69FB69B0
:10195C009A4240F037813B685B68A34A93425ED061
:10196C00A14A934275D8A14A934258D09F4A9342B8
:10197C006FD89F4A934252D09D4A934269D89D4A50
:10198C0093424CD09B4A934263D89B4A934246D095
:10199C00994A93425DD8122B2AD8122B59D801A2FE
:1019AC0052F823F02B1A0008051A0008171A000821
:1019BC00591A00085F1A00085F1A00085F1A00081D
:1019CC005F1A00085F1A00085F1A00085F1A000807
:1019DC005F1A00085F1A00085F1A00085F1A0008F7
:1019EC005F1A00085F1A00080D1A0008211A000877
:1019FC00824A934213D02CE03B68DB683B6229E0BF
:101A0C003B68DB6804333B6224E03B68DB680833EB
:101A1C003B621FE03B68DB680C333B621AE03B68BF
:101A2C009B68002B02D104233B6213E03B689B684C
:101A3C00012B05D108233B627B68FA691A6109E026
:101A4C0008233B627B68FA695A6103E000233B621E
:101A5C0000E000BFBB69FF2B01D87B6801E07B680D
:101A6C0004337B61BB69FF2B02D87B6A9B0002E0CD
:101A7C007B6A083B9B003B617B691A680F213B69C1
:101A8C0001FA03F3DB431A40396A3B6901FA03F3A9
:101A9C001A437B691A603B685B6803F08053002B28
:101AAC0000F09080564B9B69554A43F001039361BB
:101ABC00534B9B6903F00103BB60BB68514A7B6AC3
:101ACC009B08023352F82330FB607B6A03F003035C
:101ADC009B000F2202FA03F3DB43FA681340FB600E
:101AEC007B68494A93420DD07B68484A934207D0A1
:101AFC007B68474A934201D1022304E0032302E0AE
:101B0C00012300E000237A6A02F003029200934062
:101B1C00FA681343FB603B497B6A9B080233FA6803
:101B2C0041F823203B685B6803F48033002B06D01C
:101B3C00384B1A683749BB6913430B6006E0354BC9
:101B4C001A68BB69DB43334913400B603B685B6825
:101B5C0003F40033002B06D02E4B5A682D49BB6979
:101B6C0013434B6006E02B4B5A68BB69DB43294996
:101B7C0013404B603B685B6803F48013002B06D06A
:101B8C00244B9A682349BB6913438B6006E0214BB5
:101B9C009A68BB69DB431F4913408B603B685B68E9
:101BAC0003F40013002B06D01A4BDA681949BB69F1
:101BBC001343CB6006E0174BDA68BB69DB4315496E
:101BCC001340CB607B6A01337B623B681A687B6A8B
:101BDC0022FA03F3002B7FF4AFAE00BF00BF2C370B
:101BEC00BD4680BC704700BF0000321000003110B1
:101BFC000000221000002110000012100000111033
:101C0C00001002400000014000080140000C01409F
:101C1C00001001400004014080B485B000AF786032
:101C2C000B467B807B689A687B881340002B02D024
:101C3C000123FB7301E00023FB73FB7B1846143775
:101C4C00BD4680BC704780B483B000AF78600B4653
:101C5C007B8013467B707B78002B03D07A887B6863
:101C6C001A6103E07B881A047B681A6100BF0C3789
:101C7C00BD4680BC7047000080B586B000AF786070
:101C8C007B68002B01D101236CE27B681B6803F09D
:101C9C000103002B00F08780924B5B6803F00C0370
:101CAC00042B0CD08F4B5B6803F00C03082B12D168
:101CBC008C4B5B6803F48033B3F5803F0BD1894BBD
:101CCC001B6803F40033002B6CD07B685B68002B23
:101CDC0068D1012346E27B685B68B3F5803F06D18F
:101CEC00804B1B687F4A43F4803313602EE07B6883
:101CFC005B68002B0CD17B4B1B687A4A23F4803336
:101D0C001360784B1B68774A23F4802313601DE023
:101D1C007B685B68B3F5A02F0CD1724B1B68714AC2
:101D2C0043F4802313606F4B1B686E4A43F480337B
:101D3C0013600BE06B4B1B686A4A23F4803313600F
:101D4C00684B1B68674A23F4802313607B685B68CD
:101D5C00002B13D0FFF7CEFC386108E0FFF7CAFC6C
:101D6C0002463B69D31A642B01D90323FAE15D4B7C
:101D7C001B6803F40033002BF0D014E0FFF7BAFC1F
:101D8C00386108E0FFF7B6FC02463B69D31A642BB6
:101D9C0001D90323E6E1534B1B6803F40033002BFA
:101DAC00F0D100E000BF7B681B6803F00203002B3E
:101DBC0063D04C4B5B6803F00C03002B0BD0494BEE
:101DCC005B6803F00C03082B1CD1464B5B6803F4D7
:101DDC008033002B16D1434B1B6803F00203002BFE
:101DEC0005D07B681B69012B01D00123BAE13D4B67
:101DFC001B6823F0F8027B685B69DB0039491343ED
:101E0C000B603AE07B681B69002B20D0364B01221B
:101E1C001A60FFF76FFC386108E0FFF76BFC0246B5
:101E2C003B69D31A022B01D903239BE12D4B1B6871
:101E3C0003F00203002BF0D02A4B1B6823F0F802AE
:101E4C007B685B69DB00274913430B6015E0264B6D
:101E5C0000221A60FFF74EFC386108E0FFF74AFCDD
:101E6C0002463B69D31A022B01D903237AE11D4B9D
:101E7C001B6803F00203002BF0D17B681B6803F096
:101E8C000803002B3AD07B689B69002B19D0174BA9
:101E9C0001221A60FFF72EFC386108E0FFF72AFCDC
:101EAC0002463B69D31A022B01D903235AE10D4B8D
:101EBC005B6A03F00203002BF0D0012000F0A6FABD
:101ECC001CE00A4B00221A60FFF714FC38610FE08B
:101EDC00FFF710FC02463B69D31A022B08D90323E7
:101EEC0040E100BF00100240000042428004424228
:101EFC009E4B5B6A03F00203002BE9D17B681B68E5
:101F0C0003F00403002B00F0A6800023FB75974B15
:101F1C00DB6903F08053002B0DD1944BDB69934AA2
:101F2C0043F08053D361914BDB6903F08053BB606A
:101F3C00BB680123FB758E4B1B6803F48073002B6D
:101F4C0018D18B4B1B688A4A43F480731360FFF7DC
:101F5C00D1FB386108E0FFF7CDFB02463B69D31A91
:101F6C00642B01D90323FDE0814B1B6803F48073C0
:101F7C00002BF0D07B68DB68012B06D17B4B1B6AF6
:101F8C007A4A43F0010313622DE07B68DB68002B77
:101F9C000CD1764B1B6A754A23F001031362734B09
:101FAC001B6A724A23F0040313621CE07B68DB6833
:101FBC00052B0CD16D4B1B6A6C4A43F00403136266
:101FCC006A4B1B6A694A43F0010313620BE0674BCF
:101FDC001B6A664A23F001031362644B1B6A634A53
:101FEC0023F0040313627B68DB68002B15D0FFF72A
:101FFC0081FB38610AE0FFF77DFB02463B69D31A8F
:10200C0041F28832934201D90323ABE0574B1B6A50
:10201C0003F00203002BEED014E0FFF76BFB3861EA
:10202C000AE0FFF767FB02463B69D31A41F288329C
:10203C00934201D9032395E04C4B1B6A03F0020336
:10204C00002BEED1FB7D012B05D1484BDB69474AB8
:10205C0023F08053D3617B68DB69002B00F0818017
:10206C00424B5B6803F00C03082B61D07B68DB6987
:10207C00022B46D13F4B00221A60FFF73BFB386125
:10208C0008E0FFF737FB02463B69D31A022B01D954
:10209C00032367E0354B1B6803F00073002BF0D172
:1020AC007B681B6AB3F5803F08D1304B5B6823F427
:1020BC0000327B689B682D4913434B602B4B5B684C
:1020CC0023F474127B68196A7B685B6A0B4327499B
:1020DC0013434B60274B01221A60FFF70BFB38614F
:1020EC0008E0FFF707FB02463B69D31A022B01D924
:1020FC00032337E01D4B1B6803F00073002BF0D05B
:10210C002FE01C4B00221A60FFF7F4FA386108E04C
:10211C00FFF7F0FA02463B69D31A022B01D90323CD
:10212C0020E0124B1B6803F00073002BF0D118E079
:10213C007B68DB69012B01D1012313E00B4B5B683E
:10214C00FB60FB6803F480327B681B6A9A4206D101
:10215C00FB6803F470127B685B6A9A4201D001231E
:10216C0000E0002318461837BD4680BD0010024021
:10217C00007000406000424280B584B000AF7860CF
:10218C0039607B68002B01D10123D0E06A4B1B68BE
:10219C0003F007033A689A4210D9674B1B6823F087
:1021AC00070265493B6813430B60634B1B6803F0E4
:1021BC0007033A689A4201D00123B8E07B681B6898
:1021CC0003F00203002B20D07B681B6803F0040390
:1021DC00002B05D0594B5B68584A43F4E0635360BD
:1021EC007B681B6803F00803002B05D0534B5B681E
:1021FC00524A43F460535360504B5B6823F0F00237
:10220C007B689B684D4913434B607B681B6803F0EC
:10221C000103002B40D07B685B68012B07D1474B37
:10222C001B6803F40033002B15D101237FE07B687E
:10223C005B68022B07D1414B1B6803F00073002B2A
:10224C0009D1012373E03D4B1B6803F00203002B03
:10225C0001D101236BE0394B5B6823F003027B68EF
:10226C005B68364913434B60FFF744FAF8600AE0A9
:10227C00FFF740FA0246FB68D31A41F288329342C8
:10228C0001D9032353E02D4B5B6803F00C027B68F0
:10229C005B689B009A42EBD1274B1B6803F007034A
:1022AC003A689A4210D2244B1B6823F00702224949
:1022BC003B6813430B60204B1B6803F007033A6821
:1022CC009A4201D0012332E07B681B6803F00403BF
:1022DC00002B08D0194B5B6823F4E0627B68DB6849
:1022EC00164913434B607B681B6803F00803002BF3
:1022FC0009D0124B5B6823F460527B681B69DB00CE
:10230C000E4913434B6000F021F802460B4B5B68FF
:10231C001B0903F00F030A49CB5C22FA03F3094AA9
:10232C001360094B1B681846FFF7A2F900231846E7
:10233C001037BD4680BD00BF002002400010024097
:10234C009C2C0008180000201C00002090B48AB0BF
:10235C0000AF2A4B3C1D0FCB84E80F0040F2012349
:10236C003B800023FB610023BB6100237B620023C5
:10237C007B6100233B62224B5B68FB61FB6903F0D2
:10238C000C03042B02D0082B03D02DE01D4B3B6219
:10239C002DE0FB699B0C03F00F0307F1280213449B
:1023AC0013F8243C7B61FB6903F48033002B13D0BE
:1023BC00134B5B685B0C03F0010307F12802134419
:1023CC0013F8283CBB617B690E4A02FB03F2BB6924
:1023DC00B2FBF3F37B6204E07B690B4A02FB03F371
:1023EC007B627B6A3B6202E0064B3B6200BF3B6A4E
:1023FC0018462837BD4690BC704700BF8C2C00088F
:10240C000010024000127A0000093D0080B485B033
:10241C0000AF78600A4B1B680A4AA2FB03235B0AD5
:10242C007A6802FB03F3FB6000BFFB685A1EFA607C
:10243C00002BF9D100BF00BF1437BD4680BC7047DC
:10244C0018000020D34D621080B582B000AF7860C8
:10245C007B68002B01D1012341E07B6893F83D3070
:10246C00DBB2002B06D17B68002283F83C20786815
:10247C00FFF754F87B68022283F83D207B681A68CA
:10248C007B6804331946104600F06AFA7B68012217
:10249C0083F846207B68012283F83E207B6801226A
:1024AC0083F83F207B68012283F840207B6801225F
:1024BC0083F841207B68012283F842207B6801224B
:1024CC0083F843207B68012283F844207B68012237
:1024DC0083F845207B68012283F83D2000231846B1
:1024EC000837BD4680BD000080B485B000AF786071
:1024FC007B6893F83D30DBB2012B01D0012335E032
:10250C007B68022283F83D207B681B68DA687B6855
:10251C001B6842F00102DA607B681B68164A934222
:10252C0009D07B681B68B3F1804F04D07B681B68B3
:10253C00124A934211D17B681B689B6803F0070316
:10254C00FB60FB68062B10D07B681B681A687B68E5
:10255C001B6842F001021A6007E07B681B681A686E
:10256C007B681B6842F001021A600023184614377E
:10257C00BD4680BC704700BF002C014000040040E9
:10258C0080B582B000AF78607B681B681B6903F074
:10259C000203022B22D17B681B68DB6803F0020369
:1025AC00022B1BD17B681B686FF002021A617B68DF
:1025BC0001221A777B681B689B6903F00303002BCD
:1025CC0003D0786800F0B1F905E0786800F0A4F960
:1025DC00786800F0B3F97B6800221A777B681B6877
:1025EC001B6903F00403042B22D17B681B68DB6896
:1025FC0003F00403042B1BD17B681B686FF00402EF
:10260C001A617B6802221A777B681B689B6903F44A
:10261C004073002B03D0786800F087F905E07868E8
:10262C0000F07AF9786800F089F97B6800221A7753
:10263C007B681B681B6903F00803082B22D17B689D
:10264C001B68DB6803F00803082B1BD17B681B6835
:10265C006FF008021A617B6804221A777B681B688A
:10266C00DB6903F00303002B03D0786800F05DF9FD
:10267C0005E0786800F050F9786800F05FF97B6845
:10268C0000221A777B681B681B6903F01003102B60
:10269C0022D17B681B68DB6803F01003102B1BD165
:1026AC007B681B686FF010021A617B6808221A772E
:1026BC007B681B68DB6903F44073002B03D07868DC
:1026CC0000F033F905E0786800F026F9786800F03E
:1026DC0035F97B6800221A777B681B681B6903F04D
:1026EC000103012B0ED17B681B68DB6803F001032F
:1026FC00012B07D17B681B686FF001021A617868A7
:10270C00FEF768FF7B681B681B6903F08003802B56
:10271C000ED17B681B68DB6803F08003802B07D12C
:10272C007B681B686FF080021A61786800F067FAAA
:10273C007B681B681B6903F04003402B0ED17B6840
:10274C001B68DB6803F04003402B07D17B681B68D8
:10275C006FF040021A61786800F0F9F87B681B682A
:10276C001B6903F02003202B0ED17B681B68DB68F0
:10277C0003F02003202B07D17B681B686FF020022D
:10278C001A61786800F032FA00BF0837BD4680BD88
:10279C0080B584B000AF786039607B6893F83C30CA
:1027AC00012B01D10223B3E07B68012283F83C208A
:1027BC007B68022283F83D207B681B689B68FB606A
:1027CC00FB6823F07703FB60FB6823F47F43FB601B
:1027DC007B681B68FA689A603B681B68B3F5005FFE
:1027EC003ED0B3F5005F00F28780B3F5805F00F058
:1027FC008580B3F5805F7FD8702B1AD0702B7BD877
:10280C00602B50D0602B77D8502B3CD0502B73D8EA
:10281C00402B58D0402B6FD8302B64D0302B6BD83A
:10282C00202B60D0202B67D8002B5CD0102B5AD0DB
:10283C0062E07B6818683B6899683B685A683B683B
:10284C00DB6800F05CF97B681B689B68FB60FB68CD
:10285C0043F07703FB607B681B68FA689A604EE074
:10286C007B6818683B6899683B685A683B68DB680A
:10287C0000F045F97B681B689A687B681B6842F41A
:10288C0080429A603BE07B6818683B6859683B68FB
:10289C00DB681A4600F0BCF87B681B6850211846B0
:1028AC0000F013F92BE07B6818683B6859683B68AB
:1028BC00DB681A4600F0DAF87B681B686021184662
:1028CC0000F003F91BE07B6818683B6859683B68AB
:1028DC00DB681A4600F09CF87B681B6840211846A0
:1028EC0000F0F3F80BE07B681A683B681B6819462C
:1028FC00104600F0EAF802E000BF00E000BF7B6881
:10290C00012283F83D207B68002283F83C200023C1
:10291C0018461037BD4680BD80B483B000AF7860D8
:10292C0000BF0C37BD4680BC704780B483B000AF8D
:10293C00786000BF0C37BD4680BC704780B483B054
:10294C0000AF786000BF0C37BD4680BC704780B4C8
:10295C0083B000AF786000BF0C37BD4680BC7047B9
:10296C0080B485B000AF786039607B681B68FB6011
:10297C007B68254A934207D07B68B3F1804F03D024
:10298C007B68224A934208D1FB6823F07003FB60FA
:10299C003B685B68FA681343FB607B681A4A934296
:1029AC0007D07B68B3F1804F03D07B68174A934202
:1029BC0008D1FB6823F44073FB603B68DB68FA6862
:1029CC001343FB60FB6823F080023B685B69134395
:1029DC00FB607B68FA681A603B689A687B68DA620D
:1029EC003B681A687B689A627B68074A934203D1FA
:1029FC003B681A697B681A637B6801225A6100BFC5
:102A0C001437BD4680BC7047002C014000040040C8
:102A1C0080B487B000AFF860B9607A60FB681B6A5D
:102A2C007B61FB681B6A23F00102FB681A62FB687E
:102A3C009B693B613B6923F0F0033B617B681B01A5
:102A4C003A6913433B617B6923F00A037B617A6922
:102A5C00BB6813437B61FB683A699A61FB687A69CE
:102A6C001A6200BF1C37BD4680BC704780B487B06B
:102A7C0000AFF860B9607A60FB681B6A23F0100243
:102A8C00FB681A62FB689B697B61FB681B6A3B6194
:102A9C007B6923F470437B617B681B037A69134366
:102AAC007B613B6923F0A0033B61BB681B013A6966
:102ABC0013433B61FB687A699A61FB683A691A6255
:102ACC0000BF1C37BD4680BC704780B485B000AFDA
:102ADC00786039607B689B68FB60FB6823F070034F
:102AEC00FB603A68FB68134343F00703FB607B68A9
:102AFC00FA689A6000BF1437BD4680BC704780B43A
:102B0C0087B000AFF860B9607A603B60FB689B6887
:102B1C007B617B6923F47F437B613B681A027B6892
:102B2C001A43BB6813437A6913437B61FB687A6968
:102B3C009A6000BF1C37BD4680BC704780B485B01E
:102B4C0000AF786039607B6893F83C30012B01D181
:102B5C00022341E07B68012283F83C207B6802223F
:102B6C0083F83D207B681B685B68FB607B681B6897
:102B7C009B68BB60FB6823F07003FB603B681B68C1
:102B8C00FA681343FB607B681B68FA685A607B68C1
:102B9C001B68144A934209D07B681B68B3F1804FC1
:102BAC0004D07B681B68104A93420CD1BB6823F09D
:102BBC008003BB603B685B68BA681343BB607B688F
:102BCC001B68BA689A607B68012283F83D207B6899
:102BDC00002283F83C20002318461437BD4680BCE5
:102BEC00704700BF002C01400004004080B483B04B
:102BFC0000AF786000BF0C37BD4680BC704780B416
:102C0C0083B000AF786000BF0C37BD4680BC704706
:102C1C0070B500260C4D0D4C641BA410A64209D1B6
:102C2C0000F022F800260A4D0A4C641BA410A642A0
:102C3C0005D170BD55F8043B98470136EEE755F8C1
:102C4C00043B98470136F2E7AC2C0008AC2C00088A
:102C5C00AC2C0008B02C000803460244934200D16F
:102C6C00704703F8011BF9E7F8B500BFF8BC08BCC6
:102C7C009E467047F8B500BFF8BC08BC9E4670472E
:102C8C0002030405060708090A0B0C0D0E0F1010A1
:102C9C000000000000000000010203040607080900
:042CAC0031010008EA
:042CB0000D0100080A
:102CB400F40100002C010000C8000000F401000031
:102CC4002C010000C80000000024F40010000000E3
:042CD40001000000FB
:0400000508001605D4
:00000001FF
