:020000040800F2
:1000000000280020C10A0008510A0008570A000809
:100010005D0A0008630A0008690A00080000000081
:100020000000000000000000000000006F0A00084F
:100030007B0A000800000000870A0008930A0008F5
:10004000090B0008090B0008090B0008090B000840
:10005000090B0008090B0008090B0008090B000830
:10006000090B0008090B0008090B0008090B000820
:10007000090B0008090B0008090B0008090B000810
:10008000090B0008090B0008090B0008090B000800
:10009000090B0008090B0008090B0008090B0008F0
:1000A000090B0008090B0008090B0008090B0008E0
:1000B000A10A0008090B000800000000090B000855
:1000C000090B00080000000000000000090B0008F8
:1000D00000000000090B0008090B000800000000E8
:1000E000090B0008090B0008090B000800000000BC
:1000F0000000000000000000000000000000000000
:0C01000000000000000000005FF808F1A3
:10010C0010B5054C237833B9044B13B10448AFF345
:10011C0000800123237010BD480000200000000067
:10012C006421000808B5034B1BB103490348AFF326
:10013C00008008BD000000004C0000206421000875
:10014C0080B483B000AF7860094A7B6852F82330E2
:10015C00012B06D1064A7B68002142F823100123AB
:10016C0000E0002318460C37BD4680BC704700BF2A
:10017C006400002080B582B000AF00237B6087E074
:10018C00494A7B6852F8232048497B6841F8232070
:10019C00474A7B6852F8232043497B6841F8232067
:1001AC007B68022B21D07B68022B2ADC7B68002B1E
:1001BC0003D07B68012B0CD023E04FF400513D4859
:1001CC0000F08AFF03461946394A7B6842F823102F
:1001DC0017E04FF48041374800F07EFF0346194684
:1001EC00334A7B6842F823100BE04FF4004131484E
:1001FC0000F072FF034619462D4A7B6842F8231023
:10020C0000BF294A7B6852F8232029497B6851F8A2
:10021C0023309A4239D1244A7B6852F8232023494F
:10022C007B6851F823309A422FD1204A7B6852F8D0
:10023C00232021497B6851F823309A4217D01B4A5E
:10024C007B6852F823201C497B6841F823201A4A0A
:10025C007B6852F82330002B17D1184A7B68012198
:10026C0042F82310164B4FF496721A600DE0144BA3
:10027C001B68013B124A1360114B1B68002B04D105
:10028C000D4A7B68012142F823107B6801337B60A7
:10029C000C4B1B687A689A42FFF672AF00BF00BF26
:1002AC000837BD4680BD00BF100000201C00002098
:1002BC0004000020001001402800002064000020F1
:1002CC00340000200000002080B582B000AF7860C0
:1002DC007B681B68DBB21A4601211E4800F013FF35
:1002EC007B6804331B68DBB21A460221194800F004
:1002FC000AFF7B6808331B68DBB21A4604211548D9
:10030C0000F001FF7B680C331B68DBB21A46082136
:10031C00104800F0F8FE7B6810331B68DBB21A46FD
:10032C0010210C4800F0EFFE7B6814331B68DBB225
:10033C001A462021074800F0E6FE7B6818331B683C
:10034C00DBB21A464021034800F0DDFE00BF08373F
:10035C00BD4680BD000C0140B0B5D0B000AF07F574
:10036C00A073A3F59E73186007F5A073A3F59E7395
:10037C001B68092B00F2ED8001A252F823F000BF9C
:10038C00B5030008EB0300080B0400082B0400085D
:10039C004B0400086B0400088B040008BF04000821
:1003AC00DF040008FF0400080023C7F824310023F1
:1003BC00C7F828310023C7F82C310023C7F8303197
:1003CC000023C7F834310023C7F838310123C7F8AC
:1003DC003C3107F592731846FFF776FFE9E0774B4F
:1003EC0007F584741D460FCD0FC495E8070084E80B
:1003FC00070007F584731846FFF766FFD9E0704BCA
:10040C0007F1EC041D460FCD0FC495E8070084E8F6
:10041C00070007F1EC031846FFF756FFC9E0694BDC
:10042C0007F1D0041D460FCD0FC495E8070084E8F2
:10043C00070007F1D0031846FFF746FFB9E0624BFF
:10044C0007F1B4041D460FCD0FC495E8070084E8EE
:10045C00070007F1B4031846FFF736FFA9E05B4B22
:10046C0007F198041D460FCD0FC495E8070084E8EA
:10047C00070007F198031846FFF726FF99E00023C1
:10048C00FB670123C7F880300023C7F884300023B2
:10049C00C7F888300023C7F88C300023C7F8903099
:1004AC000023C7F8943007F17C031846FFF70CFFC4
:1004BC007FE0474B07F160041D460FCD0FC495E854
:1004CC00070084E8070007F160031846FFF7FCFEFD
:1004DC006FE007F1440300221A605A609A60DA60F8
:1004EC001A615A619A6107F144031846FFF7ECFE52
:1004FC005FE007F5A073A3F58C7300221A6007F573
:10050C00A073A3F58C7300225A6007F5A073A3F5B2
:10051C008C7300229A6007F5A073A3F58C730022EC
:10052C00DA6007F5A073A3F58C7301221A6107F545
:10053C00A073A3F58C7300225A6107F5A073A3F581
:10054C008C7300229A6107F128031846FFF7BCFE52
:10055C002FE007F5A073A3F59A7300221A6007F534
:10056C00A073A3F59A7300225A6007F5A073A3F544
:10057C009A7300229A6007F5A073A3F59A73002270
:10058C00DA6007F5A073A3F59A7300221A6107F5D8
:10059C00A073A3F59A7300225A6107F5A073A3F513
:1005AC009A7301229A6107F10C031846FFF78CFE2F
:1005BC0000BF00BF07F5A077BD46B0BD7C21000889
:1005CC0098210008B4210008D0210008EC21000873
:1005DC000822000880B500AF114B1B681846FFF7C6
:1005EC00BBFE104B1B68012B17D14FF47A7000F037
:1005FC009FF920210C4800F09EFD0C4B1B68002B32
:10060C000BD1074B1B68013B054A1360044B1B685D
:10061C00002B02D1054B01221A6000BF80BD00BF28
:10062C0038000020C40000200008014070000020A9
:10063C0080B500AF0020FFF783FD0346012B14D1DA
:10064C00264B1B68012B06D1254B06221A60234B27
:10065C0000221A6005E0224B00221A601F4B012277
:10066C001A6042F2107000F063F90120FFF768FD88
:10067C000346012B0FD11A4B1B680133184A136028
:10068C00174B1B68092B02DD154B00221A6042F236
:10069C00107000F04DF90220FFF752FD0346012BBC
:1006AC001AD10E4B1B68012B06D10D4B06221A607A
:1006BC000A4B00221A600BE0094B1B68013B084AED
:1006CC001360074B1B68002B02DA054B09221A60DA
:1006DC0042F2107000F02CF900BF80BD70000020B9
:1006EC003800002080B500AF00F00AFA00F018F8CE
:1006FC0000F09EF800F050F8074801F06DF9074B38
:10070C0006221A604FF47A7000F012F9FFF790FF8E
:10071C00FFF760FFFAE700BF7400002038000020EC
:10072C0080B590B000AF07F11803282200211846BD
:10073C0001F00AFD3B1D00221A605A609A60DA60D3
:10074C001A610223BB610123BB621023FB620023ED
:10075C007B6307F11803184600F006FD0346002BD7
:10076C0001D000F0DFF80F237B600023BB60002377
:10077C00FB6000233B6100237B613B1D002118467D
:10078C0000F074FF0346002B01D000F0CBF800BF43
:10079C004037BD4680BD000080B586B000AF07F184
:1007AC00080300221A605A609A60DA603B46002205
:1007BC001A605A601D4B4FF080421A601B4B41F679
:1007CC003F725A60194B00229A60184B0922DA606A
:1007DC00164B00221A61154B00229A61134801F046
:1007EC00ABF80346002B01D000F09CF84FF480537B
:1007FC00BB6007F1080319460C4801F041FA0346A7
:10080C00002B01D000F08EF800233B6000237B60AE
:10081C003B461946054801F009FC0346002B01D064
:10082C0000F080F800BF1837BD4680BD7400002072
:10083C0080B588B000AF07F1100300221A605A602F
:10084C009A60DA602D4B9B692C4A43F0100393613C
:10085C002A4B9B6903F01003FB60FB68274B9B69D9
:10086C00264A43F004039361244B9B6903F0040371
:10087C00BB60BB68214B9B69204A43F00803936122
:10088C001E4B9B6903F008037B607B6800222021D0
:10089C001B4800F038FC00227F211A4800F033FC82
:1008AC004FF460433B6100237B610123BB6107F183
:1008BC0010031946144800F093FA20233B610123DE
:1008CC007B610023BB610223FB6107F11003194616
:1008DC000B4800F085FA7F233B6101237B610023E9
:1008EC00BB610223FB6107F110031946054800F0B8
:1008FC0077FA00BF2037BD4680BD00BF0010024014
:10090C0000080140000C01400010014080B582B08D
:10091C0000AF786000F022F8FFF72CFC00BF08371E
:10092C00BD4680BD80B400AF72B600BFFEE70000CC
:10093C0080B483B000AF78600A227B6893FBF2F33B
:10094C00044A1360044B00221A6000BF0C37BD46EA
:10095C0080BC7047BC000020C400002080B400AFF5
:10096C00114B1B68002B0BDD0F4B1B68013B0E4A18
:10097C0013600D4B1B68002B02DC0C4B01221A6020
:10098C000B4B1B68002B0BDD094B1B68013B084A0A
:10099C001360074B1B68002B02DC064B01221A600C
:1009AC0000BFBD4680BC7047BC000020C4000020C6
:1009BC00C0000020C800002080B483B000AF0E4BF4
:1009CC009B690D4A43F0010393610B4B9B6903F048
:1009DC0001037B607B68084BDB69074A43F080535B
:1009EC00D361054BDB6903F080533B603B6800BF70
:1009FC000C37BD4680BC70470010024080B584B0F7
:100A0C0000AF78607B681B68B3F1804F13D10C4B3F
:100A1C00DB690B4A43F00103D361094BDB6903F03B
:100A2C000103FB60FB68002200211C2000F0A1F9EF
:100A3C001C2000F0BAF900BF1037BD4680BD00BFC6
:100A4C000010024080B400AFFEE780B400AFFEE7B8
:100A5C0080B400AFFEE780B400AFFEE780B400AF17
:100A6C00FEE780B400AF00BFBD4680BC704780B4C9
:100A7C0000AF00BFBD4680BC704780B400AF00BF64
:100A8C00BD4680BC704780B500AF00F07FF800BF5A
:100A9C0080BD000080B500AF024800F0E9FF00BF48
:100AAC0080BD00BF7400002080B400AF00BFBD4605
:100ABC0080BC70470C480D490D4A002302E0D45805
:100ACC00C4500433C4188C42F9D30A4A0A4C00238C
:100ADC0001E013600432A242FBD3FFF7E5FF01F003
:100AEC000FFBFFF7FFFD70470000002048000020BF
:100AFC004C22000848000020D0000020FEE7000037
:100B0C0080B500AF084B1B68074A43F01003136015
:100B1C00032000F023F90F2000F008F8FFF74CFF3A
:100B2C000023184680BD00BF0020024080B582B073
:100B3C0000AF7860124B1A68124B1B7819464FF4B1
:100B4C007A73B3FBF1F3B2FBF3F3184600F03BF905
:100B5C000346002B01D001230EE07B680F2B0AD833
:100B6C00002279684FF0FF3000F003F9064A7B68E9
:100B7C001360002300E0012318460837BD4680BDF2
:100B8C003C000020440000204000002080B400AF56
:100B9C00054B1B781A46054B1B681344034A13601C
:100BAC0000BFBD4680BC704744000020CC00002034
:100BBC0080B400AF024B1B681846BD4680BC704722
:100BCC00CC00002080B485B000AF78607B6803F067
:100BDC000703FB600C4BDB68BB60BA684FF6FF0386
:100BEC001340BB60FB681A02BB68134343F0BF633E
:100BFC0043F40033BB60044ABB68D36000BF1437B6
:100C0C00BD4680BC704700BF00ED00E080B400AF73
:100C1C00044BDB681B0A03F007031846BD4680BC77
:100C2C00704700BF00ED00E080B483B000AF034616
:100C3C00FB7197F90730002B0BDBFB7903F01F02DC
:100C4C00064997F907305B09012000FA02F241F8D6
:100C5C00232000BF0C37BD4680BC704700E100E08C
:100C6C0080B483B000AF03463960FB7197F907304D
:100C7C00002B0ADB3B68DAB20C4997F907301201FA
:100C8C00D2B20B4483F800230AE03B68DAB208497D
:100C9C00FB7903F00F03043B1201D2B20B441A761A
:100CAC0000BF0C37BD4680BC704700BF00E100E0C0
:100CBC0000ED00E080B489B000AFF860B9607A60F4
:100CCC00FB6803F00703FB61FB69C3F10703042B0B
:100CDC0028BF0423BB61FB690433062B02D9FB69D3
:100CEC00033B00E000237B614FF0FF32BB6902FA4B
:100CFC0003F3DA43BB681A407B699A404FF0FF312B
:100D0C007B6901FA03F3D9437B680B401343184604
:100D1C002437BD4680BC704780B582B000AF786088
:100D2C007B68013BB3F1807F01D301230FE00A4ABA
:100D3C007B68013B53600F214FF0FF30FFF790FFB2
:100D4C00054B00229A60044B07221A6000231846B8
:100D5C000837BD4680BD00BF10E000E080B582B012
:100D6C0000AF78607868FFF72DFF00BF0837BD46ED
:100D7C0080BD80B586B000AF0346B9607A60FB7366
:100D8C0000237B61FFF742FF78617A68B968786964
:100D9C00FFF790FF024697F90F3011461846FFF700
:100DAC005FFF00BF1837BD4680BD80B582B000AF75
:100DBC000346FB7197F907301846FFF735FF00BF64
:100DCC000837BD4680BD80B582B000AF78607868CA
:100DDC00FFF7A2FF034618460837BD4680BD00004A
:100DEC0080B48BB000AF7860396000237B62002345
:100DFC003B6261E101227B6A02FA03F3FB613B680F
:100E0C001B68FA691340BB61BA69FB699A4240F0EE
:100E1C0050813B685B68974A93425ED0954A9342F7
:100E2C0075D8954A934258D0934A93426FD8934AB7
:100E3C00934252D0914A934269D8914A93424CD0F2
:100E4C008F4A934263D88F4A934246D08D4A93423D
:100E5C005DD8122B2AD8122B59D801A252F823F0A4
:100E6C00E70E0008C10E0008D30E0008150F00088D
:100E7C001B0F00081B0F00081B0F00081B0F00089E
:100E8C001B0F00081B0F00081B0F00081B0F00088E
:100E9C001B0F00081B0F00081B0F00081B0F00087E
:100EAC001B0F0008C90E0008DD0E0008764A93429D
:100EBC0013D02CE03B68DB683B6229E03B68DB68C5
:100ECC0004333B6224E03B68DB6808333B621FE081
:100EDC003B68DB680C333B621AE03B689B68002B79
:100EEC0002D104233B6213E03B689B68012B05D1C4
:100EFC0008233B627B68FA691A6109E008233B62AC
:100F0C007B68FA695A6103E000233B6200E000BF92
:100F1C00BB69FF2B01D87B6801E07B6804337B61E4
:100F2C00BB69FF2B02D87B6A9B0002E07B6A083B03
:100F3C009B003B617B691A680F213B6901FA03F343
:100F4C00DB431A40396A3B6901FA03F31A437B69A4
:100F5C001A603B685B6803F08053002B00F0A9809B
:100F6C004A4B9B69494A43F001039361474B9B6988
:100F7C0003F00103BB60BB68454A7B6A9B080233E4
:100F8C0052F82330FB607B6A03F003039B000F22B3
:100F9C0002FA03F3DB43FA681340FB607B683D4ABB
:100FAC0093420DD07B683C4A934207D07B683B4A06
:100FBC00934201D1022304E0032302E0012300E069
:100FCC0000237A6A02F0030292009340FA681343FA
:100FDC00FB602F497B6A9B080233FA6841F8232097
:100FEC003B685B6803F48033002B06D02C4B1A68EB
:100FFC002B49BB6913430B6006E0294B1A68BB698C
:10100C00DB43274913400B603B685B6803F40033F8
:10101C00002B06D0224B5A682149BB6913434B6005
:10102C0006E01F4B5A68BB69DB431D4913404B60FC
:10103C003B685B6803F48013002B06D0184B9A684E
:10104C001749BB6913438B6006E0154B9A68BB6963
:10105C00DB43134913408B603B685B6803F400135C
:10106C00002B1FD00E4BDA680D49BB691343CB60C4
:10107C001FE000BF000032100000311000002210F1
:10108C00000021100000121000001110001002408E
:10109C000000014000080140000C0140001001401C
:1010AC00000401400B4BDA68BB69DB430949134070
:1010BC00CB607B6A01337B623B681A687B6A22FADD
:1010CC0003F3002B7FF496AE00BF00BF2C37BD4658
:1010DC0080BC70470004014080B485B000AF7860DC
:1010EC000B467B807B689A687B881340002B02D070
:1010FC000123FB7301E00023FB73FB7B18461437C1
:10110C00BD4680BC704780B483B000AF78600B469E
:10111C007B8013467B707B78002B03D07A887B68AE
:10112C001A6103E07B881A047B681A6100BF0C37D4
:10113C00BD4680BC704780B485B000AF78600B466C
:10114C007B807B68DB68FB607A88FB6813401A0441
:10115C00FB68D9437B880B401A437B681A6100BF3C
:10116C001437BD4680BC704780B586B000AF786040
:10117C007B68002B01D1012372E27B681B6803F0B2
:10118C000103002B00F08780924B5B6803F00C038B
:10119C00042B0CD08F4B5B6803F00C03082B12D183
:1011AC008C4B5B6803F48033B3F5803F0BD1894BD8
:1011BC001B6803F40033002B6CD07B685B68002B3E
:1011CC0068D101234CE27B685B68B3F5803F06D1A4
:1011DC00804B1B687F4A43F4803313602EE07B689E
:1011EC005B68002B0CD17B4B1B687A4A23F4803351
:1011FC001360784B1B68774A23F4802313601DE03F
:10120C007B685B68B3F5A02F0CD1724B1B68714ADD
:10121C0043F4802313606F4B1B686E4A43F4803396
:10122C0013600BE06B4B1B686A4A23F4803313602A
:10123C00684B1B68674A23F4802313607B685B68E8
:10124C00002B13D0FFF7B4FC386108E0FFF7B0FCBB
:10125C0002463B69D31A642B01D9032300E25D4B90
:10126C001B6803F40033002BF0D014E0FFF7A0FC54
:10127C00386108E0FFF79CFC02463B69D31A642BEB
:10128C0001D90323ECE1534B1B6803F40033002B0F
:10129C00F0D100E000BF7B681B6803F00203002B59
:1012AC0063D04C4B5B6803F00C03002B0BD0494B09
:1012BC005B6803F00C03082B1CD1464B5B6803F4F2
:1012CC008033002B16D1434B1B6803F00203002B19
:1012DC0005D07B681B69012B01D00123C0E13D4B7C
:1012EC001B6823F0F8027B685B69DB003949134308
:1012FC000B603AE07B681B69002B20D0364B012237
:10130C001A60FFF755FC386108E0FFF751FC024604
:10131C003B69D31A022B01D90323A1E12D4B1B6886
:10132C0003F00203002BF0D02A4B1B6823F0F802C9
:10133C007B685B69DB00274913430B6015E0264B88
:10134C0000221A60FFF734FC386108E0FFF730FC2C
:10135C0002463B69D31A022B01D9032380E11D4BB2
:10136C001B6803F00203002BF0D17B681B6803F0B1
:10137C000803002B3AD07B689B69002B19D0174BC4
:10138C0001221A60FFF714FC386108E0FFF710FC2B
:10139C0002463B69D31A022B01D9032360E10D4BA2
:1013AC005B6A03F00203002BF0D0012000F0A6FAD8
:1013BC001CE00A4B00221A60FFF7FAFB38610FE0C1
:1013CC00FFF7F6FB02463B69D31A022B08D903231D
:1013DC0046E100BF0010024000004242800442423D
:1013EC00924B5B6A03F00203002BE9D17B681B680C
:1013FC0003F00403002B00F0A6800023FB758B4B3D
:10140C00DB6903F08053002B0DD1884BDB69874AD5
:10141C0043F08053D361854BDB6903F08053BB6091
:10142C00BB680123FB75824B1B6803F48073002B94
:10143C0018D17F4B1B687E4A43F480731360FFF70F
:10144C00B7FB386108E0FFF7B3FB02463B69D31AE0
:10145C00642B01D9032303E1754B1B6803F48073E0
:10146C00002BF0D07B68DB68012B06D16F4B1B6A1D
:10147C006E4A43F0010313622DE07B68DB68002B9E
:10148C000CD16A4B1B6A694A23F001031362674B48
:10149C001B6A664A23F0040313621CE07B68DB685A
:1014AC00052B0CD1614B1B6A604A43F00403136299
:1014BC005E4B1B6A5D4A43F0010313620BE05B4B0E
:1014CC001B6A5A4A23F001031362584B1B6A574A92
:1014DC0023F0040313627B68DB68002B15D0FFF745
:1014EC0067FB38610AE0FFF763FB02463B69D31ADE
:1014FC0041F28832934201D90323B1E04B4B1B6A72
:10150C0003F00203002BEED014E0FFF751FB38611F
:10151C000AE0FFF74DFB02463B69D31A41F28832D1
:10152C00934201D903239BE0404B1B6A03F0020357
:10153C00002BEED1FB7D012B05D13C4BDB693B4AEB
:10154C0023F08053D3617B68DB69002B00F087802C
:10155C00364B5B6803F00C03082B61D07B68DB69AE
:10156C00022B46D1334B00221A60FFF721FB386166
:10157C0008E0FFF71DFB02463B69D31A022B01D989
:10158C0003236DE0294B1B6803F00073002BF0D193
:10159C007B681B6AB3F5803F08D1244B5B6823F44E
:1015AC0000327B689B68214913434B601F4B5B687F
:1015BC0023F474127B68196A7B685B6A0B431B49C2
:1015CC0013434B601B4B01221A60FFF7F1FA386191
:1015DC0008E0FFF7EDFA02463B69D31A022B01D95A
:1015EC0003233DE0114B1B6803F00073002BF0D07C
:1015FC0035E0104B00221A60FFF7DAFA386108E088
:10160C00FFF7D6FA02463B69D31A022B01D9032302
:10161C0026E0064B1B6803F00073002BF0D11EE094
:10162C007B68DB69012B07D1012319E00010024014
:10163C0000700040600042420B4B5B68FB60FB6833
:10164C0003F480327B681B6A9A4206D1FB6803F470
:10165C0070127B685B6A9A4201D0012300E0002380
:10166C0018461837BD4680BD0010024080B584B0C6
:10167C0000AF786039607B68002B01D10123D0E08A
:10168C006A4B1B6803F007033A689A4210D9674B00
:10169C001B6823F0070265493B6813430B60634BDF
:1016AC001B6803F007033A689A4201D00123B8E0A3
:1016BC007B681B6803F00203002B20D07B681B683F
:1016CC0003F00403002B05D0594B5B68584A43F4D4
:1016DC00E06353607B681B6803F00803002B05D0A4
:1016EC00534B5B68524A43F460535360504B5B68F6
:1016FC0023F0F0027B689B684D4913434B607B6879
:10170C001B6803F00103002B40D07B685B68012B46
:10171C0007D1474B1B6803F40033002B15D1012371
:10172C007FE07B685B68022B07D1414B1B6803F0A1
:10173C000073002B09D1012373E03D4B1B6803F0B0
:10174C000203002B01D101236BE0394B5B6823F0C2
:10175C0003027B685B68364913434B60FFF728FA3A
:10176C00F8600AE0FFF724FA0246FB68D31A41F24C
:10177C008832934201D9032353E02D4B5B6803F06D
:10178C000C027B685B689B009A42EBD1274B1B6871
:10179C0003F007033A689A4210D2244B1B6823F0DB
:1017AC00070222493B6813430B60204B1B6803F074
:1017BC0007033A689A4201D0012332E07B681B6828
:1017CC0003F00403002B08D0194B5B6823F4E06290
:1017DC007B68DB68164913434B607B681B6803F01E
:1017EC000803002B09D0124B5B6823F460527B6812
:1017FC001B69DB000E4913434B6000F021F80246D5
:10180C000B4B5B681B0903F00F030A49CB5C22FAF4
:10181C0003F3094A1360094B1B681846FFF786F956
:10182C00002318461037BD4680BD00BF0020024083
:10183C0000100240342200083C0000204000002030
:10184C0090B48AB000AF294B3C1D0FCB84E80F003D
:10185C0040F201233B800023FB610023BB6100238A
:10186C007B6200237B6100233B62214B5B68FB6145
:10187C00FB6903F00C03042B02D0082B03D02BE0E4
:10188C001C4B3B622BE0FB699B0C03F00F032833D2
:10189C003B4413F8243C7B61FB6903F48033002B3D
:1018AC0012D0134B5B685B0C03F0010328333B44F1
:1018BC0013F8283CBB617B690E4A03FB02F2BB693F
:1018CC00B2FBF3F37B6204E07B690B4A02FB03F38C
:1018DC007B627B6A3B6202E0064B3B6200BF3B6A69
:1018EC0018462837BD4690BC704700BF242200081C
:1018FC000010024000127A0000093D0080B485B04F
:10190C0000AF78600A4B1B680A4AA2FB03235B0AF0
:10191C007A6802FB03F3FB6000BFFB685A1EFA6097
:10192C00002BF9D100BF00BF1437BD4680BC7047F7
:10193C003C000020D34D621080B582B000AF7860BF
:10194C007B68002B01D1012341E07B6893F83D308B
:10195C00DBB2002B06D17B68002283F83C20786830
:10196C00FFF74CF87B68022283F83D207B681A68ED
:10197C007B6804331946104600F06AFA7B68012232
:10198C0083F846207B68012283F83E207B68012285
:10199C0083F83F207B68012283F840207B6801227A
:1019AC0083F841207B68012283F842207B68012266
:1019BC0083F843207B68012283F844207B68012252
:1019CC0083F845207B68012283F83D2000231846CC
:1019DC000837BD4680BD000080B485B000AF78608C
:1019EC007B6893F83D30DBB2012B01D0012335E04D
:1019FC007B68022283F83D207B681B68DA687B6871
:101A0C001B6842F00102DA607B681B68164A93423D
:101A1C0009D07B681B68B3F1804F04D07B681B68CE
:101A2C00124A934211D17B681B689B6803F0070331
:101A3C00FB60FB68062B10D07B681B681A687B6800
:101A4C001B6842F001021A6007E07B681B681A6889
:101A5C007B681B6842F001021A6000231846143799
:101A6C00BD4680BC704700BF002C01400004004004
:101A7C0080B582B000AF78607B681B681B6903F08F
:101A8C000203022B22D17B681B68DB6803F0020384
:101A9C00022B1BD17B681B686FF002021A617B68FA
:101AAC0001221A777B681B689B6903F00303002BE8
:101ABC0003D0786800F0B1F905E0786800F0A4F97B
:101ACC00786800F0B3F97B6800221A777B681B6892
:101ADC001B6903F00403042B22D17B681B68DB68B1
:101AEC0003F00403042B1BD17B681B686FF004020A
:101AFC001A617B6802221A777B681B689B6903F466
:101B0C004073002B03D0786800F087F905E0786803
:101B1C0000F07AF9786800F089F97B6800221A776E
:101B2C007B681B681B6903F00803082B22D17B68B8
:101B3C001B68DB6803F00803082B1BD17B681B6850
:101B4C006FF008021A617B6804221A777B681B68A5
:101B5C00DB6903F00303002B03D0786800F05DF918
:101B6C0005E0786800F050F9786800F05FF97B6860
:101B7C0000221A777B681B681B6903F01003102B7B
:101B8C0022D17B681B68DB6803F01003102B1BD180
:101B9C007B681B686FF010021A617B6808221A7749
:101BAC007B681B68DB6903F44073002B03D07868F7
:101BBC0000F033F905E0786800F026F9786800F059
:101BCC0035F97B6800221A777B681B681B6903F068
:101BDC000103012B0ED17B681B68DB6803F001034A
:101BEC00012B07D17B681B686FF001021A617868C2
:101BFC00FEF78CFE7B681B681B6903F08003802B4F
:101C0C000ED17B681B68DB6803F08003802B07D147
:101C1C007B681B686FF080021A61786800F067FAC5
:101C2C007B681B681B6903F04003402B0ED17B685B
:101C3C001B68DB6803F04003402B07D17B681B68F3
:101C4C006FF040021A61786800F0F9F87B681B6845
:101C5C001B6903F02003202B0ED17B681B68DB680B
:101C6C0003F02003202B07D17B681B686FF0200248
:101C7C001A61786800F032FA00BF0837BD4680BDA3
:101C8C0080B584B000AF786039607B6893F83C30E5
:101C9C00012B01D10223B3E07B68012283F83C20A5
:101CAC007B68022283F83D207B681B689B68FB6085
:101CBC00FB6823F07703FB60FB6823F47F43FB6036
:101CCC007B681B68FA689A603B681B68B3F5005F19
:101CDC003ED0B3F5005F00F28780B3F5805F00F073
:101CEC008580B3F5805F7FD8702B1AD0702B7BD892
:101CFC00602B50D0602B77D8502B3CD0502B73D806
:101D0C00402B58D0402B6FD8302B64D0302B6BD855
:101D1C00202B60D0202B67D8002B5CD0102B5AD0F6
:101D2C0062E07B6818683B6899683B685A683B6856
:101D3C00DB6800F05CF97B681B689B68FB60FB68E8
:101D4C0043F07703FB607B681B68FA689A604EE08F
:101D5C007B6818683B6899683B685A683B68DB6825
:101D6C0000F045F97B681B689A687B681B6842F435
:101D7C0080429A603BE07B6818683B6859683B6816
:101D8C00DB681A4600F0BCF87B681B6850211846CB
:101D9C0000F013F92BE07B6818683B6859683B68C6
:101DAC00DB681A4600F0DAF87B681B68602118467D
:101DBC0000F003F91BE07B6818683B6859683B68C6
:101DCC00DB681A4600F09CF87B681B6840211846BB
:101DDC0000F0F3F80BE07B681A683B681B68194647
:101DEC00104600F0EAF802E000BF00E000BF7B689C
:101DFC00012283F83D207B68002283F83C200023DD
:101E0C0018461037BD4680BD80B483B000AF7860F3
:101E1C0000BF0C37BD4680BC704780B483B000AFA8
:101E2C00786000BF0C37BD4680BC704780B483B06F
:101E3C0000AF786000BF0C37BD4680BC704780B4E3
:101E4C0083B000AF786000BF0C37BD4680BC7047D4
:101E5C0080B485B000AF786039607B681B68FB602C
:101E6C007B68254A934207D07B68B3F1804F03D03F
:101E7C007B68224A934208D1FB6823F07003FB6015
:101E8C003B685B68FA681343FB607B681A4A9342B1
:101E9C0007D07B68B3F1804F03D07B68174A93421D
:101EAC0008D1FB6823F44073FB603B68DB68FA687D
:101EBC001343FB60FB6823F080023B685B691343B0
:101ECC00FB607B68FA681A603B689A687B68DA6228
:101EDC003B681A687B689A627B68074A934203D115
:101EEC003B681A697B681A637B6801225A6100BFE0
:101EFC001437BD4680BC7047002C014000040040E4
:101F0C0080B487B000AFF860B9607A60FB681B6A78
:101F1C007B61FB681B6A23F00102FB681A62FB6899
:101F2C009B693B613B6923F0F0033B617B681B01C0
:101F3C003A6913433B617B6923F00A037B617A693D
:101F4C00BB6813437B61FB683A699A61FB687A69E9
:101F5C001A6200BF1C37BD4680BC704780B487B086
:101F6C0000AFF860B9607A60FB681B6A23F010025E
:101F7C00FB681A62FB689B697B61FB681B6A3B61AF
:101F8C007B6923F470437B617B681B037A69134381
:101F9C007B613B6923F0A0033B61BB681B013A6981
:101FAC0013433B61FB687A699A61FB683A691A6270
:101FBC0000BF1C37BD4680BC704780B485B000AFF5
:101FCC00786039607B689B68FB60FB6823F070036A
:101FDC00FB603A68FB68134343F00703FB607B68C4
:101FEC00FA689A6000BF1437BD4680BC704780B455
:101FFC0087B000AFF860B9607A603B60FB689B68A3
:10200C007B617B6923F47F437B613B681A027B68AD
:10201C001A43BB6813437A6913437B61FB687A6983
:10202C009A6000BF1C37BD4680BC704780B485B039
:10203C0000AF786039607B6893F83C30012B01D19C
:10204C00022341E07B68012283F83C207B6802225A
:10205C0083F83D207B681B685B68FB607B681B68B2
:10206C009B68BB60FB6823F07003FB603B681B68DC
:10207C00FA681343FB607B681B68FA685A607B68DC
:10208C001B68144A934209D07B681B68B3F1804FDC
:10209C0004D07B681B68104A93420CD1BB6823F0B8
:1020AC008003BB603B685B68BA681343BB607B68AA
:1020BC001B68BA689A607B68012283F83D207B68B4
:1020CC00002283F83C20002318461437BD4680BC00
:1020DC00704700BF002C01400004004080B483B066
:1020EC0000AF786000BF0C37BD4680BC704780B431
:1020FC0083B000AF786000BF0C37BD4680BC704722
:10210C0070B500260C4D0D4C641BA410A64209D1D1
:10211C0000F022F800260A4D0A4C641BA410A642BB
:10212C0005D170BD55F8043B98470136EEE755F8DC
:10213C00043B98470136F2E7442200084422000889
:10214C00442200084822000803460244934200D16E
:10215C00704703F8011BF9E7F8B500BFF8BC08BCE1
:10216C009E467047F8B500BFF8BC08BC9E46704749
:10217C000100000000000000000000000100000051
:10218C000100000001000000010000000000000040
:10219C000000000001000000000000000000000032
:1021AC000100000000000000000000000000000022
:1021BC000000000000000000010000000100000011
:1021CC000000000001000000000000000000000002
:1021DC0001000000010000000000000000000000F1
:1021EC0000000000010000000000000000000000E2
:1021FC0001000000000000000000000000000000D2
:10220C0000000000000000000100000001000000C0
:10221C000100000001000000020304050607080984
:10222C000A0B0C0D0E0F1010000000000000000037
:08223C00010203040607080972
:04224400310100085C
:042248000D0100087C
:10224C00030000000100000001000000010000007C
:10225C00010000000100000001000000010000006E
:10226C00010000000100000001000000010000005E
:10227C00010000002C010000090000000024F40003
:08228C00100000000100000039
:0400000508000AC124
:00000001FF
