:020000040800F2
:1000000000280020590300083503000837030008C2
:10001000390300083B0300083D030008000000000E
:100020000000000000000000000000003F03000886
:1000300041030008000000004303000845030008D6
:10004000A1030008A1030008A1030008A103000800
:10005000A1030008A1030008A1030008A1030008F0
:10006000A1030008A1030008A1030008A1030008E0
:10007000A1030008A1030008A1030008A1030008D0
:10008000A1030008A1030008A1030008A1030008C0
:10009000A1030008A1030008A1030008A1030008B0
:1000A000A1030008A1030008A1030008A1030008A0
:1000B00049030008A103000800000000A103000894
:1000C000A10300080000000000000000A1030008D8
:1000D00000000000A1030008A103000800000000C8
:1000E000A1030008A1030008A1030008000000000C
:1000F0000000000000000000000000000000000000
:0C01000000000000000000005FF808F1A3
:10010C0010B5054C237833B9044B13B10448AFF345
:10011C0000800123237010BD0C00002000000000A3
:10012C00E00F000808B5034B1BB103490348AFF3BC
:10013C00008008BD0000000010000020E00F000847
:10014C0000B591B02422002107A800F03BFF142237
:10015C00002101A800F036FF022301210693102391
:10016C0006A8CDE90A1300F0A3FA014608B172B64D
:10017C00FEE70F23CDE90300CDE90130059001A87E
:10018C0000F06CFC08B172B6FEE711B05DF804FB30
:10019C007FB500F025F9FFF7D3FF1022002102A84C
:1001AC0000F010FF41F63F724FF080412C4C0023C1
:1001BC00C4E9001209222046CDE90033C4E9032327
:1001CC00A360A36100F0E4FD08B172B6FEE74FF442
:1001DC008053204602A9029300F010FE08B172B6BB
:1001EC00FEE7CDE900006946204600F09BFE05467F
:1001FC0008B172B6FEE70146102202A800F0E2FE3A
:10020C00184B20219A69184842F004029A619B69A4
:10021C002A4603F004030093009B00F043FA2022CB
:10022C000123CDE90223022302A90F48059304956B
:10023C0000F062F9204600F0ADFC642000F01AF8E2
:10024C000A4E094C3568012D08D1642000F012F8D3
:10025C002A462021204600F025FAF3E70022F8E791
:10026C003000002000100240000801402C0000204B
:10027C0000F00AB80022024B1860024B1A6070475B
:10028C00280000202C000020054A1368002B05DDF7
:10029C00013B136013B90122024B1A60704700BF77
:1002AC00280000202C0000200E4B82B09A6942F0EE
:1002BC0001029A619A6902F001020092009ADA69CD
:1002CC0042F08052DA61DB69074A03F080530193F4
:1002DC00019B536823F0E06343F08063536002B0EA
:1002EC00704700BF0010024000000140036807B5D2
:1002FC00B3F1804F15D103F50433DA691C2042F0B9
:10030C000102DA610022DB69114603F0010301935B
:10031C00019B00F09BF81C2003B05DF804EB00F08F
:10032C00C7B803B05DF804FBFEE7FEE7FEE7FEE7A7
:10033C00FEE770477047704700F064B8014800F062
:10034C0053BC00BF30000020704700000C480D4922
:10035C000D4A002302E0D458C4500433C4188C4214
:10036C00F9D30A4A0A4C002301E013600432A2427A
:10037C00FBD3FFF7E9FF00F001FEFFF709FF704721
:10038C00000000200C000020241000080C000020AD
:10039C007C000020FEE7000038B50E4B05461878AF
:1003AC004FF47A73B3FBF0F30B4A1068B0FBF3F025
:1003BC0000F08CF8044658B90F2D09D8024629468E
:1003CC004FF0FF3000F042F82046044B1D6038BD62
:1003DC000120FCE7040000200000002008000020A1
:1003EC00074A08B51368032043F01003136000F0AC
:1003FC001BF80F20FFF7D0FFFFF756FF002008BDBA
:10040C0000200240034A044B11681B780B44136014
:10041C00704700BF7800002004000020014B1868D2
:10042C00704700BF7800002007490302CA6803F434
:10043C00E06322F4E0621204120C134343F0BF6336
:10044C0043F40033CB60704700ED00E0164B30B541
:10045C00DC68C4F30224C4F10703251D042B28BF58
:10046C000423062D4FF0FF3598BF002405FA03F343
:10047C0088BF033C21EA0303A34005FA04F422EAF3
:10048C000402002843EA0203ACBF00F16040074AB3
:10049C004FEA0313DBB2ABBF00F5614000F00F0075
:1004AC0080F80033135430BD00ED00E014ED00E093
:1004BC00002808DB0123420900F01F0003FA00F0BA
:1004CC00014B43F82200704700E100E00138B0F125
:1004DC00807F0AD2F021064B064A586082F823101E
:1004EC000020072298601A6070470120704700BFF7
:1004FC0010E000E000ED00E02DE9F74F0022164679
:10050C00604BDFF894C1DFF894E10D6835FA06F41E
:10051C0002D103B0BDE8F08F4FF0010808FA06F8DD
:10052C0005EA080438EA050578D14D68032D07D88B
:10053C00013D022D00F28280DFE805F091969C00CF
:10054C00122D00F094806BD8112D00F08A80FF2CB6
:10055C0098BF82464FF00F0988BF00F1040A4FEA9A
:10056C008605DAF8008088BF203D09FA05FB28EAE9
:10057C000B0802FA05F548EA0505CAF80050D1F84F
:10058C0004A01AF0805F49D03F4F26F00308BD69E4
:10059C0008F1804845F00105BD61BD6908F580385A
:1005AC0005F00105019506F0030B019D4FEA8B0B3D
:1005BC00D8F8085009FA0BF925EA0909334DA84275
:1005CC005CD005F58065A8425AD005F58065A84237
:1005DC000CBF0225032505FA0BF545EA0905C8F8F9
:1005EC0008501D681AF4803F14BF2543A5431D60B5
:1005FC005D681AF4003F14BF2543A5435D609D68F8
:10060C001AF4801F14BF2543A5439D60DD681AF4BE
:10061C00001F14BF2C4325EA0404DC60013674E788
:10062C001B4FBD420AD015D8754507D0DFF8709026
:10063C004D4503D0A9F580194D4588D18A68DAB1AA
:10064C00012A08BFC0F810804FF0080218BFC0F88C
:10065C0014807CE70F4FBD42F0D06545EDE7CA68CA
:10066C0075E7CA68043272E7CA6808326FE7CA686D
:10067C000C326CE700226AE7042268E70025AAE73F
:10068C000125A8E7000401400010024000080140C9
:10069C000000221000003110000032100000121077
:1006AC00000021100AB1016170470904FBE700004A
:1006BC002DE9F341054638B30368DB0710D42B68EA
:1006CC009F075ED42B68190700F195802B685A0799
:1006DC0000F1BF80E869002840F02C81002029E05F
:1006EC008F4C636803F00C03042B07D0636803F092
:1006FC000C03082B0AD16368DE0307D523689C031F
:10070C00DDD56B68002BDAD1012013E06B68B3F5F3
:10071C00803F12D1236843F480332360FFF77EFEC1
:10072C00064623689803CAD4FFF778FE801B64281A
:10073C00F7D9032002B0BDE8F0819BB9236823F4FC
:10074C0080332360236823F480232360FFF766FE45
:10075C00064623689903B2D5FFF760FE801B642818
:10076C00F7D9E6E7B3F5A02F236803D143F4802330
:10077C002360CFE723F480332360236823F48023A2
:10078C00CBE7674C636813F00C0F07D0636803F07A
:10079C000C03082B10D16368DA030DD423689B0774
:1007AC0002D52B69012BAFD123686A6923F0F803BA
:1007BC0043EAC203236085E72A695A4B6AB10122D6
:1007CC001A60FFF72BFE064623689F07ECD4FFF751
:1007DC0025FE801B0228F7D9ABE71A60FFF71EFE37
:1007EC000646236898077FF56DAFFFF717FE801B51
:1007FC000228F6D99DE7AA69494E4B4BDAB1012282
:10080C001A60FFF70BFE0446736A9B070DD54FF475
:10081C00FA52464B1B68B3FBF2F3019300BF019BEA
:10082C005A1E0192002BF9D150E7FFF7F7FD001B80
:10083C000228E9D97DE71A60FFF7F0FD0446736AD8
:10084C009F077FF543AFFFF7E9FD001B0228F6D9A0
:10085C006FE7334CE369D80024D40127E36943F0F4
:10086C008053E361E36903F080530093009B304EA7
:10087C003368D90518D5EB68012B26D1236A43F0D0
:10088C0001032362FFF7CAFD41F288380646236A4A
:10089C009B073FD5002F3FF41DAFE36923F0805336
:1008AC00E36117E70027E2E7336843F480733360B2
:1008BC00FFF7B4FD80463368DA05DCD4FFF7AEFDF4
:1008CC00A0EB08006428F6D933E7ABB9236A41F2F0
:1008DC00883823F001032362236A23F00403236284
:1008EC00FFF79CFD0646236A9807D3D5FFF796FDC4
:1008FC00801B4045F7D91CE7052B236A03D143F035
:10090C0004032362BAE723F001032362236A23F072
:10091C000403B6E7FFF782FD801B4045B7D908E713
:10092C0000100240000042428004424200000020BD
:10093C00007000402A4B5A681C4602F00C02082A30
:10094C003DD00023274E022833602BD1FFF766FDE4
:10095C000746236899011FD42B6AB3F5803F05D154
:10096C006268A96822F400320A436260696A6268AC
:10097C000B4322F474121343636001233360FFF7BB
:10098C004DFD054623689A013FF5A8AEFFF746FDDD
:10099C00401B0228F6D9CCE6FFF740FDC01B02280D
:1009AC00D7D9C6E6FFF73AFD054623689B017FF5CC
:1009BC0095AEFFF733FD401B0228F6D9B9E60128A6
:1009CC003FF4B8AE5B682A6A03F4803191427FF43D
:1009DC009BAE6A6A03F4701393423FF47FAE93E6C6
:1009EC00001002406000424230B5184B87B002AC98
:1009FC0003F11005224618685968083303C2AB424C
:100A0C001446F7D140F201231149ADF804304B687C
:100A1C0003F00C02082A17D1C3F3834206A8024440
:100A2C00DB0312F8102C0CD54B680A48C3F3404377
:100A3C00504306AA134413F8143CB0FBF3F007B070
:100A4C0030BD05485043FAE70248F8E708100008A3
:100A5C000010024000127A0000093D002DE9F0411F
:100A6C000D46044610B90120BDE8F081444A1368D4
:100A7C0003F007038B4228D321688E0730D4CA07B2
:100A8C0043D43F4A136803F00703AB4265D822688E
:100A9C003C4D12F0040F6CD1130706D56B6822691C
:100AAC0023F4605343EAC2036B60FFF79DFF6B684E
:100ABC00354AC3F30313D35CD840344B1860344B22
:100ACC001868FFF769FC0020CEE7136823F00703D2
:100ADC000B431360136803F007038B42C3D1CBE7BE
:100AEC00284B11F0040F1EBF5A6842F4E0625A60A2
:100AFC00080742BF5A6842F460525A605A68A068AC
:100B0C0022F0F00202435A60B9E762681D4E012AD6
:100B1C0033681AD113F4003FA5D0736841F28838BA
:100B2C0023F0030313437360FFF778FC07467368E5
:100B3C00626803F00C03B3EB820FA2D0FFF76EFCDC
:100B4C00C01B4045F3D903208EE7022A02D113F0D3
:100B5C00007FE1E713F0020FDEE7136823F00703D1
:100B6C002B431360136803F00703AB427FF47BAF96
:100B7C008DE76B68E16823F4E0630B436B608BE7F4
:100B8C000020024000100240F80F00080000002076
:100B9C000800002090F83D30012B1CD1022380F876
:100BAC003D300368DA6842F00102DA600B4A934286
:100BBC0006D0B3F1804F03D0A2F59432934204D106
:100BCC009A6802F00702062A03D01A6842F0010262
:100BDC001A60002070470120704700BF002C0140B4
:100BEC007047704770477047036810B51A69044620
:100BFC0091070ED5DA6892070BD56FF002021A61D5
:100C0C00012202779B699B0777D0FFF7EAFF00234D
:100C1C00237723681A69500710D5DA6851070DD568
:100C2C006FF004021A61022222779B69204613F4AA
:100C3C00407F68D0FFF7D5FF0023237723681A691C
:100C4C0012070FD5DA6810070CD56FF008021A617D
:100C5C0004222277DB69204699075AD0FFF7C1FF9F
:100C6C000023237723681A69D20610D5DA68D006D8
:100C7C000DD56FF010021A6108222277DB6920462D
:100C8C0013F4407F4BD0FFF7ACFF0023237723688E
:100C9C001A69D10708D5DA68D20705D56FF00102B9
:100CAC0020461A61FFF7E4FA23681A69100608D582
:100CBC00DA68110605D56FF0800220461A6100F043
:100CCC005CF923681A69520608D5DA68500605D50E
:100CDC006FF0400220461A61FFF785FF23681A69FE
:100CEC00910622D5DA6892061FD56FF020022046B5
:100CFC00BDE810401A6100F03FB9FFF771FF2046C4
:100D0C00FFF770FF83E7FFF76BFF2046FFF76AFFE3
:100D1C0092E7FFF765FF2046FFF764FFA0E7FFF7B8
:100D2C005FFF2046FFF75EFFAFE710BD164A10B518
:100D3C009042036805D0B0F1804F02D0134CA04212
:100D4C0010D14C6823F07003904243EA040305D0A1
:100D5C00B0F1804F02D00D4A904203D1CA6823F4FF
:100D6C00407313434A6923F08003134303608B6879
:100D7C00C3620B688362044B984204BF0B69036324
:100D8C000123436110BD00BF002C01400004004052
:100D9C0010B5044630B390F83D3003F0FF021BB998
:100DAC0080F83C20FFF7A2FA0223206884F83D303B
:100DBC00211DFFF7BBFF0123002084F8463084F887
:100DCC003E3084F83F3084F8403084F8413084F869
:100DDC00423084F8433084F8443084F8453084F849
:100DEC003D3010BD0120FCE710B584680A4324F4A3
:100DFC007F4442EA03222243826010BD70B590F812
:100E0C003C300446012B4FF0020027D0012384F81C
:100E1C003D00206884F83C30836823F47F4323F042
:100E2C00770383600B68602B4DD032D8402B62D097
:100E3C0015D8202B03D009D833F0100208D18268C2
:100E4C0022F07002134343F0070320E0302BF6D05E
:100E5C000123002084F83D3084F83C0070BD502BF9
:100E6C00F6D14A68CE68016A056A21F00A0125F0BC
:100E7C000105056283690A4323F0F00343EA061374
:100E8C0083610262836823F0700343F0570383602D
:100E9C00DEE7702B0CD0B3F5005FD9D1CB68D1E96C
:100EAC000121FFF7A1FF2268936843F4804308E017
:100EBC00CB68D1E90121FFF797FF2268936843F0D3
:100ECC0077039360C4E74D68CE68016A21F0100186
:100EDC0001628269036A22F4704223F0A00343EAA0
:100EEC00051342EA063282610362836823F07003C1
:100EFC0043F06703CBE74A68CE68016A056A21F0C4
:100F0C000A0125F00105056283690A4323F0F00309
:100F1C0043EA061383610262836823F0700343F093
:100F2C004703B4E730B590F83C200346012A4FF054
:100F3C0002001ED01A6883F83D0054680D6824F036
:100F4C0070042C43906854600A4CA24206D0B2F153
:100F5C00804F03D0A4F59434A24204D1496820F008
:100F6C008000014391600122002083F83D2083F82A
:100F7C003C0030BD002C01407047704770B5002616
:100F8C000C4D0D4C641BA410A64209D100F022F8A4
:100F9C0000260A4D0A4C641BA410A64205D170BD54
:100FAC0055F8043B98470136EEE755F8043B984753
:100FBC000136F2E71C1000081C1000081C10000879
:100FCC002010000803460244934200D1704703F8F6
:100FDC00011BF9E7F8B500BFF8BC08BC9E4670478A
:0C0FEC00F8B500BFF8BC08BC9E4670477A
:100FF80000000000000000000102030406070809C1
:1010080002030405060708090A0B0C0D0E0F101041
:0410180000000000D4
:04101C003101000896
:041020000D010008B6
:0C1024000024F400010000001000000097
:040000050800035993
:00000001FF
