:020000040800F2
:1000000000280020F9120008651200086B12000891
:1000100071120008771200087D120008000000002D
:100020000000000000000000000000008312000833
:100030008F120008000000009B120008A7120008A1
:100040004113000841130008411300084113000840
:100050004113000841130008411300084113000830
:100060004113000841130008411300084113000820
:100070004113000841130008411300084113000810
:100080004113000841130008411300084113000800
:1000900041130008411300084113000841130008F0
:1000A00041130008411300084113000841130008E0
:1000B000B5120008411300080000000041130008B9
:1000C0004113000800000000000000004113000878
:1000D0000000000041130008411300080000000068
:1000E00041130008411300084113000800000000FC
:1000F0000000000000000000000000000000000000
:0C01000000000000000000005FF808F1A3
:10010C0010B5054C237833B9044B13B10448AFF345
:10011C0000800123237010BD280000200000000087
:10012C009C29000808B5034B1BB103490348AFF3E6
:10013C00008008BD000000002C0000209C29000855
:10014C0080B500AF074BDB68012B09D103214FF4BD
:10015C007A7000F0EFFF4FF40041034801F007FC08
:10016C0000BF80BDEC000020000C014080B582B0C7
:10017C0000AF78607B68032B4AD801A252F823F0B9
:10018C00FD0100089D010008BD010008DD0100080B
:10019C0000220121204801F0D2FB012202211E483D
:1001AC0001F0CDFB012204211B4801F0C8FB2FE01C
:1001BC0001220121184801F0C2FB0022022116483D
:1001CC0001F0BDFB01220421134801F0B8FB1FE034
:1001DC0001220121104801F0B2FB012202210E483C
:1001EC0001F0ADFB002204210B4801F0A8FB0FE04D
:1001FC0001220121084801F0A2FB0122022106483C
:10020C0001F09DFB01220421034801F098FB00BF83
:10021C0000BF0837BD4680BD0008014080B582B0E4
:10022C0000AF78607B68032B4AD801A252F823F008
:10023C00AD0200084D0200086D0200088D02000896
:10024C0000220821204801F07AFB012210211E48CF
:10025C0001F075FB012220211B4801F070FB2FE0FF
:10026C0001220821184801F06AFB002210211648CF
:10027C0001F065FB01222021134801F060FB1FE017
:10028C0001220821104801F05AFB012210210E48CE
:10029C0001F055FB002220210B4801F050FB0FE030
:1002AC0001220821084801F04AFB012210210648CE
:1002BC0001F045FB01222021034801F040FB00BF67
:1002CC0000BF0837BD4680BD0008014080B582B034
:1002DC0000AF78607B68012B09D0012201212C48EA
:1002EC0001F02DFB01220821294801F028FB7B6835
:1002FC00022B09D001220221254801F020FB01220A
:10030C001021234801F01BFB7B68032B09D0012231
:10031C0004211F4801F013FB012220211C4801F08D
:10032C000EFB1C4B9B68012B2CD102214FF4FA7055
:10033C0000F000FF7B68032B1BD07B68032B22DCB7
:10034C007B68012B03D07B68022B09D01BE00121B9
:10035C000F4801F00CFB08210D4801F008FB12E0DE
:10036C0002210B4801F003FB1021094801F0FFFAB0
:10037C0009E00421064801F0FAFA2021044801F0B2
:10038C00F6FA00E000BF00BF0837BD4680BD00BFD5
:10039C0000080140EC00002080B582B000AF78600E
:1003AC007B681B68DBB21A464FF40071214801F0E0
:1003BC00C6FA7B6804331B68DBB21A464FF48061C3
:1003CC001C4801F0BCFA7B6808331B68DBB21A4688
:1003DC004FF40061174801F0B2FA7B680C331B68CC
:1003EC00DBB21A464FF48051124801F0A8FA7B6830
:1003FC0010331B68DBB21A464FF400510D4801F064
:10040C009EFA7B6814331B68DBB21A464FF48041AA
:10041C00084801F094FA7B6818331B68DBB21A4663
:10042C004FF40041034801F08AFA00BF0837BD467B
:10043C0080BD00BF00080140B0B5D0B000AF07F5DB
:10044C00A073A3F59E73186007F5A073A3F59E73B4
:10045C001B68092B00F2ED8001A252F823F000BFBB
:10046C0095040008CB040008EB0400080B050008F9
:10047C002B0500084B0500086B0500089F050008BC
:10048C00BF050008DF0500080023C7F8243100234E
:10049C00C7F828310023C7F82C310023C7F83031B6
:1004AC000023C7F834310023C7F838310123C7F8CB
:1004BC003C3107F592731846FFF76EFFE9E0774B76
:1004CC0007F584741D460FCD0FC495E8070084E82A
:1004DC00070007F584731846FFF75EFFD9E0704BF1
:1004EC0007F1EC041D460FCD0FC495E8070084E816
:1004FC00070007F1EC031846FFF74EFFC9E0694B04
:10050C0007F1D0041D460FCD0FC495E8070084E811
:10051C00070007F1D0031846FFF73EFFB9E0624B26
:10052C0007F1B4041D460FCD0FC495E8070084E80D
:10053C00070007F1B4031846FFF72EFFA9E05B4B49
:10054C0007F198041D460FCD0FC495E8070084E809
:10055C00070007F198031846FFF71EFF99E00023E8
:10056C00FB670123C7F880300023C7F884300023D1
:10057C00C7F888300023C7F88C300023C7F89030B8
:10058C000023C7F8943007F17C031846FFF704FFEB
:10059C007FE0474B07F160041D460FCD0FC495E873
:1005AC00070084E8070007F160031846FFF7F4FE24
:1005BC006FE007F1440300221A605A609A60DA6017
:1005CC001A615A619A6107F144031846FFF7E4FE79
:1005DC005FE007F5A073A3F58C7300221A6007F592
:1005EC00A073A3F58C7300225A6007F5A073A3F5D2
:1005FC008C7300229A6007F5A073A3F58C7300220C
:10060C00DA6007F5A073A3F58C7301221A6107F564
:10061C00A073A3F58C7300225A6107F5A073A3F5A0
:10062C008C7300229A6107F128031846FFF7B4FE79
:10063C002FE007F5A073A3F59A7300221A6007F553
:10064C00A073A3F59A7300225A6007F5A073A3F563
:10065C009A7300229A6007F5A073A3F59A7300228F
:10066C00DA6007F5A073A3F59A7300221A6107F5F7
:10067C00A073A3F59A7300225A6107F5A073A3F532
:10068C009A7301229A6107F10C031846FFF784FE56
:10069C0000BF00BF07F5A077BD46B0BDB429000868
:1006AC00D0290008EC290008082A0008242A000890
:1006BC00402A000880B582B000AF7860414B1B68BF
:1006CC000422934202DB3F4B00221A607B68032B0F
:1006DC0072D801A252F823F0F50600082907000889
:1006EC005D0700089107000800220821364801F038
:1006FC0026F901221021344801F021F90122202190
:10070C00314801F01CF9012240212F4801F017F962
:10071C002E4B1B681846FFF78FFE4EE00122082176
:10072C00294801F00CF900221021274801F007F9A3
:10073C0001222021244801F002F901224021224803
:10074C0001F0FDF8214B5B681846FFF775FE34E0AD
:10075C00012208211C4801F0F2F8012210211A484C
:10076C0001F0EDF800222021174801F0E8F80122F1
:10077C004021154801F0E3F8144B9B681846FFF72D
:10078C005BFE1AE0012208210F4801F0D8F8012283
:10079C0010210D4801F0D3F8012220210A4801F064
:1007AC00CEF800224021084801F0C9F8074BDB685D
:1007BC001846FFF741FE00E000BF00BF0837BD46FA
:1007CC0080BD00BF44000020000C01404800002008
:1007DC0080B584B000AF78600023FB600BE0FB6851
:1007EC009B007A6813441A680F49FB6841F8232070
:1007FC00FB680133FB600422FB689342EFDB0B4B7D
:10080C005B68012B0BD10121FA2000F093FC084B03
:10081C001B685A1C06490A601846FFF74BFF00BFBD
:10082C001037BD4680BD00BF48000020EC00002002
:10083C004400002080B584B000AF084B00221A6041
:10084C003B4600221A605A609A60DA603B461846B2
:10085C00FFF7BEFF00BF1037BD4680BD440000202F
:10086C0080B500AF03214FF47A7000F063FC4FF4B5
:10087C000041124801F07BF8114B00221A60114B19
:10088C0000221A60104B00221A60104B00221A60D2
:10089C000020FFF76BFC0020FFF7C0FCFFF7CAFF3E
:1008AC000B4B1B680B4A13600B4B1B680B4A1360FA
:1008BC000B4B1B680B4A136000BF80BD000C014042
:1008CC006000002064000020580000205C00002024
:1008DC000000002078000020040000207C00002094
:1008EC00080000208000002080B500AF734B196811
:1008FC00734B83FB01239A10CB17D21A13469B0020
:10090C0013445B00CA1A6F4B5A606C4B1A686D4BE0
:10091C005B68D31A6A4A82FB03129210DB17D31A54
:10092C00684A1360684B1968654B83FB01239A1066
:10093C00CB17D21A13469B0013445B00CA1A614BA7
:10094C00DA60614B1A685F4BDB68D31A5C4A82FB36
:10095C0003129210DB17D31A5A4A93605948FFF7C7
:10096C0037FF5A4B1B68012B0ED100214FF47A70C4
:10097C0000F0E0FB514B1B68013B504A1360524B9B
:10098C001B68013B504A1360514B1B68032B47D823
:10099C0001A252F823F000BFB5090008D3090008E2
:1009AC000F0A0008F1090008444B1B68002B06DCF9
:1009BC00474B01221A60474B1B68404A13600020CA
:1009CC00FFF7D4FB2CE03D4B1B68002B06DC404BA7
:1009DC0003221A60404B1B68384A13600120FFF752
:1009EC00C5FB1DE0354B1B68002B06DC384B022287
:1009FC001A603A4B1B68314A13600320FFF7B6FBB1
:100A0C000EE02E4B1B68002B06DC314B01221A60CA
:100A1C00304B1B68294A13600220FFF7A7FB00BF6D
:100A2C002F4B1B68032B47D801A252F823F000BFB1
:100A3C004D0A00086B0A0008A70A0008890A00087A
:100A4C00214B1B68002B06DC254B03221A60224B22
:100A5C001B681D4A13600020FFF7E0FB2CE01A4BCB
:100A6C001B68002B06DC1E4B03221A601A4B1B68FA
:100A7C00154A13600120FFF7D1FB1DE0124B1B68D8
:100A8C00002B06DC164B02221A60144B1B680E4A14
:100A9C0013600320FFF7C2FB0EE00B4B1B68002B0F
:100AAC0006DC0F4B01221A600A4B1B68064A1360C6
:100ABC000220FFF7B3FB00BF00BF80BD6000002029
:100ACC00676666666800002064000020EC00002069
:100ADC005800002000000020080000200400002026
:100AEC005C00002080B584B000AF00233B60404B1D
:100AFC001B687B600023BB600023FB603C4B1B68C6
:100B0C00013B032B70D801A252F823F0290B0008EB
:100B1C002F0B0008710B0008B30B0008FFF7E4FE65
:100B2C0062E00120FFF7D2FB324B1968324B83FB9A
:100B3C0001239A10CB17D21A13469B0013445B0067
:100B4C00CA1AFA602B4B1A68FB68D31A2A4A82FB22
:100B5C0003129210DB17D31ABB603B461846FFF703
:100B6C0037FE41E00220FFF7B1FB244B1968224B02
:100B7C0083FB01239A10CB17D21A13469B00134404
:100B8C005B00CA1AFA601D4B1A68FB68D31A1A4A22
:100B9C0082FB03129210DB17D31ABB603B4618463C
:100BAC00FFF716FE20E00320FFF790FB144B1968AB
:100BBC00114B83FB01239A10CB17D21A13469B00BF
:100BCC0013445B00CA1AFA600D4B1A68FB68D31AFF
:100BDC00094A82FB03129210DB17D31ABB603B4607
:100BEC001846FFF7F5FD00BF00BF1037BD4680BDAE
:100BFC000C00002078000020676666667C000020F0
:100C0C008000002080B500AF00214FF4FA6000F0A6
:100C1C0091FA01214FF47A7000F08CFA02214FF412
:100C2C007A7000F087FA03214FF47A7000F082FAA0
:100C3C0000BF80BD80B582B000AF00237B60A8E010
:100C4C00594A7B6813441B78022B00F08C80022BD2
:100C5C0000F39C80002B02D0012B68D096E07B68BF
:100C6C00DBB2184600F02CF90346002B59D04E4A43
:100C7C007B68134401221A707B68022B36D07B6888
:100C8C00022B7EDC7B68002B03D07B68012B0FD002
:100C9C0077E0FFF7E5FD454B1B680133434A1360D2
:100CAC00424B1B68042B3EDD404B01221A603AE09C
:100CBC003E4B1B68042B12D0042B36DC022B02D0CB
:100CCC00032B06D031E03A4B1B680133384A1360D2
:100CDC000BE0384B1B680133364A136005E0364B8A
:100CEC001B680133344A136000BF1EE0304B1B6895
:100CFC00324A13602F4B1B68314A13602E4B1B6812
:100D0C00304A1360294B1B680133284A1360274B68
:100D1C001B68042B02DD254B01221A60FFF7A0FD96
:100D2C0004E000BF2DE000BF2BE000BF29E07B6892
:100D3C00DBB2184600F0C4F80346002B05D11A4A62
:100D4C007B68134400221A701DE07B68DBB21846E6
:100D5C0000F0D0F80346002B15D0134A7B681344DF
:100D6C0002221A700FE07B68DBB2184600F0A8F87C
:100D7C000346002B09D10C4A7B68134400221A70DD
:100D8C0003E000BF02E000BF00E000BF7B6801335E
:100D9C007B607B68022B7FF753AFFFF7A3FE00BF8E
:100DAC000837BD4680BD00BF840000200C00002029
:100DBC00780000207C000020800000200000002033
:100DCC00040000200800002090B583B000AF002381
:100DDC00FB7160E0FA79FB793349895C334AD15471
:100DEC00FB79022B1AD0022B21DC002B02D0012B19
:100DFC000AD01CE0FC7901212D4800F089FD034646
:100E0C001A46294B1A5512E0FC790221284800F0A9
:100E1C007FFD03461A46244B1A5508E0FC79042141
:100E2C00234800F075FD03461A461F4B1A55FB79F3
:100E3C001D4AD25CFB791D49CB5C9A4205D1FA79EB
:100E4C00FB791949895C1B4AD154FB79194AD35C4B
:100E5C00002B14D1FB79184A32F81330632B09D8C4
:100E6C00FB79154A32F81320013291B2124A22F85A
:100E7C0013100DE0FB79114A0121D15408E0FB79E4
:100E8C000D4A002122F81310FB790C4A0021D15491
:100E9C00FB790133FB71FB79022B9BD900BF00BF9F
:100EAC000C37BD4690BD00BF140000201800002078
:100EBC00000C0140100000208C0000208800002055
:100ECC0080B483B000AF0346FB71FB79022B01D9D0
:100EDC00002307E0FB79064AD35C002B0CBF0123EF
:100EEC000023DBB218460C37BD4680BC704700BFF0
:100EFC001000002080B483B000AF0346FB71FB7977
:100F0C00022B01D9FF2307E0FB79064AD35C012BA6
:100F1C000CBF01230023DBB218460C37BD4680BC46
:100F2C00704700BF8800002080B500AF00F004FAC5
:100F3C0000F010F800F096F800F048F8044801F0C2
:100F4C0067F9FFF75FFEFFF7FBF8FFF773FEFAE7B1
:100F5C009400002080B590B000AF07F11803282250
:100F6C000021184601F00CFD3B1D00221A605A604E
:100F7C009A60DA601A610223BB610123BB62102301
:100F8C00FB6200237B6307F11803184600F008FD91
:100F9C000346002B01D000F0C7F80F237B60002321
:100FAC00BB600023FB6000233B6100237B613B1D86
:100FBC000021184600F076FF0346002B01D000F00C
:100FCC00B3F800BF4037BD4680BD000080B586B089
:100FDC0000AF07F1080300221A605A609A60DA60C9
:100FEC003B4600221A605A601D4B4FF080421A603B
:100FFC001B4B41F63F725A60194B00229A60184BFA
:10100C000922DA60164B00221A61154B00229A61F4
:10101C00134801F0ADF80346002B01D000F084F822
:10102C004FF48053BB6007F1080319460C4801F0DC
:10103C0043FA0346002B01D000F076F800233B6006
:10104C0000237B603B461946054801F00BFC034628
:10105C00002B01D000F068F800BF1837BD4680BDEA
:10106C009400002080B586B000AF07F10803002281
:10107C001A605A609A60DA60284B9B69274A43F0E1
:10108C0004039361254B9B6903F004037B607B682D
:10109C00224B9B69214A43F0080393611F4B9B69C8
:1010AC0003F008033B603B6800224FF63F611C488D
:1010BC0000F045FC002248F278011A4800F03FFC91
:1010CC004FF63F63BB600123FB6000233B610223AF
:1010DC007B6107F108031946114800F09DFA0723BC
:1010EC00BB600023FB6001233B6107F10803194639
:1010FC000C4800F091FA48F27803BB600123FB60C6
:10110C0000233B6102237B6107F108031946054864
:10111C0000F082FA00BF1837BD4680BD00100240B7
:10112C0000080140000C014080B400AF72B600BF53
:10113C00FEE7000080B483B000AF786039600A220B
:10114C007B6893FBF2F207493B6841F82320064A7F
:10115C003B68002142F8231000BF0C37BD4680BC11
:10116C00704700BFDC000020EC00002080B483B08E
:10117C0000AF00237B601CE0124A7B6852F82330DE
:10118C00002B13DD0F4A7B6852F823305A1E0D4991
:10119C007B6841F823200B4A7B6852F82330002BE4
:1011AC0004DC094A7B68012142F823107B68013377
:1011BC007B607B68032BDFDD00BF00BF0C37BD46B7
:1011CC0080BC7047DC000020EC00002080B483B0B1
:1011DC0000AF0E4B9B690D4A43F0010393610B4B1F
:1011EC009B6903F001037B607B68084BDB69074A52
:1011FC0043F08053D361054BDB6903F080533B60B4
:10120C003B6800BF0C37BD4680BC704700100240E5
:10121C0080B584B000AF78607B681B68B3F1804FF9
:10122C0013D10C4BDB690B4A43F00103D361094B1F
:10123C00DB6903F00103FB60FB68002200211C202A
:10124C0000F0B3F91C2000F0CCF900BF1037BD46FC
:10125C0080BD00BF0010024080B400AFFEE780B438
:10126C0000AFFEE780B400AFFEE780B400AFFEE74E
:10127C0080B400AFFEE780B400AF00BFBD4680BCB9
:10128C00704780B400AF00BFBD4680BC704780B4CF
:10129C0000AF00BFBD4680BC704780B500AF00F00A
:1012AC0091F800BF80BD000080B500AF024800F08F
:1012BC00FBFF00BF80BD00BF9400002080B400AFD6
:1012CC0000BFBD4680BC704780B582B000AF78606F
:1012DC007B681B68B3F1804F01D1FFF775FDFFF7F9
:1012EC0045FF00BF0837BD4680BD00000C480D49C6
:1012FC000D4A002302E0D458C4500433C4188C4265
:10130C00F9D30A4A0A4C002301E013600432A242CA
:10131C00FBD3FFF7D3FF01F00FFBFFF705FE704780
:10132C000000002028000020842A0008280000204B
:10133C0000010020FEE7000080B500AF084B1B68E1
:10134C00074A43F010031360032000F023F90F2029
:10135C0000F008F8FFF73AFF0023184680BD00BFE5
:10136C000020024080B582B000AF7860124B1A6842
:10137C00124B1B7819464FF47A73B3FBF1F3B2FBA3
:10138C00F3F3184600F03BF90346002B01D0012380
:10139C000EE07B680F2B0AD8002279684FF0FF30E3
:1013AC0000F003F9064A7B681360002300E0012378
:1013BC0018460837BD4680BD1C00002024000020C4
:1013CC002000002080B400AF054B1B781A46054B5B
:1013DC001B681344034A136000BFBD4680BC7047B2
:1013EC0024000020FC00002080B400AF024B1B68DE
:1013FC001846BD4680BC7047FC00002080B485B008
:10140C0000AF78607B6803F00703FB600C4BDB6874
:10141C00BB60BA684FF6FF031340BB60FB681A024F
:10142C00BB68134343F0BF6343F40033BB60044A0F
:10143C00BB68D36000BF1437BD4680BC704700BF8B
:10144C0000ED00E080B400AF044BDB681B0A03F036
:10145C0007031846BD4680BC704700BF00ED00E096
:10146C0080B483B000AF0346FB7197F90730002BB3
:10147C000BDBFB7903F01F02064997F907305B0978
:10148C00012000FA02F241F8232000BF0C37BD46C0
:10149C0080BC704700E100E080B483B000AF03462D
:1014AC003960FB7197F90730002B0ADB3B68DAB225
:1014BC000C4997F907301201D2B20B4483F8002380
:1014CC000AE03B68DAB20849FB7903F00F03043BEE
:1014DC001201D2B20B441A7600BF0C37BD4680BC49
:1014EC00704700BF00E100E000ED00E080B489B07F
:1014FC0000AFF860B9607A60FB6803F00703FB612A
:10150C00FB69C3F10703042B28BF0423BB61FB69F0
:10151C000433062B02D9FB69033B00E000237B61FB
:10152C004FF0FF32BB6902FA03F3DA43BB681A408F
:10153C007B699A404FF0FF317B6901FA03F3D94381
:10154C007B680B40134318462437BD4680BC70475C
:10155C0080B582B000AF78607B68013BB3F1807FCF
:10156C0001D301230FE00A4A7B68013B53600F2132
:10157C004FF0FF30FFF790FF054B00229A60044BB1
:10158C0007221A60002318460837BD4680BD00BFED
:10159C0010E000E080B582B000AF78607868FFF7AB
:1015AC002DFF00BF0837BD4680BD80B586B000AFAB
:1015BC000346B9607A60FB7300237B61FFF742FF3F
:1015CC0078617A68B9687869FFF790FF024697F9F5
:1015DC000F3011461846FFF75FFF00BF1837BD46A6
:1015EC0080BD80B582B000AF0346FB7197F9073020
:1015FC001846FFF735FF00BF0837BD4680BD80B5E4
:10160C0082B000AF78607868FFF7A2FF03461846F7
:10161C000837BD4680BD000080B48BB000AF786049
:10162C00396000237B6200233B6261E101227B6A0B
:10163C0002FA03F3FB613B681B68FA691340BB6158
:10164C00BA69FB699A4240F050813B685B68974AE3
:10165C0093425ED0954A934275D8954A934258D09E
:10166C00934A93426FD8934A934252D0914A9342F1
:10167C0069D8914A93424CD08F4A934263D88F4A8F
:10168C00934246D08D4A93425DD8122B2AD8122B06
:10169C0059D801A252F823F01F170008F9160008B8
:1016AC000B1700084D1700085317000853170008B4
:1016BC005317000853170008531700085317000856
:1016CC005317000853170008531700085317000846
:1016DC005317000853170008531700080117000888
:1016EC0015170008764A934213D02CE03B68DB6850
:1016FC003B6229E03B68DB6804333B6224E03B68D7
:10170C00DB6808333B621FE03B68DB680C333B62F1
:10171C001AE03B689B68002B02D104233B6213E068
:10172C003B689B68012B05D108233B627B68FA69F7
:10173C001A6109E008233B627B68FA695A6103E08D
:10174C0000233B6200E000BFBB69FF2B01D87B6824
:10175C0001E07B6804337B61BB69FF2B02D87B6A99
:10176C009B0002E07B6A083B9B003B617B691A682B
:10177C000F213B6901FA03F3DB431A40396A3B69D9
:10178C0001FA03F31A437B691A603B685B6803F048
:10179C008053002B00F0A9804A4B9B69494A43F0C7
:1017AC0001039361474B9B6903F00103BB60BB686A
:1017BC00454A7B6A9B08023352F82330FB607B6AF4
:1017CC0003F003039B000F2202FA03F3DB43FA68D6
:1017DC001340FB607B683D4A93420DD07B683C4ACA
:1017EC00934207D07B683B4A934201D1022304E029
:1017FC00032302E0012300E000237A6A02F00302D3
:10180C0092009340FA681343FB602F497B6A9B0854
:10181C000233FA6841F823203B685B6803F4803399
:10182C00002B06D02C4B1A682B49BB6913430B6059
:10183C0006E0294B1A68BB69DB43274913400B6050
:10184C003B685B6803F40033002B06D0224B5A68CC
:10185C002149BB6913434B6006E01F4B5A68BB69B7
:10186C00DB431D4913404B603B685B6803F48013FA
:10187C00002B06D0184B9A681749BB6913438B6031
:10188C0006E0154B9A68BB69DB43134913408B6028
:10189C003B685B6803F40013002B1FD00E4BDA6817
:1018AC000D49BB691343CB601FE000BF0000321031
:1018BC000000311000002210000021100000121056
:1018CC00000011100010024000000140000801400F
:1018DC00000C014000100140000401400B4BDA6881
:1018EC00BB69DB4309491340CB607B6A01337B62E4
:1018FC003B681A687B6A22FA03F3002B7FF496AEDE
:10190C0000BF00BF2C37BD4680BC704700040140AF
:10191C0080B485B000AF78600B467B807B689A689A
:10192C007B881340002B02D00123FB7301E00023C2
:10193C00FB73FB7B18461437BD4680BC704780B4E4
:10194C0083B000AF78600B467B8013467B707B784E
:10195C00002B03D07A887B681A6103E07B881A0419
:10196C007B681A6100BF0C37BD4680BC704780B4E1
:10197C0085B000AF78600B467B807B68DB68FB60D2
:10198C007A88FB6813401A04FB68D9437B880B40A8
:10199C001A437B681A6100BF1437BD4680BC704780
:1019AC0080B586B000AF78607B68002B01D1012335
:1019BC0072E27B681B6803F00103002B00F0878048
:1019CC00924B5B6803F00C03042B0CD08F4B5B68C1
:1019DC0003F00C03082B12D18C4B5B6803F480339F
:1019EC00B3F5803F0BD1894B1B6803F40033002BFC
:1019FC006CD07B685B68002B68D101234CE27B6860
:101A0C005B68B3F5803F06D1804B1B687F4A43F47B
:101A1C00803313602EE07B685B68002B0CD17B4B12
:101A2C001B687A4A23F480331360784B1B68774A1F
:101A3C0023F4802313601DE07B685B68B3F5A02F53
:101A4C000CD1724B1B68714A43F4802313606F4BAB
:101A5C001B686E4A43F4803313600BE06B4B1B68BE
:101A6C006A4A23F480331360684B1B68674A23F47B
:101A7C00802313607B685B68002B13D0FFF7B4FCEA
:101A8C00386108E0FFF7B0FC02463B69D31A642BBF
:101A9C0001D9032300E25D4B1B6803F40033002BD8
:101AAC00F0D014E0FFF7A0FC386108E0FFF79CFCD5
:101ABC0002463B69D31A642B01D90323ECE1534B47
:101ACC001B6803F40033002BF0D100E000BF7B68EF
:101ADC001B6803F00203002B63D04C4B5B6803F0D4
:101AEC000C03002B0BD0494B5B6803F00C03082B49
:101AFC001CD1464B5B6803F48033002B16D1434B4F
:101B0C001B6803F00203002B05D07B681B69012BBB
:101B1C0001D00123C0E13D4B1B6823F0F8027B6828
:101B2C005B69DB00394913430B603AE07B681B6946
:101B3C00002B20D0364B01221A60FFF755FC386180
:101B4C0008E0FFF751FC02463B69D31A022B01D97E
:101B5C000323A1E12D4B1B6803F00203002BF0D0F3
:101B6C002A4B1B6823F0F8027B685B69DB00274972
:101B7C0013430B6015E0264B00221A60FFF734FC70
:101B8C00386108E0FFF730FC02463B69D31A022BA0
:101B9C0001D9032380E11D4B1B6803F00203002BCA
:101BAC00F0D17B681B6803F00803002B3AD07B68EC
:101BBC009B69002B19D0174B01221A60FFF714FCFC
:101BCC00386108E0FFF710FC02463B69D31A022B80
:101BDC0001D9032360E10D4B5B6A03F00203002B78
:101BEC00F0D0012000F0A6FA1CE00A4B00221A608B
:101BFC00FFF7FAFB38610FE0FFF7F6FB02463B6993
:101C0C00D31A022B08D9032346E100BF001002406F
:101C1C000000424280044242924B5B6A03F0020392
:101C2C00002BE9D17B681B6803F00403002B00F048
:101C3C00A6800023FB758B4BDB6903F08053002BD4
:101C4C000DD1884BDB69874A43F08053D361854BB8
:101C5C00DB6903F08053BB60BB680123FB75824BCF
:101C6C001B6803F48073002B18D17F4B1B687E4AD2
:101C7C0043F480731360FFF7B7FB386108E0FFF79C
:101C8C00B3FB02463B69D31A642B01D9032303E14E
:101C9C00754B1B6803F48073002BF0D07B68DB68FA
:101CAC00012B06D16F4B1B6A6E4A43F00103136282
:101CBC002DE07B68DB68002B0CD16A4B1B6A694AF0
:101CCC0023F001031362674B1B6A664A23F004037B
:101CDC0013621CE07B68DB68052B0CD1614B1B6A23
:101CEC00604A43F0040313625E4B1B6A5D4A43F087
:101CFC00010313620BE05B4B1B6A5A4A23F001038E
:101D0C001362584B1B6A574A23F0040313627B6817
:101D1C00DB68002B15D0FFF767FB38610AE0FFF793
:101D2C0063FB02463B69D31A41F28832934201D9D4
:101D3C000323B1E04B4B1B6A03F00203002BEED0E4
:101D4C0014E0FFF751FB38610AE0FFF74DFB024648
:101D5C003B69D31A41F28832934201D903239BE0A9
:101D6C00404B1B6A03F00203002BEED1FB7D012BD1
:101D7C0005D13C4BDB693B4A23F08053D3617B6834
:101D8C00DB69002B00F08780364B5B6803F00C039B
:101D9C00082B61D07B68DB69022B46D1334B0022C8
:101DAC001A60FFF721FB386108E0FFF71DFB0246C4
:101DBC003B69D31A022B01D903236DE0294B1B6815
:101DCC0003F00073002BF0D17B681B6AB3F5803FE6
:101DDC0008D1244B5B6823F400327B689B68214953
:101DEC0013434B601F4B5B6823F474127B68196AB6
:101DFC007B685B6A0B431B4913434B601B4B0122F3
:101E0C001A60FFF7F1FA386108E0FFF7EDFA0246C5
:101E1C003B69D31A022B01D903233DE0114B1B68FC
:101E2C0003F00073002BF0D035E0104B00221A6049
:101E3C00FFF7DAFA386108E0FFF7D6FA02463B6999
:101E4C00D31A022B01D9032326E0064B1B6803F09F
:101E5C000073002BF0D11EE07B68DB69012B07D1EE
:101E6C00012319E000100240007000406000424263
:101E7C000B4B5B68FB60FB6803F480327B681B6A6E
:101E8C009A4206D1FB6803F470127B685B6A9A4233
:101E9C0001D0012300E0002318461837BD4680BD51
:101EAC000010024080B584B000AF786039607B6868
:101EBC00002B01D10123D0E06A4B1B6803F0070310
:101ECC003A689A4210D9674B1B6823F007026549A0
:101EDC003B6813430B60634B1B6803F007033A68C2
:101EEC009A4201D00123B8E07B681B6803F002031F
:101EFC00002B20D07B681B6803F00403002B05D05B
:101F0C00594B5B68584A43F4E06353607B681B6829
:101F1C0003F00803002B05D0534B5B68524A43F483
:101F2C0060535360504B5B6823F0F0027B689B68F6
:101F3C004D4913434B607B681B6803F00103002B76
:101F4C0040D07B685B68012B07D1474B1B6803F4BF
:101F5C000033002B15D101237FE07B685B68022BDB
:101F6C0007D1414B1B6803F00073002B09D10123EF
:101F7C0073E03D4B1B6803F00203002B01D10123DE
:101F8C006BE0394B5B6823F003027B685B68364976
:101F9C0013434B60FFF728FAF8600AE0FFF724FAC6
:101FAC000246FB68D31A41F28832934201D90323CB
:101FBC0053E02D4B5B6803F00C027B685B689B0065
:101FCC009A42EBD1274B1B6803F007033A689A42FD
:101FDC0010D2244B1B6823F0070222493B681343A1
:101FEC000B60204B1B6803F007033A689A4201D040
:101FFC00012332E07B681B6803F00403002B08D03C
:10200C00194B5B6823F4E0627B68DB681649134369
:10201C004B607B681B6803F00803002B09D0124B44
:10202C005B6823F460527B681B69DB000E49134329
:10203C004B6000F021F802460B4B5B681B0903F068
:10204C000F030A49CB5C22FA03F3094A1360094BCC
:10205C001B681846FFF786F9002318461037BD4653
:10206C0080BD00BF00200240001002406C2A000816
:10207C001C0000202000002090B48AB000AF294B37
:10208C003C1D0FCB84E80F0040F201233B80002362
:10209C00FB610023BB6100237B6200237B61002377
:1020AC003B62214B5B68FB61FB6903F00C03042B67
:1020BC0002D0082B03D02BE01C4B3B622BE0FB69BE
:1020CC009B0C03F00F0328333B4413F8243C7B6137
:1020DC00FB6903F48033002B12D0134B5B685B0C51
:1020EC0003F0010328333B4413F8283CBB617B69A4
:1020FC000E4A03FB02F2BB69B2FBF3F37B6204E012
:10210C007B690B4A02FB03F37B627B6A3B6202E056
:10211C00064B3B6200BF3B6A18462837BD4690BC55
:10212C00704700BF5C2A00080010024000127A00C1
:10213C0000093D0080B485B000AF78600A4B1B6885
:10214C000A4AA2FB03235B0A7A6802FB03F3FB60D7
:10215C0000BFFB685A1EFA60002BF9D100BF00BF0C
:10216C001437BD4680BC70471C000020D34D621054
:10217C0080B582B000AF78607B68002B01D1012361
:10218C0041E07B6893F83D30DBB2002B06D17B68D5
:10219C00002283F83C207868FFF73AF87B6802222B
:1021AC0083F83D207B681A687B6804331946104617
:1021BC0000F06AFA7B68012283F846207B680122D2
:1021CC0083F83E207B68012283F83F207B68012244
:1021DC0083F840207B68012283F841207B68012230
:1021EC0083F842207B68012283F843207B6801221C
:1021FC0083F844207B68012283F845207B68012208
:10220C0083F83D20002318460837BD4680BD0000EA
:10221C0080B485B000AF78607B6893F83D30DBB25A
:10222C00012B01D0012335E07B68022283F83D208D
:10223C007B681B68DA687B681B6842F00102DA6015
:10224C007B681B68164A934209D07B681B68B3F104
:10225C00804F04D07B681B68124A934211D17B6873
:10226C001B689B6803F00703FB60FB68062B10D010
:10227C007B681B681A687B681B6842F001021A6055
:10228C0007E07B681B681A687B681B6842F00102D8
:10229C001A60002318461437BD4680BC704700BF37
:1022AC00002C01400004004080B582B000AF786083
:1022BC007B681B681B6903F00203022B22D17B682D
:1022CC001B68DB6803F00203022B1BD17B681B68C5
:1022DC006FF002021A617B6801221A777B681B6817
:1022EC009B6903F00303002B03D0786800F0B1F96D
:1022FC0005E0786800F0A4F9786800F0B3F97B6821
:10230C0000221A777B681B681B6903F00403042BFB
:10231C0022D17B681B68DB6803F00403042B1BD100
:10232C007B681B686FF004021A617B6802221A77C3
:10233C007B681B689B6903F44073002B03D078689F
:10234C0000F087F905E0786800F07AF9786800F019
:10235C0089F97B6800221A777B681B681B6903F07C
:10236C000803082B22D17B681B68DB6803F0080389
:10237C00082B1BD17B681B686FF008021A617B6805
:10238C0004221A777B681B68DB6903F00303002BBC
:10239C0003D0786800F05DF905E0786800F050F93A
:1023AC00786800F05FF97B6800221A777B681B68FD
:1023BC001B6903F01003102B22D17B681B68DB68B0
:1023CC0003F01003102B1BD17B681B686FF01002FD
:1023DC001A617B6808221A777B681B68DB6903F437
:1023EC004073002B03D0786800F033F905E078686F
:1023FC0000F026F9786800F035F97B6800221A772E
:10240C007B681B681B6903F00103012B0ED17B68F1
:10241C001B68DB6803F00103012B07D17B681B6889
:10242C006FF001021A617868FEF74EFF7B681B683B
:10243C001B6903F08003802B0ED17B681B68DB6863
:10244C0003F08003802B07D17B681B686FF0800240
:10245C001A61786800F067FA7B681B681B6903F0E7
:10246C004003402B0ED17B681B68DB6803F04003F4
:10247C00402B07D17B681B686FF040021A617868AB
:10248C0000F0F9F87B681B681B6903F02003202B14
:10249C000ED17B681B68DB6803F02003202B07D16F
:1024AC007B681B686FF020021A61786800F032FAC2
:1024BC0000BF0837BD4680BD80B584B000AF7860E2
:1024CC0039607B6893F83C30012B01D10223B3E0D7
:1024DC007B68012283F83C207B68022283F83D2034
:1024EC007B681B689B68FB60FB6823F07703FB60D1
:1024FC00FB6823F47F43FB607B681B68FA689A6077
:10250C003B681B68B3F5005F3ED0B3F5005F00F28B
:10251C008780B3F5805F00F08580B3F5805F7FD84E
:10252C00702B1AD0702B7BD8602B50D0602B77D8A7
:10253C00502B3CD0502B73D8402B58D0402B6FD8FD
:10254C00302B64D0302B6BD8202B60D0202B67D84D
:10255C00002B5CD0102B5AD062E07B6818683B686B
:10256C0099683B685A683B68DB6800F05CF97B68EB
:10257C001B689B68FB60FB6843F07703FB607B6820
:10258C001B68FA689A604EE07B6818683B6899682B
:10259C003B685A683B68DB6800F045F97B681B6850
:1025AC009A687B681B6842F480429A603BE07B68C7
:1025BC0018683B6859683B68DB681A4600F0BCF841
:1025CC007B681B685021184600F013F92BE07B68E0
:1025DC0018683B6859683B68DB681A4600F0DAF803
:1025EC007B681B686021184600F003F91BE07B68D0
:1025FC0018683B6859683B68DB681A4600F09CF821
:10260C007B681B684021184600F0F3F80BE07B68F0
:10261C001A683B681B681946104600F0EAF802E09D
:10262C0000BF00E000BF7B68012283F83D207B687F
:10263C00002283F83C20002318461037BD4680BD8D
:10264C0080B483B000AF786000BF0C37BD4680BC4F
:10265C00704780B483B000AF786000BF0C37BD46C4
:10266C0080BC704780B483B000AF786000BF0C377B
:10267C00BD4680BC704780B483B000AF786000BFAB
:10268C000C37BD4680BC704780B485B000AF786015
:10269C0039607B681B68FB607B68254A934207D0D6
:1026AC007B68B3F1804F03D07B68224A934208D1F8
:1026BC00FB6823F07003FB603B685B68FA681343AC
:1026CC00FB607B681A4A934207D07B68B3F1804F5A
:1026DC0003D07B68174A934208D1FB6823F44073FC
:1026EC00FB603B68DB68FA681343FB60FB6823F014
:1026FC0080023B685B691343FB607B68FA681A6075
:10270C003B689A687B68DA623B681A687B689A62F5
:10271C007B68074A934203D13B681A697B681A634A
:10272C007B6801225A6100BF1437BD4680BC7047DC
:10273C00002C01400004004080B487B000AFF8606A
:10274C00B9607A60FB681B6A7B61FB681B6A23F0CB
:10275C000102FB681A62FB689B693B613B6923F0D1
:10276C00F0033B617B681B013A6913433B617B6956
:10277C0023F00A037B617A69BB6813437B61FB68B6
:10278C003A699A61FB687A691A6200BF1C37BD46C8
:10279C0080BC704780B487B000AFF860B9607A60D5
:1027AC00FB681B6A23F01002FB681A62FB689B69CA
:1027BC007B61FB681B6A3B617B6923F470437B6123
:1027CC007B681B037A6913437B613B6923F0A0038D
:1027DC003B61BB681B013A6913433B61FB687A6937
:1027EC009A61FB683A691A6200BF1C37BD4680BC0F
:1027FC00704780B485B000AF786039607B689B68A7
:10280C00FB60FB6823F07003FB603A68FB681343C2
:10281C0043F00703FB607B68FA689A6000BF1437CB
:10282C00BD4680BC704780B487B000AFF860B9601B
:10283C007A603B60FB689B687B617B6923F47F4318
:10284C007B613B681A027B681A43BB6813437A6945
:10285C0013437B61FB687A699A6000BF1C37BD46E5
:10286C0080BC704780B485B000AF786039607B68FD
:10287C0093F83C30012B01D1022341E07B6801220B
:10288C0083F83C207B68022283F83D207B681B6820
:10289C005B68FB607B681B689B68BB60FB6823F014
:1028AC007003FB603B681B68FA681343FB607B6832
:1028BC001B68FA685A607B681B68144A934209D0FB
:1028CC007B681B68B3F1804F04D07B681B68104A8F
:1028DC0093420CD1BB6823F08003BB603B685B6800
:1028EC00BA681343BB607B681B68BA689A607B68E4
:1028FC00012283F83D207B68002283F83C200023D2
:10290C0018461437BD4680BC704700BF002C0140F0
:10291C000004004080B483B000AF786000BF0C3777
:10292C00BD4680BC704780B483B000AF786000BFF8
:10293C000C37BD4680BC704770B500260C4D0D4C55
:10294C00641BA410A64209D100F022F800260A4DFF
:10295C000A4C641BA410A64205D170BD55F8043B6B
:10296C0098470136EEE755F8043B98470136F2E7F5
:10297C007C2A00087C2A00087C2A0008802A00088F
:10298C0003460244934200D1704703F8011BF9E758
:10299C00F8B500BFF8BC08BC9E467047F8B500BF40
:0829AC00F8BC08BC9E46704710
:1029B4000100000000000000000000000100000011
:1029C4000100000001000000010000000000000000
:1029D40000000000010000000000000000000000F2
:1029E40001000000000000000000000000000000E2
:1029F40000000000000000000100000001000000D1
:102A040000000000010000000000000000000000C1
:102A140001000000010000000000000000000000B0
:102A240000000000010000000000000000000000A1
:102A34000100000000000000000000000000000091
:102A44000000000000000000010000000100000080
:102A54000100000001000000020304050607080944
:102A64000A0B0C0D0E0F10100000000000000000F7
:082A7400010203040607080932
:042A7C00310100081C
:042A80000D0100083C
:102A84000500000002000000030000000100000037
:102A94000101010001010100010101000024F40011
:082AA400100000000100000019
:04000005080012F9E4
:00000001FF
