:020000040800F2
:1000000000280020FD050008E5050008E7050008B8
:10001000E9050008EB050008ED05000800000000F8
:10002000000000000000000000000000EF050008D4
:10003000F105000800000000F3050008F5050008C0
:100040004506000845060008450600084506000864
:100050004506000845060008450600084506000854
:100060004506000845060008450600084506000844
:100070004506000845060008450600084506000834
:100080004506000845060008450600084506000824
:100090004506000845060008450600084506000814
:1000A0004506000845060008450600084506000804
:1000B0004506000845060008000000004506000847
:1000C000450600080000000000000000450600088A
:1000D000000000004506000845060008000000007A
:1000E0004506000845060008450600080000000017
:1000F0000000000000000000000000000000000000
:0C01000000000000000000005FF808F1A3
:10010C0010B5054C237833B9044B13B10448AFF345
:10011C0000800123237010BD0C00002000000000A3
:10012C00A40E000808B5034B1BB103490348AFF3F9
:10013C00008008BD0000000010000020A40E000884
:10014C0038B50446124D02780121284600F000FC17
:10015C0028462279022100F0FBFB2846227A042152
:10016C0000F0F6FB2846227B082100F0F1FB284624
:10017C00227C102100F0ECFB2846227D202100F08F
:10018C00E7FB2846227E4021BDE8384000F0E0BB6A
:10019C00000C014030B589B009283AD8DFE800F0EE
:1001AC0039051215181B1E282B311E4D01AC0FCD15
:1001BC000FC495E8070084E8070001A8FFF7C0FF0B
:1001CC0009B030BD184D01ACF1E7184D01ACEEE7AC
:1001DC00174D01ACEBE7174D01ACE8E7002301220A
:1001EC00CDE90333CDE90132059306930793E4E798
:1001FC00114D01ACDBE71C22002101A800F044FEEC
:10020C00DBE700230122CDE90133CDE9033305926D
:10021C00EBE70023CDE90133CDE90333CDE9053319
:10022C000123E3E7BC0E0008D80E0008F40E00080A
:10023C00100F00082C0F0008480F000838B50446B2
:10024C00154D02788021284600F082FB2846227941
:10025C004FF4807100F07CFB2846227A4FF4007139
:10026C0000F076FB2846227B4FF4806100F070FB97
:10027C002846227C4FF4006100F06AFB2846227D60
:10028C004FF4805100F064FB2846227E4FF400515D
:10029C00BDE8384000F05CBB000C014030B589B0C3
:1002AC0009283AD8DFE800F039051215181B1E286A
:1002BC002B311E4D01AC0FCD0FC495E8070084E81F
:1002CC00070001A8FFF7BAFF09B030BD184D01AC0B
:1002DC00F1E7184D01ACEEE7174D01ACEBE7174D0C
:1002EC0001ACE8E700230122CDE90333CDE901326B
:1002FC00059306930793E4E7114D01ACDBE71C2251
:10030C00002101A800F0C0FDDBE700230122CDE9AC
:10031C000133CDE903330592EBE70023CDE901333B
:10032C00CDE90333CDE905330123E3E7BC0E000827
:10033C00D80E0008F40E0008100F00082C0F00084F
:10034C00480F0008092838B5044607DC0020FFF7E1
:10035C0021FF2046BDE83840FFF7A0BF0A2094FBE0
:10036C00F0F500FB1545641BB4FBF0F0FFF712FF32
:10037C002846EFE738B5264D264C2A782046102122
:10038C0000F0E6FA20462A79202100F0E1FA204616
:10039C002A7A402100F0DCFA20462A7B802100F0EA
:1003AC00D7FA20462A7C4FF4807100F0D1FA20460F
:1003BC002A7D4FF4007100F0CBFA20462A7E4FF4D0
:1003CC00806100F0C5FA20462A7F4FF4006100F0EE
:1003DC00BFFA204695F820204FF4805100F0B8FA6F
:1003EC00204695F824204FF4005100F0B1FA204635
:1003FC0095F828204FF4804100F0AAFA204695F891
:10040C002C204FF40041BDE8384000F0A1BA00BFE9
:10041C00280000200008014000231946034A01333C
:10042C000C2B42F8041BFAD1FFF7A4BF28000020C4
:10043C002DE9F04106464FF00108104F15460C46C9
:10044C00FFF7EAFF47F826800526FFF793FF94FB9A
:10045C00F6F101EB810191FBF6F147F82180FFF7F2
:10046C0089FF95FBF6F303EB830393FBF6F347F855
:10047C002380FFF77FFF2846BDE8F081280000208D
:10048C0000B591B02422002107A800F0FDFC142235
:10049C00002101A800F0F8FC02230121069310238F
:1004AC0006A8CDE90A1300F059FA014608B172B654
:1004BC00FEE70F23CDE90300CDE90130059001A83B
:1004CC0000F022FC08B172B6FEE711B05DF804FB37
:1004DC0070B586B000F0D6F8FFF7D2FF10220021DD
:1004EC0002A800F0D1FC284B4FF6F0719A6927480E
:1004FC0042F004029A619A69002402F0040200920C
:10050C00009A9A69012642F008029A619B690022BE
:10051C0003F008030193019B00F01AFA002243F642
:10052C00FF711B4800F014FA02254FF6F0731748C0
:10053C0002A9CDE90236CDE9044500F033F943F6C2
:10054C00FF73134802A9CDE90236CDE904452646CE
:10055C0000F028F9254601344FF47A7000F0B6F813
:10056C003B2CC4BF013600243B2EC4BF01350026F2
:10057C000C2DA8BF0025224631462846FFF758FF10
:10058C00FFF7E0FEE7E700BF001002400008014063
:10059C00000C01400E4B82B09A6942F001029A6144
:1005AC009A6902F001020092009ADA6942F08052D4
:1005BC00DA61DB69074A03F080530193019B5368AE
:1005CC0023F0E06343F08063536002B0704700BFD8
:1005DC000010024000000140FEE7FEE7FEE7FEE7E8
:1005EC00FEE770477047704700F05EB87047000038
:1005FC000C480D490D4A002302E0D458C450043372
:10060C00C4188C42F9D30A4A0A4C002301E0136047
:10061C000432A242FBD3FFF7E9FF00F011FCFFF715
:10062C0057FF7047000000200C000020900F0008BE
:10063C000C0000205C000020FEE7000038B50E4BDB
:10064C00054618784FF47A73B3FBF0F30B4A106835
:10065C00B0FBF3F000F090F8044658B90F2D09D810
:10066C00024629464FF0FF3000F054F82046044B68
:10067C001D6038BD0120FCE70400002000000020B4
:10068C0008000020074A08B51368032043F0100344
:10069C00136000F02DF80F20FFF7D0FFFFF77AFF63
:1006AC00002008BD00200240034A044B11681B784F
:1006BC000B441360704700BF58000020040000205A
:1006CC00014B1868704700BF5800002038B504462D
:1006DC00FFF7F6FF0546631C1EBF044B1B78E4189E
:1006EC00FFF7EEFF431BA342FAD338BD04000020F2
:1006FC0007490302CA6803F4E06322F4E0621204BF
:10070C00120C134343F0BF6343F40033CB607047C8
:10071C0000ED00E0164B30B5DC68C4F30224C4F1E4
:10072C000703251D042B28BF0423062D4FF0FF358E
:10073C0098BF002405FA03F388BF033C21EA0303A6
:10074C00A34005FA04F422EA0402002843EA020357
:10075C00ACBF00F16040074A4FEA0313DBB2ABBFFA
:10076C0000F5614000F00F0080F80033135430BDE9
:10077C0000ED00E014ED00E00138B0F1807F0AD20A
:10078C00F021064B064A586082F8231000200722FD
:10079C0098601A6070470120704700BF10E000E0BD
:1007AC0000ED00E02DE9F74F00221646604BDFF814
:1007BC0094C1DFF894E10D6835FA06F402D103B068
:1007CC00BDE8F08F4FF0010808FA06F805EA0804B6
:1007DC0038EA050578D14D68032D07D8013D022D67
:1007EC0000F28280DFE805F091969C00122D00F05B
:1007FC0094806BD8112D00F08A80FF2C98BF824614
:10080C004FF00F0988BF00F1040A4FEA8605DAF8A9
:10081C00008088BF203D09FA05FB28EA0B0802FA84
:10082C0005F548EA0505CAF80050D1F804A01AF0FD
:10083C00805F49D03F4F26F00308BD6908F180481E
:10084C0045F00105BD61BD6908F5803805F001056D
:10085C00019506F0030B019D4FEA8B0BD8F808505D
:10086C0009FA0BF925EA0909334DA8425CD005F5C4
:10087C008065A8425AD005F58065A8420CBF0225B8
:10088C00032505FA0BF545EA0905C8F808501D685B
:10089C001AF4803F14BF2543A5431D605D681AF40C
:1008AC00003F14BF2543A5435D609D681AF4801F6B
:1008BC0014BF2543A5439D60DD681AF4001F14BFC7
:1008CC002C4325EA0404DC60013674E71B4FBD425F
:1008DC000AD015D8754507D0DFF870904D4503D078
:1008EC00A9F580194D4588D18A68DAB1012A08BF6B
:1008FC00C0F810804FF0080218BFC0F814807CE7D5
:10090C000F4FBD42F0D06545EDE7CA6875E7CA6880
:10091C00043272E7CA6808326FE7CA680C326CE7B7
:10092C0000226AE7042268E70025AAE70125A8E768
:10093C000004014000100240000801400000221099
:10094C0000003110000032100000121000002110C5
:10095C000AB1016170470904FBE700002DE9F3417E
:10096C00054638B30368DB0710D42B689F075ED4A9
:10097C002B68190700F195802B685A0700F1BF808E
:10098C00E869002840F02C81002029E08F4C636836
:10099C0003F00C03042B07D0636803F00C03082B43
:1009AC000AD16368DE0307D523689C03DDD56B6829
:1009BC00002BDAD1012013E06B68B3F5803F12D124
:1009CC00236843F480332360FFF77AFE06462368DE
:1009DC009803CAD4FFF774FE801B6428F7D9032050
:1009EC0002B0BDE8F0819BB9236823F48033236007
:1009FC00236823F480232360FFF762FE06462368F6
:100A0C009903B2D5FFF75CFE801B6428F7D9E6E7A3
:100A1C00B3F5A02F236803D143F480232360CFE7E1
:100A2C0023F480332360236823F48023CBE7674CC3
:100A3C00636813F00C0F07D0636803F00C03082BEA
:100A4C0010D16368DA030DD423689B0702D52B6998
:100A5C00012BAFD123686A6923F0F80343EAC20380
:100A6C00236085E72A695A4B6AB101221A60FFF7A5
:100A7C0027FE064623689F07ECD4FFF721FE801B58
:100A8C000228F7D9ABE71A60FFF71AFE064623686F
:100A9C0098077FF56DAFFFF713FE801B0228F6D980
:100AAC009DE7AA69494E4B4BDAB101221A60FFF758
:100ABC0007FE0446736A9B070DD54FF4FA52464B5A
:100ACC001B68B3FBF2F3019300BF019B5A1E01920A
:100ADC00002BF9D150E7FFF7F3FD001B0228E9D9F1
:100AEC007DE71A60FFF7ECFD0446736A9F077FF5FC
:100AFC0043AFFFF7E5FD001B0228F6D96FE7334C37
:100B0C00E369D80024D40127E36943F08053E361FF
:100B1C00E36903F080530093009B304E3368D90592
:100B2C0018D5EB68012B26D1236A43F0010323620D
:100B3C00FFF7C6FD41F288380646236A9B073FD56E
:100B4C00002F3FF41DAFE36923F08053E36117E7F7
:100B5C000027E2E7336843F480733360FFF7B0FD9E
:100B6C0080463368DA05DCD4FFF7AAFDA0EB080059
:100B7C006428F6D933E7ABB9236A41F2883823F0FD
:100B8C0001032362236A23F004032362FFF798FD19
:100B9C000646236A9807D3D5FFF792FD801B404584
:100BAC00F7D91CE7052B236A03D143F00403236216
:100BBC00BAE723F001032362236A23F00403B6E7A8
:100BCC00FFF77EFD801B4045B7D908E700100240B7
:100BDC0000004242800442420000002000700040AD
:100BEC002A4B5A681C4602F00C02082A3DD00023FE
:100BFC00274E022833602BD1FFF762FD074623688E
:100C0C0099011FD42B6AB3F5803F05D16268A9689E
:100C1C0022F400320A436260696A62680B4322F470
:100C2C0074121343636001233360FFF749FD0546DB
:100C3C0023689A013FF5A8AEFFF742FD401B02283E
:100C4C00F6D9CCE6FFF73CFDC01B0228D7D9C6E687
:100C5C00FFF736FD054623689B017FF595AEFFF740
:100C6C002FFD401B0228F6D9B9E601283FF4B8AE97
:100C7C005B682A6A03F4803191427FF49BAE6A6A06
:100C8C0003F4701393423FF47FAE93E600100240DE
:100C9C006000424230B5184B87B002AC03F110052E
:100CAC00224618685968083303C2AB421446F7D180
:100CBC0040F201231149ADF804304B6803F00C02EB
:100CCC00082A17D1C3F3834206A80244DB0312F8A7
:100CDC00102C0CD54B680A48C3F34043504306AA6A
:100CEC00134413F8143CB0FBF3F007B030BD0548C7
:100CFC005043FAE70248F8E7740F0008001002406E
:100D0C0000127A0000093D002DE9F0410D46044621
:100D1C0010B90120BDE8F081444A136803F00703C1
:100D2C008B4228D321688E0730D4CA0743D43F4A5C
:100D3C00136803F00703AB4265D822683C4D12F0F0
:100D4C00040F6CD1130706D56B68226923F460532A
:100D5C0043EAC2036B60FFF79DFF6B68354AC3F330
:100D6C000313D35CD840344B1860344B1868FFF72E
:100D7C0065FC0020CEE7136823F007030B431360D8
:100D8C00136803F007038B42C3D1CBE7284B11F058
:100D9C00040F1EBF5A6842F4E0625A60080742BF53
:100DAC005A6842F460525A605A68A06822F0F00205
:100DBC0002435A60B9E762681D4E012A33681AD1A2
:100DCC0013F4003FA5D0736841F2883823F0030375
:100DDC0013437360FFF774FC07467368626803F093
:100DEC000C03B3EB820FA2D0FFF76AFCC01B40458B
:100DFC00F3D903208EE7022A02D113F0007FE1E73A
:100E0C0013F0020FDEE7136823F007032B43136084
:100E1C00136803F00703AB427FF47BAF8DE76B687D
:100E2C00E16823F4E0630B436B608BE70020024026
:100E3C0000100240640F0008000000200800002091
:100E4C0070B500260C4D0D4C641BA410A64209D1A4
:100E5C0000F022F800260A4D0A4C641BA410A6428E
:100E6C0005D170BD55F8043B98470136EEE755F8AF
:100E7C00043B98470136F2E7880F0008880F0008FA
:100E8C00880F00088C0F000803460244934200D1DF
:100E9C00704703F8011BF9E7F8B500BFF8BC08BCB4
:100EAC009E467047F8B500BFF8BC08BC9E4670471C
:100EBC000100000000000000000000000100000024
:100ECC000100000001000000010000000000000013
:100EDC000000000001000000000000000000000005
:100EEC0001000000000000000000000000000000F5
:100EFC0000000000000000000100000001000000E4
:100F0C0000000000010000000000000000000000D4
:100F1C0001000000010000000000000000000000C3
:100F2C0000000000010000000000000000000000B4
:100F3C0001000000000000000000000000000000A4
:100F4C000000000000000000010000000100000093
:100F5C000100000001000000000000000000000083
:100F6C000102030406070809020304050607080921
:0C0F7C000A0B0C0D0E0F101000000000FE
:040F8800310100082B
:040F8C000D0100084B
:0C0F90000024F40001000000100000002C
:04000005080005FDED
:00000001FF
